{
  "_format": "hh-sol-artifact-1",
  "contractName": "NFT",
  "sourceName": "contracts/NFT.sol",
  "abi": [
    {
      "inputs": [
        {
          "internalType": "address",
          "name": "initialOwner",
          "type": "address"
        },
        {
          "internalType": "string",
          "name": "projectName",
          "type": "string"
        },
        {
          "internalType": "string",
          "name": "tokenName",
          "type": "string"
        }
      ],
      "stateMutability": "nonpayable",
      "type": "constructor"
    },
    {
      "inputs": [],
      "name": "CheckpointUnorderedInsertion",
      "type": "error"
    },
    {
      "inputs": [],
      "name": "ECDSAInvalidSignature",
      "type": "error"
    },
    {
      "inputs": [
        {
          "internalType": "uint256",
          "name": "length",
          "type": "uint256"
        }
      ],
      "name": "ECDSAInvalidSignatureLength",
      "type": "error"
    },
    {
      "inputs": [
        {
          "internalType": "bytes32",
          "name": "s",
          "type": "bytes32"
        }
      ],
      "name": "ECDSAInvalidSignatureS",
      "type": "error"
    },
    {
      "inputs": [
        {
          "internalType": "uint256",
          "name": "timepoint",
          "type": "uint256"
        },
        {
          "internalType": "uint48",
          "name": "clock",
          "type": "uint48"
        }
      ],
      "name": "ERC5805FutureLookup",
      "type": "error"
    },
    {
      "inputs": [],
      "name": "ERC6372InconsistentClock",
      "type": "error"
    },
    {
      "inputs": [],
      "name": "ERC721EnumerableForbiddenBatchMint",
      "type": "error"
    },
    {
      "inputs": [
        {
          "internalType": "address",
          "name": "sender",
          "type": "address"
        },
        {
          "internalType": "uint256",
          "name": "tokenId",
          "type": "uint256"
        },
        {
          "internalType": "address",
          "name": "owner",
          "type": "address"
        }
      ],
      "name": "ERC721IncorrectOwner",
      "type": "error"
    },
    {
      "inputs": [
        {
          "internalType": "address",
          "name": "operator",
          "type": "address"
        },
        {
          "internalType": "uint256",
          "name": "tokenId",
          "type": "uint256"
        }
      ],
      "name": "ERC721InsufficientApproval",
      "type": "error"
    },
    {
      "inputs": [
        {
          "internalType": "address",
          "name": "approver",
          "type": "address"
        }
      ],
      "name": "ERC721InvalidApprover",
      "type": "error"
    },
    {
      "inputs": [
        {
          "internalType": "address",
          "name": "operator",
          "type": "address"
        }
      ],
      "name": "ERC721InvalidOperator",
      "type": "error"
    },
    {
      "inputs": [
        {
          "internalType": "address",
          "name": "owner",
          "type": "address"
        }
      ],
      "name": "ERC721InvalidOwner",
      "type": "error"
    },
    {
      "inputs": [
        {
          "internalType": "address",
          "name": "receiver",
          "type": "address"
        }
      ],
      "name": "ERC721InvalidReceiver",
      "type": "error"
    },
    {
      "inputs": [
        {
          "internalType": "address",
          "name": "sender",
          "type": "address"
        }
      ],
      "name": "ERC721InvalidSender",
      "type": "error"
    },
    {
      "inputs": [
        {
          "internalType": "uint256",
          "name": "tokenId",
          "type": "uint256"
        }
      ],
      "name": "ERC721NonexistentToken",
      "type": "error"
    },
    {
      "inputs": [
        {
          "internalType": "address",
          "name": "owner",
          "type": "address"
        },
        {
          "internalType": "uint256",
          "name": "index",
          "type": "uint256"
        }
      ],
      "name": "ERC721OutOfBoundsIndex",
      "type": "error"
    },
    {
      "inputs": [],
      "name": "EnforcedPause",
      "type": "error"
    },
    {
      "inputs": [],
      "name": "ExpectedPause",
      "type": "error"
    },
    {
      "inputs": [
        {
          "internalType": "address",
          "name": "account",
          "type": "address"
        },
        {
          "internalType": "uint256",
          "name": "currentNonce",
          "type": "uint256"
        }
      ],
      "name": "InvalidAccountNonce",
      "type": "error"
    },
    {
      "inputs": [],
      "name": "InvalidShortString",
      "type": "error"
    },
    {
      "inputs": [
        {
          "internalType": "address",
          "name": "owner",
          "type": "address"
        }
      ],
      "name": "OwnableInvalidOwner",
      "type": "error"
    },
    {
      "inputs": [
        {
          "internalType": "address",
          "name": "account",
          "type": "address"
        }
      ],
      "name": "OwnableUnauthorizedAccount",
      "type": "error"
    },
    {
      "inputs": [
        {
          "internalType": "uint8",
          "name": "bits",
          "type": "uint8"
        },
        {
          "internalType": "uint256",
          "name": "value",
          "type": "uint256"
        }
      ],
      "name": "SafeCastOverflowedUintDowncast",
      "type": "error"
    },
    {
      "inputs": [
        {
          "internalType": "string",
          "name": "str",
          "type": "string"
        }
      ],
      "name": "StringTooLong",
      "type": "error"
    },
    {
      "inputs": [
        {
          "internalType": "uint256",
          "name": "expiry",
          "type": "uint256"
        }
      ],
      "name": "VotesExpiredSignature",
      "type": "error"
    },
    {
      "anonymous": false,
      "inputs": [
        {
          "indexed": true,
          "internalType": "address",
          "name": "owner",
          "type": "address"
        },
        {
          "indexed": true,
          "internalType": "address",
          "name": "approved",
          "type": "address"
        },
        {
          "indexed": true,
          "internalType": "uint256",
          "name": "tokenId",
          "type": "uint256"
        }
      ],
      "name": "Approval",
      "type": "event"
    },
    {
      "anonymous": false,
      "inputs": [
        {
          "indexed": true,
          "internalType": "address",
          "name": "owner",
          "type": "address"
        },
        {
          "indexed": true,
          "internalType": "address",
          "name": "operator",
          "type": "address"
        },
        {
          "indexed": false,
          "internalType": "bool",
          "name": "approved",
          "type": "bool"
        }
      ],
      "name": "ApprovalForAll",
      "type": "event"
    },
    {
      "anonymous": false,
      "inputs": [
        {
          "indexed": true,
          "internalType": "address",
          "name": "delegator",
          "type": "address"
        },
        {
          "indexed": true,
          "internalType": "address",
          "name": "fromDelegate",
          "type": "address"
        },
        {
          "indexed": true,
          "internalType": "address",
          "name": "toDelegate",
          "type": "address"
        }
      ],
      "name": "DelegateChanged",
      "type": "event"
    },
    {
      "anonymous": false,
      "inputs": [
        {
          "indexed": true,
          "internalType": "address",
          "name": "delegate",
          "type": "address"
        },
        {
          "indexed": false,
          "internalType": "uint256",
          "name": "previousVotes",
          "type": "uint256"
        },
        {
          "indexed": false,
          "internalType": "uint256",
          "name": "newVotes",
          "type": "uint256"
        }
      ],
      "name": "DelegateVotesChanged",
      "type": "event"
    },
    {
      "anonymous": false,
      "inputs": [],
      "name": "EIP712DomainChanged",
      "type": "event"
    },
    {
      "anonymous": false,
      "inputs": [
        {
          "indexed": true,
          "internalType": "address",
          "name": "previousOwner",
          "type": "address"
        },
        {
          "indexed": true,
          "internalType": "address",
          "name": "newOwner",
          "type": "address"
        }
      ],
      "name": "OwnershipTransferred",
      "type": "event"
    },
    {
      "anonymous": false,
      "inputs": [
        {
          "indexed": false,
          "internalType": "address",
          "name": "account",
          "type": "address"
        }
      ],
      "name": "Paused",
      "type": "event"
    },
    {
      "anonymous": false,
      "inputs": [
        {
          "indexed": true,
          "internalType": "address",
          "name": "from",
          "type": "address"
        },
        {
          "indexed": true,
          "internalType": "address",
          "name": "to",
          "type": "address"
        },
        {
          "indexed": true,
          "internalType": "uint256",
          "name": "tokenId",
          "type": "uint256"
        }
      ],
      "name": "Transfer",
      "type": "event"
    },
    {
      "anonymous": false,
      "inputs": [
        {
          "indexed": false,
          "internalType": "address",
          "name": "account",
          "type": "address"
        }
      ],
      "name": "Unpaused",
      "type": "event"
    },
    {
      "inputs": [],
      "name": "CLOCK_MODE",
      "outputs": [
        {
          "internalType": "string",
          "name": "",
          "type": "string"
        }
      ],
      "stateMutability": "view",
      "type": "function"
    },
    {
      "inputs": [
        {
          "internalType": "address",
          "name": "to",
          "type": "address"
        },
        {
          "internalType": "uint256",
          "name": "tokenId",
          "type": "uint256"
        }
      ],
      "name": "approve",
      "outputs": [],
      "stateMutability": "nonpayable",
      "type": "function"
    },
    {
      "inputs": [
        {
          "internalType": "address",
          "name": "owner",
          "type": "address"
        }
      ],
      "name": "balanceOf",
      "outputs": [
        {
          "internalType": "uint256",
          "name": "",
          "type": "uint256"
        }
      ],
      "stateMutability": "view",
      "type": "function"
    },
    {
      "inputs": [
        {
          "internalType": "uint256",
          "name": "tokenId",
          "type": "uint256"
        }
      ],
      "name": "burn",
      "outputs": [],
      "stateMutability": "nonpayable",
      "type": "function"
    },
    {
      "inputs": [],
      "name": "clock",
      "outputs": [
        {
          "internalType": "uint48",
          "name": "",
          "type": "uint48"
        }
      ],
      "stateMutability": "view",
      "type": "function"
    },
    {
      "inputs": [],
      "name": "currentMint",
      "outputs": [
        {
          "internalType": "uint256",
          "name": "",
          "type": "uint256"
        }
      ],
      "stateMutability": "view",
      "type": "function"
    },
    {
      "inputs": [
        {
          "internalType": "address",
          "name": "delegatee",
          "type": "address"
        }
      ],
      "name": "delegate",
      "outputs": [],
      "stateMutability": "nonpayable",
      "type": "function"
    },
    {
      "inputs": [
        {
          "internalType": "address",
          "name": "delegatee",
          "type": "address"
        },
        {
          "internalType": "uint256",
          "name": "nonce",
          "type": "uint256"
        },
        {
          "internalType": "uint256",
          "name": "expiry",
          "type": "uint256"
        },
        {
          "internalType": "uint8",
          "name": "v",
          "type": "uint8"
        },
        {
          "internalType": "bytes32",
          "name": "r",
          "type": "bytes32"
        },
        {
          "internalType": "bytes32",
          "name": "s",
          "type": "bytes32"
        }
      ],
      "name": "delegateBySig",
      "outputs": [],
      "stateMutability": "nonpayable",
      "type": "function"
    },
    {
      "inputs": [
        {
          "internalType": "address",
          "name": "account",
          "type": "address"
        }
      ],
      "name": "delegates",
      "outputs": [
        {
          "internalType": "address",
          "name": "",
          "type": "address"
        }
      ],
      "stateMutability": "view",
      "type": "function"
    },
    {
      "inputs": [],
      "name": "eip712Domain",
      "outputs": [
        {
          "internalType": "bytes1",
          "name": "fields",
          "type": "bytes1"
        },
        {
          "internalType": "string",
          "name": "name",
          "type": "string"
        },
        {
          "internalType": "string",
          "name": "version",
          "type": "string"
        },
        {
          "internalType": "uint256",
          "name": "chainId",
          "type": "uint256"
        },
        {
          "internalType": "address",
          "name": "verifyingContract",
          "type": "address"
        },
        {
          "internalType": "bytes32",
          "name": "salt",
          "type": "bytes32"
        },
        {
          "internalType": "uint256[]",
          "name": "extensions",
          "type": "uint256[]"
        }
      ],
      "stateMutability": "view",
      "type": "function"
    },
    {
      "inputs": [
        {
          "internalType": "uint256",
          "name": "tokenId",
          "type": "uint256"
        }
      ],
      "name": "getApproved",
      "outputs": [
        {
          "internalType": "address",
          "name": "",
          "type": "address"
        }
      ],
      "stateMutability": "view",
      "type": "function"
    },
    {
      "inputs": [
        {
          "internalType": "uint256",
          "name": "timepoint",
          "type": "uint256"
        }
      ],
      "name": "getPastTotalSupply",
      "outputs": [
        {
          "internalType": "uint256",
          "name": "",
          "type": "uint256"
        }
      ],
      "stateMutability": "view",
      "type": "function"
    },
    {
      "inputs": [
        {
          "internalType": "address",
          "name": "account",
          "type": "address"
        },
        {
          "internalType": "uint256",
          "name": "timepoint",
          "type": "uint256"
        }
      ],
      "name": "getPastVotes",
      "outputs": [
        {
          "internalType": "uint256",
          "name": "",
          "type": "uint256"
        }
      ],
      "stateMutability": "view",
      "type": "function"
    },
    {
      "inputs": [
        {
          "internalType": "address",
          "name": "owner",
          "type": "address"
        }
      ],
      "name": "getTokenIdsByOwner",
      "outputs": [
        {
          "internalType": "uint256[]",
          "name": "",
          "type": "uint256[]"
        }
      ],
      "stateMutability": "view",
      "type": "function"
    },
    {
      "inputs": [
        {
          "internalType": "address",
          "name": "account",
          "type": "address"
        }
      ],
      "name": "getVotes",
      "outputs": [
        {
          "internalType": "uint256",
          "name": "",
          "type": "uint256"
        }
      ],
      "stateMutability": "view",
      "type": "function"
    },
    {
      "inputs": [
        {
          "internalType": "address",
          "name": "owner",
          "type": "address"
        },
        {
          "internalType": "address",
          "name": "operator",
          "type": "address"
        }
      ],
      "name": "isApprovedForAll",
      "outputs": [
        {
          "internalType": "bool",
          "name": "",
          "type": "bool"
        }
      ],
      "stateMutability": "view",
      "type": "function"
    },
    {
      "inputs": [],
      "name": "maxmint",
      "outputs": [
        {
          "internalType": "uint256",
          "name": "",
          "type": "uint256"
        }
      ],
      "stateMutability": "view",
      "type": "function"
    },
    {
      "inputs": [],
      "name": "name",
      "outputs": [
        {
          "internalType": "string",
          "name": "",
          "type": "string"
        }
      ],
      "stateMutability": "view",
      "type": "function"
    },
    {
      "inputs": [
        {
          "internalType": "address",
          "name": "owner",
          "type": "address"
        }
      ],
      "name": "nonces",
      "outputs": [
        {
          "internalType": "uint256",
          "name": "",
          "type": "uint256"
        }
      ],
      "stateMutability": "view",
      "type": "function"
    },
    {
      "inputs": [],
      "name": "owner",
      "outputs": [
        {
          "internalType": "address",
          "name": "",
          "type": "address"
        }
      ],
      "stateMutability": "view",
      "type": "function"
    },
    {
      "inputs": [
        {
          "internalType": "uint256",
          "name": "tokenId",
          "type": "uint256"
        }
      ],
      "name": "ownerOf",
      "outputs": [
        {
          "internalType": "address",
          "name": "",
          "type": "address"
        }
      ],
      "stateMutability": "view",
      "type": "function"
    },
    {
      "inputs": [],
      "name": "pause",
      "outputs": [],
      "stateMutability": "nonpayable",
      "type": "function"
    },
    {
      "inputs": [],
      "name": "paused",
      "outputs": [
        {
          "internalType": "bool",
          "name": "",
          "type": "bool"
        }
      ],
      "stateMutability": "view",
      "type": "function"
    },
    {
      "inputs": [],
      "name": "renounceOwnership",
      "outputs": [],
      "stateMutability": "nonpayable",
      "type": "function"
    },
    {
      "inputs": [
        {
          "internalType": "address",
          "name": "to",
          "type": "address"
        },
        {
          "internalType": "uint256",
          "name": "numberOfTokens",
          "type": "uint256"
        }
      ],
      "name": "safeMint",
      "outputs": [
        {
          "internalType": "uint256[]",
          "name": "",
          "type": "uint256[]"
        }
      ],
      "stateMutability": "nonpayable",
      "type": "function"
    },
    {
      "inputs": [
        {
          "internalType": "address",
          "name": "from",
          "type": "address"
        },
        {
          "internalType": "address",
          "name": "to",
          "type": "address"
        },
        {
          "internalType": "uint256",
          "name": "tokenId",
          "type": "uint256"
        }
      ],
      "name": "safeTransferFrom",
      "outputs": [],
      "stateMutability": "nonpayable",
      "type": "function"
    },
    {
      "inputs": [
        {
          "internalType": "address",
          "name": "from",
          "type": "address"
        },
        {
          "internalType": "address",
          "name": "to",
          "type": "address"
        },
        {
          "internalType": "uint256",
          "name": "tokenId",
          "type": "uint256"
        },
        {
          "internalType": "bytes",
          "name": "data",
          "type": "bytes"
        }
      ],
      "name": "safeTransferFrom",
      "outputs": [],
      "stateMutability": "nonpayable",
      "type": "function"
    },
    {
      "inputs": [
        {
          "internalType": "address",
          "name": "operator",
          "type": "address"
        },
        {
          "internalType": "bool",
          "name": "approved",
          "type": "bool"
        }
      ],
      "name": "setApprovalForAll",
      "outputs": [],
      "stateMutability": "nonpayable",
      "type": "function"
    },
    {
      "inputs": [
        {
          "internalType": "bytes4",
          "name": "interfaceId",
          "type": "bytes4"
        }
      ],
      "name": "supportsInterface",
      "outputs": [
        {
          "internalType": "bool",
          "name": "",
          "type": "bool"
        }
      ],
      "stateMutability": "view",
      "type": "function"
    },
    {
      "inputs": [],
      "name": "symbol",
      "outputs": [
        {
          "internalType": "string",
          "name": "",
          "type": "string"
        }
      ],
      "stateMutability": "view",
      "type": "function"
    },
    {
      "inputs": [
        {
          "internalType": "uint256",
          "name": "index",
          "type": "uint256"
        }
      ],
      "name": "tokenByIndex",
      "outputs": [
        {
          "internalType": "uint256",
          "name": "",
          "type": "uint256"
        }
      ],
      "stateMutability": "view",
      "type": "function"
    },
    {
      "inputs": [
        {
          "internalType": "address",
          "name": "owner",
          "type": "address"
        },
        {
          "internalType": "uint256",
          "name": "index",
          "type": "uint256"
        }
      ],
      "name": "tokenOfOwnerByIndex",
      "outputs": [
        {
          "internalType": "uint256",
          "name": "",
          "type": "uint256"
        }
      ],
      "stateMutability": "view",
      "type": "function"
    },
    {
      "inputs": [
        {
          "internalType": "uint256",
          "name": "tokenId",
          "type": "uint256"
        }
      ],
      "name": "tokenURI",
      "outputs": [
        {
          "internalType": "string",
          "name": "",
          "type": "string"
        }
      ],
      "stateMutability": "view",
      "type": "function"
    },
    {
      "inputs": [],
      "name": "totalSupply",
      "outputs": [
        {
          "internalType": "uint256",
          "name": "",
          "type": "uint256"
        }
      ],
      "stateMutability": "view",
      "type": "function"
    },
    {
      "inputs": [
        {
          "internalType": "address",
          "name": "from",
          "type": "address"
        },
        {
          "internalType": "address",
          "name": "to",
          "type": "address"
        },
        {
          "internalType": "uint256",
          "name": "tokenId",
          "type": "uint256"
        }
      ],
      "name": "transferFrom",
      "outputs": [],
      "stateMutability": "nonpayable",
      "type": "function"
    },
    {
      "inputs": [
        {
          "internalType": "address",
          "name": "newOwner",
          "type": "address"
        }
      ],
      "name": "transferOwnership",
      "outputs": [],
      "stateMutability": "nonpayable",
      "type": "function"
    },
    {
      "inputs": [],
      "name": "unpause",
      "outputs": [],
      "stateMutability": "nonpayable",
      "type": "function"
    }
  ],
  "bytecode": "0x6101606040526127106014553480156200001857600080fd5b506040516200311c3803806200311c8339810160408190526200003b9162000320565b6040805180820190915260018152603160f81b60208201528290848284600062000066838262000439565b50600162000075828262000439565b5050600a805460ff19169055506001600160a01b038116620000b257604051631e4fbdf760e01b8152600060048201526024015b60405180910390fd5b620000bd816200017d565b50620000cb82600b620001d7565b61012052620000dc81600c620001d7565b61014052815160208084019190912060e052815190820120610100524660a0526200016a60e05161010051604080517f8b73c3c69bb8fe3d512ecc4cf759cc79239f7b179b0ffacaa9a75d522b39400f60208201529081019290925260608201524660808201523060a082015260009060c00160405160208183030381529060405280519060200120905090565b60805250503060c052506200055f915050565b600a80546001600160a01b03838116610100818102610100600160a81b031985161790945560405193909204169182907f8be0079c531659141344cd1fd0a4f28419497f9722a3daafe3b4186f6b6457e090600090a35050565b6000602083511015620001f757620001ef8362000210565b90506200020a565b8162000204848262000439565b5060ff90505b92915050565b600080829050601f815111156200023e578260405163305a27a960e01b8152600401620000a9919062000505565b80516200024b826200053a565b179392505050565b634e487b7160e01b600052604160045260246000fd5b60005b83811015620002865781810151838201526020016200026c565b50506000910152565b600082601f830112620002a157600080fd5b81516001600160401b0380821115620002be57620002be62000253565b604051601f8301601f19908116603f01168101908282118183101715620002e957620002e962000253565b816040528381528660208588010111156200030357600080fd5b6200031684602083016020890162000269565b9695505050505050565b6000806000606084860312156200033657600080fd5b83516001600160a01b03811681146200034e57600080fd5b60208501519093506001600160401b03808211156200036c57600080fd5b6200037a878388016200028f565b935060408601519150808211156200039157600080fd5b50620003a0868287016200028f565b9150509250925092565b600181811c90821680620003bf57607f821691505b602082108103620003e057634e487b7160e01b600052602260045260246000fd5b50919050565b601f8211156200043457600081815260208120601f850160051c810160208610156200040f5750805b601f850160051c820191505b8181101562000430578281556001016200041b565b5050505b505050565b81516001600160401b0381111562000455576200045562000253565b6200046d81620004668454620003aa565b84620003e6565b602080601f831160018114620004a557600084156200048c5750858301515b600019600386901b1c1916600185901b17855562000430565b600085815260208120601f198616915b82811015620004d657888601518255948401946001909101908401620004b5565b5085821015620004f55787850151600019600388901b60f8161c191681555b5050505050600190811b01905550565b60208152600082518060208401526200052681604085016020870162000269565b601f01601f19169190910160400192915050565b80516020808301519190811015620003e05760001960209190910360031b1b16919050565b60805160a05160c05160e051610100516101205161014051612b62620005ba60003960006110aa0152600061107d01526000611a3a01526000611a120152600061196d01526000611997015260006119c10152612b626000f3fe608060405234801561001057600080fd5b50600436106102275760003560e01c806370a082311161013057806395d89b41116100b8578063b88d4fde1161007c578063b88d4fde146104bc578063c3cda520146104cf578063c87b56dd146104e2578063e985e9c5146104f5578063f2fde38b1461050857600080fd5b806395d89b41146104725780639ab24eb01461047a578063a14481941461048d578063a22cb465146104a0578063b501eaf5146104b357600080fd5b806384b0196e116100ff57806384b0196e146104065780638aa80ea5146104215780638da5cb5b1461042a5780638e539e8c1461044057806391ddadf41461045357600080fd5b806370a08231146103ba578063715018a6146103cd5780637ecebe00146103d55780638456cb59146103fe57600080fd5b806342842e0e116101b3578063587cde1e11610182578063587cde1e1461033d5780635c19a95c146103695780635c975abb1461037c5780636352211e146103875780636970bb0a1461039a57600080fd5b806342842e0e146102fc57806342966c681461030f5780634bf5d7e9146103225780634f6ccce71461032a57600080fd5b806318160ddd116101fa57806318160ddd146102a957806323b872dd146102bb5780632f745c59146102ce5780633a46b1a8146102e15780633f4ba83a146102f457600080fd5b806301ffc9a71461022c57806306fdde0314610254578063081812fc14610269578063095ea7b314610294575b600080fd5b61023f61023a36600461259e565b61051b565b60405190151581526020015b60405180910390f35b61025c61052c565b60405161024b919061260b565b61027c61027736600461261e565b6105be565b6040516001600160a01b03909116815260200161024b565b6102a76102a2366004612653565b6105e7565b005b6008545b60405190815260200161024b565b6102a76102c936600461267d565b6105f6565b6102ad6102dc366004612653565b610686565b6102ad6102ef366004612653565b6106eb565b6102a761076c565b6102a761030a36600461267d565b61077e565b6102a761031d36600461261e565b61079e565b61025c6107aa565b6102ad61033836600461261e565b610822565b61027c61034b3660046126b9565b6001600160a01b039081166000908152600e60205260409020541690565b6102a76103773660046126b9565b61087b565b600a5460ff1661023f565b61027c61039536600461261e565b610886565b6103ad6103a83660046126b9565b610891565b60405161024b919061270f565b6102ad6103c83660046126b9565b6108fd565b6102a7610945565b6102ad6103e33660046126b9565b6001600160a01b03166000908152600d602052604090205490565b6102a7610957565b61040e610967565b60405161024b9796959493929190612722565b6102ad60145481565b600a5461010090046001600160a01b031661027c565b6102ad61044e36600461261e565b6109ad565b61045b610a17565b60405165ffffffffffff909116815260200161024b565b61025c610a26565b6102ad6104883660046126b9565b610a35565b6103ad61049b366004612653565b610a65565b6102a76104ae366004612792565b610bb0565b6102ad60155481565b6102a76104ca3660046127e4565b610bbb565b6102a76104dd3660046128c0565b610bd2565b61025c6104f036600461261e565b610c8f565b61023f610503366004612920565b610d04565b6102a76105163660046126b9565b610d32565b600061052682610d70565b92915050565b60606000805461053b90612953565b80601f016020809104026020016040519081016040528092919081815260200182805461056790612953565b80156105b45780601f10610589576101008083540402835291602001916105b4565b820191906000526020600020905b81548152906001019060200180831161059757829003601f168201915b5050505050905090565b60006105c982610d95565b506000828152600460205260409020546001600160a01b0316610526565b6105f2828233610dce565b5050565b6001600160a01b03821661062557604051633250574960e11b8152600060048201526024015b60405180910390fd5b6000610632838333610ddb565b9050836001600160a01b0316816001600160a01b031614610680576040516364283d7b60e01b81526001600160a01b038086166004830152602482018490528216604482015260640161061c565b50505050565b6000610691836108fd565b82106106c25760405163295f44f760e21b81526001600160a01b03841660048201526024810183905260440161061c565b506001600160a01b03919091166000908152600660209081526040808320938352929052205490565b6000806106f6610a17565b90508065ffffffffffff16831061073157604051637669fc0f60e11b81526004810184905265ffffffffffff8216602482015260440161061c565b61075b61073d84610df0565b6001600160a01b0386166000908152600f6020526040902090610e27565b6001600160d01b0316949350505050565b610774610edd565b61077c610f10565b565b61079983838360405180602001604052806000815250610bbb565b505050565b6105f260008233610ddb565b60606107b4610f62565b65ffffffffffff166107c4610a17565b65ffffffffffff16146107ea576040516301bfc1c560e61b815260040160405180910390fd5b5060408051808201909152601d81527f6d6f64653d626c6f636b6e756d6265722666726f6d3d64656661756c74000000602082015290565b600061082d60085490565b82106108565760405163295f44f760e21b8152600060048201526024810183905260440161061c565b600882815481106108695761086961298d565b90600052602060002001549050919050565b336105f28183610f6d565b600061052682610d95565b6001600160a01b0381166000908152601260209081526040918290208054835181840281018401909452808452606093928301828280156108f157602002820191906000526020600020905b8154815260200190600101908083116108dd575b50505050509050919050565b60006001600160a01b038216610929576040516322718ad960e21b81526000600482015260240161061c565b506001600160a01b031660009081526003602052604090205490565b61094d610edd565b61077c6000610fdf565b61095f610edd565b61077c611039565b60006060806000806000606061097b611076565b6109836110a3565b60408051600080825260208201909252600f60f81b9b939a50919850469750309650945092509050565b6000806109b8610a17565b90508065ffffffffffff1683106109f357604051637669fc0f60e11b81526004810184905265ffffffffffff8216602482015260440161061c565b610a076109ff84610df0565b601090610e27565b6001600160d01b03169392505050565b6000610a21610f62565b905090565b60606001805461053b90612953565b6001600160a01b0381166000908152600f60205260408120610a56906110d0565b6001600160d01b031692915050565b6060610a6f610edd565b60145482601554610a8091906129b9565b1115610ac35760405162461bcd60e51b815260206004820152601260248201527113585e081b1a5b5a5d08195e18d95959195960721b604482015260640161061c565b60008267ffffffffffffffff811115610ade57610ade6127ce565b604051908082528060200260200182016040528015610b07578160200160208202803683370190505b50905060005b83811015610b7e57601354610b228682611109565b80838381518110610b3557610b3561298d565b602090810291909101015260158054906000610b50836129cc565b909155505060138054906000610b65836129cc565b9190505550508080610b76906129cc565b915050610b0d565b506001600160a01b03841660009081526012602090815260409091208251610ba892840190612531565b509392505050565b6105f2338383611123565b610bc68484846105f6565b610680848484846111c2565b83421115610bf657604051632341d78760e11b81526004810185905260240161061c565b604080517fe48329057bfd03d55e49b547132e39cffd9c1820ad7b9d4c5307691425d15adf60208201526001600160a01b038816918101919091526060810186905260808101859052600090610c7090610c689060a001604051602081830303815290604052805190602001206112eb565b858585611318565b9050610c7c8187611346565b610c868188610f6d565b50505050505050565b6060610c9a82610d95565b506000610cb260408051602081019091526000815290565b90506000815111610cd25760405180602001604052806000815250610cfd565b80610cdc84611399565b604051602001610ced9291906129e5565b6040516020818303038152906040525b9392505050565b6001600160a01b03918216600090815260056020908152604080832093909416825291909152205460ff1690565b610d3a610edd565b6001600160a01b038116610d6457604051631e4fbdf760e01b81526000600482015260240161061c565b610d6d81610fdf565b50565b60006001600160e01b0319821663780e9d6360e01b148061052657506105268261142c565b6000818152600260205260408120546001600160a01b03168061052657604051637e27328960e01b81526004810184905260240161061c565b610799838383600161147c565b6000610de8848484611582565b949350505050565b600065ffffffffffff821115610e23576040516306dfcc6560e41b8152603060048201526024810183905260440161061c565b5090565b815460009081816005811115610e86576000610e428461159e565b610e4c9085612a14565b60008881526020902090915081015465ffffffffffff9081169087161015610e7657809150610e84565b610e818160016129b9565b92505b505b6000610e9487878585611686565b90508015610ecf57610eb987610eab600184612a14565b600091825260209091200190565b54600160301b90046001600160d01b0316610ed2565b60005b979650505050505050565b600a546001600160a01b0361010090910416331461077c5760405163118cdaa760e01b815233600482015260240161061c565b610f186116e0565b600a805460ff191690557f5db9ee0a495bf2e6ff9c91a7834c1ba4fdd244a5e8aa4e537bd38aeae4b073aa335b6040516001600160a01b03909116815260200160405180910390a1565b6000610a2143610df0565b6001600160a01b038281166000818152600e602052604080822080548686166001600160a01b0319821681179092559151919094169392849290917f3134e8a2e6d97e929a7e54011ea5485d7d196dd5f0ba4d4ef95803e8e3fc257f9190a46107998183610fda86611703565b61170e565b600a80546001600160a01b03838116610100818102610100600160a81b031985161790945560405193909204169182907f8be0079c531659141344cd1fd0a4f28419497f9722a3daafe3b4186f6b6457e090600090a35050565b61104161187a565b600a805460ff191660011790557f62e78cea01bee320cd4e420270b5ea74000d11b0c9f74754ebdbfc544b05a258610f453390565b6060610a217f0000000000000000000000000000000000000000000000000000000000000000600b61189e565b6060610a217f0000000000000000000000000000000000000000000000000000000000000000600c61189e565b80546000908015611100576110ea83610eab600184612a14565b54600160301b90046001600160d01b0316610cfd565b60009392505050565b6105f2828260405180602001604052806000815250611949565b6001600160a01b03821661115557604051630b61174360e31b81526001600160a01b038316600482015260240161061c565b6001600160a01b03838116600081815260056020908152604080832094871680845294825291829020805460ff191686151590811790915591519182527f17307eab39ab6107e8899845ad3d59bd9653f200f220920489ca2b5937696c31910160405180910390a3505050565b6001600160a01b0383163b1561068057604051630a85bd0160e11b81526001600160a01b0384169063150b7a0290611204903390889087908790600401612a27565b6020604051808303816000875af192505050801561123f575060408051601f3d908101601f1916820190925261123c91810190612a64565b60015b6112a8573d80801561126d576040519150601f19603f3d011682016040523d82523d6000602084013e611272565b606091505b5080516000036112a057604051633250574960e11b81526001600160a01b038516600482015260240161061c565b805181602001fd5b6001600160e01b03198116630a85bd0160e11b146112e457604051633250574960e11b81526001600160a01b038516600482015260240161061c565b5050505050565b60006105266112f8611960565b8360405161190160f01b8152600281019290925260228201526042902090565b60008060008061132a88888888611a8b565b92509250925061133a8282611b5a565b50909695505050505050565b6001600160a01b0382166000908152600d60205260409020805460018101909155818114610799576040516301d4b62360e61b81526001600160a01b03841660048201526024810182905260440161061c565b606060006113a683611c13565b600101905060008167ffffffffffffffff8111156113c6576113c66127ce565b6040519080825280601f01601f1916602001820160405280156113f0576020820181803683370190505b5090508181016020015b600019016f181899199a1a9b1b9c1cb0b131b232b360811b600a86061a8153600a85049450846113fa57509392505050565b60006001600160e01b031982166380ac58cd60e01b148061145d57506001600160e01b03198216635b5e139f60e01b145b8061052657506301ffc9a760e01b6001600160e01b0319831614610526565b808061149057506001600160a01b03821615155b156115525760006114a084610d95565b90506001600160a01b038316158015906114cc5750826001600160a01b0316816001600160a01b031614155b80156114df57506114dd8184610d04565b155b156115085760405163a9fbf51f60e01b81526001600160a01b038416600482015260240161061c565b81156115505783856001600160a01b0316826001600160a01b03167f8c5be1e5ebec7d5bd14f71427d1e84f3dd0314c0f7b2291e5b200ac8c7c3b92560405160405180910390a45b505b5050600090815260046020526040902080546001600160a01b0319166001600160a01b0392909216919091179055565b600080611590858585611ceb565b9050610de881866001611d00565b6000816000036115b057506000919050565b600060016115bd84611d76565b901c6001901b905060018184816115d6576115d6612a81565b048201901c905060018184816115ee576115ee612a81565b048201901c9050600181848161160657611606612a81565b048201901c9050600181848161161e5761161e612a81565b048201901c9050600181848161163657611636612a81565b048201901c9050600181848161164e5761164e612a81565b048201901c9050600181848161166657611666612a81565b048201901c9050610cfd8182858161168057611680612a81565b04611e0a565b60005b81831015610ba857600061169d8484611e20565b60008781526020902090915065ffffffffffff86169082015465ffffffffffff1611156116cc578092506116da565b6116d78160016129b9565b93505b50611689565b600a5460ff1661077c57604051638dfc202b60e01b815260040160405180910390fd5b6000610526826108fd565b816001600160a01b0316836001600160a01b0316141580156117305750600081115b15610799576001600160a01b038316156117d8576001600160a01b0383166000908152600f60205260408120819061177390611e3b61176e86611e47565b611e7b565b6001600160d01b031691506001600160d01b03169150846001600160a01b03167fdec2bacdd2f05b59de34da9b523dff8be42e5e38e818c82fdb0bae774387a72483836040516117cd929190918252602082015260400190565b60405180910390a250505b6001600160a01b03821615610799576001600160a01b0382166000908152600f60205260408120819061181190611eb461176e86611e47565b6001600160d01b031691506001600160d01b03169150836001600160a01b03167fdec2bacdd2f05b59de34da9b523dff8be42e5e38e818c82fdb0bae774387a724838360405161186b929190918252602082015260400190565b60405180910390a25050505050565b600a5460ff161561077c5760405163d93c066560e01b815260040160405180910390fd5b606060ff83146118b8576118b183611ec0565b9050610526565b8180546118c490612953565b80601f01602080910402602001604051908101604052809291908181526020018280546118f090612953565b801561193d5780601f106119125761010080835404028352916020019161193d565b820191906000526020600020905b81548152906001019060200180831161192057829003601f168201915b50505050509050610526565b6119538383611eff565b61079960008484846111c2565b6000306001600160a01b037f0000000000000000000000000000000000000000000000000000000000000000161480156119b957507f000000000000000000000000000000000000000000000000000000000000000046145b156119e357507f000000000000000000000000000000000000000000000000000000000000000090565b610a21604080517f8b73c3c69bb8fe3d512ecc4cf759cc79239f7b179b0ffacaa9a75d522b39400f60208201527f0000000000000000000000000000000000000000000000000000000000000000918101919091527f000000000000000000000000000000000000000000000000000000000000000060608201524660808201523060a082015260009060c00160405160208183030381529060405280519060200120905090565b600080807f7fffffffffffffffffffffffffffffff5d576e7357a4501ddfe92f46681b20a0841115611ac65750600091506003905082611b50565b604080516000808252602082018084528a905260ff891692820192909252606081018790526080810186905260019060a0016020604051602081039080840390855afa158015611b1a573d6000803e3d6000fd5b5050604051601f1901519150506001600160a01b038116611b4657506000925060019150829050611b50565b9250600091508190505b9450945094915050565b6000826003811115611b6e57611b6e612a97565b03611b77575050565b6001826003811115611b8b57611b8b612a97565b03611ba95760405163f645eedf60e01b815260040160405180910390fd5b6002826003811115611bbd57611bbd612a97565b03611bde5760405163fce698f760e01b81526004810182905260240161061c565b6003826003811115611bf257611bf2612a97565b036105f2576040516335e2f38360e21b81526004810182905260240161061c565b60008072184f03e93ff9f4daa797ed6e38ed64bf6a1f0160401b8310611c525772184f03e93ff9f4daa797ed6e38ed64bf6a1f0160401b830492506040015b6d04ee2d6d415b85acef81000000008310611c7e576d04ee2d6d415b85acef8100000000830492506020015b662386f26fc100008310611c9c57662386f26fc10000830492506010015b6305f5e1008310611cb4576305f5e100830492506008015b6127108310611cc857612710830492506004015b60648310611cda576064830492506002015b600a83106105265760010192915050565b6000611cf561187a565b610de8848484611f64565b6001600160a01b038316611d2257611d1f6010611eb461176e84611e47565b50505b6001600160a01b038216611d4457611d416010611e3b61176e84611e47565b50505b6001600160a01b038381166000908152600e60205260408082205485841683529120546107999291821691168361170e565b600080608083901c15611d8b57608092831c92015b604083901c15611d9d57604092831c92015b602083901c15611daf57602092831c92015b601083901c15611dc157601092831c92015b600883901c15611dd357600892831c92015b600483901c15611de557600492831c92015b600283901c15611df757600292831c92015b600183901c156105265760010192915050565b6000818310611e195781610cfd565b5090919050565b6000611e2f6002848418612aad565b610cfd908484166129b9565b6000610cfd8284612acf565b60006001600160d01b03821115610e23576040516306dfcc6560e41b815260d060048201526024810183905260440161061c565b600080611ea7611e89610a17565b611e9f611e95886110d0565b868863ffffffff16565b879190612031565b915091505b935093915050565b6000610cfd8284612af6565b60606000611ecd8361203f565b604080516020808252818301909252919250600091906020820181803683375050509182525060208101929092525090565b6001600160a01b038216611f2957604051633250574960e11b81526000600482015260240161061c565b6000611f3783836000610ddb565b90506001600160a01b03811615610799576040516339e3563760e11b81526000600482015260240161061c565b600080611f72858585612067565b90506001600160a01b038116611fcf57611fca84600880546000838152600960205260408120829055600182018355919091527ff3f7a9fe364faab93b216da50a3214154f22a0a2b415b23a84c8169e8b636ee30155565b611ff2565b846001600160a01b0316816001600160a01b031614611ff257611ff28185612160565b6001600160a01b03851661200e57612009846121f1565b610de8565b846001600160a01b0316816001600160a01b031614610de857610de885856122a0565b600080611ea78585856122f0565b600060ff8216601f81111561052657604051632cd44ac360e21b815260040160405180910390fd5b6000828152600260205260408120546001600160a01b03908116908316156120945761209481848661246a565b6001600160a01b038116156120d2576120b160008560008061147c565b6001600160a01b038116600090815260036020526040902080546000190190555b6001600160a01b03851615612101576001600160a01b0385166000908152600360205260409020805460010190555b60008481526002602052604080822080546001600160a01b0319166001600160a01b0389811691821790925591518793918516917fddf252ad1be2c89b69c2b068fc378daa952ba7f163c4a11628f55a4df523b3ef91a4949350505050565b600061216b836108fd565b6000838152600760205260409020549091508082146121be576001600160a01b03841660009081526006602090815260408083208584528252808320548484528184208190558352600790915290208190555b5060009182526007602090815260408084208490556001600160a01b039094168352600681528383209183525290812055565b60085460009061220390600190612a14565b6000838152600960205260408120546008805493945090928490811061222b5761222b61298d565b90600052602060002001549050806008838154811061224c5761224c61298d565b600091825260208083209091019290925582815260099091526040808220849055858252812055600880548061228457612284612b16565b6001900381819060005260206000200160009055905550505050565b600060016122ad846108fd565b6122b79190612a14565b6001600160a01b039093166000908152600660209081526040808320868452825280832085905593825260079052919091209190915550565b82546000908190801561240f57600061230e87610eab600185612a14565b60408051808201909152905465ffffffffffff808216808452600160301b9092046001600160d01b03166020840152919250908716101561236257604051632520601d60e01b815260040160405180910390fd5b805165ffffffffffff8088169116036123ae578461238588610eab600186612a14565b80546001600160d01b0392909216600160301b0265ffffffffffff9092169190911790556123ff565b6040805180820190915265ffffffffffff80881682526001600160d01b0380881660208085019182528b54600181018d5560008d81529190912094519151909216600160301b029216919091179101555b602001519250839150611eac9050565b50506040805180820190915265ffffffffffff80851682526001600160d01b0380851660208085019182528854600181018a5560008a815291822095519251909316600160301b029190931617920191909155905081611eac565b6124758383836124ce565b610799576001600160a01b0383166124a357604051637e27328960e01b81526004810182905260240161061c565b60405163177e802f60e01b81526001600160a01b03831660048201526024810182905260440161061c565b60006001600160a01b03831615801590610de85750826001600160a01b0316846001600160a01b0316148061250857506125088484610d04565b80610de85750506000908152600460205260409020546001600160a01b03908116911614919050565b82805482825590600052602060002090810192821561256c579160200282015b8281111561256c578251825591602001919060010190612551565b50610e239291505b80821115610e235760008155600101612574565b6001600160e01b031981168114610d6d57600080fd5b6000602082840312156125b057600080fd5b8135610cfd81612588565b60005b838110156125d65781810151838201526020016125be565b50506000910152565b600081518084526125f78160208601602086016125bb565b601f01601f19169290920160200192915050565b602081526000610cfd60208301846125df565b60006020828403121561263057600080fd5b5035919050565b80356001600160a01b038116811461264e57600080fd5b919050565b6000806040838503121561266657600080fd5b61266f83612637565b946020939093013593505050565b60008060006060848603121561269257600080fd5b61269b84612637565b92506126a960208501612637565b9150604084013590509250925092565b6000602082840312156126cb57600080fd5b610cfd82612637565b600081518084526020808501945080840160005b83811015612704578151875295820195908201906001016126e8565b509495945050505050565b602081526000610cfd60208301846126d4565b60ff60f81b8816815260e06020820152600061274160e08301896125df565b828103604084015261275381896125df565b606084018890526001600160a01b038716608085015260a0840186905283810360c0850152905061278481856126d4565b9a9950505050505050505050565b600080604083850312156127a557600080fd5b6127ae83612637565b9150602083013580151581146127c357600080fd5b809150509250929050565b634e487b7160e01b600052604160045260246000fd5b600080600080608085870312156127fa57600080fd5b61280385612637565b935061281160208601612637565b925060408501359150606085013567ffffffffffffffff8082111561283557600080fd5b818701915087601f83011261284957600080fd5b81358181111561285b5761285b6127ce565b604051601f8201601f19908116603f01168101908382118183101715612883576128836127ce565b816040528281528a602084870101111561289c57600080fd5b82602086016020830137600060208483010152809550505050505092959194509250565b60008060008060008060c087890312156128d957600080fd5b6128e287612637565b95506020870135945060408701359350606087013560ff8116811461290657600080fd5b9598949750929560808101359460a0909101359350915050565b6000806040838503121561293357600080fd5b61293c83612637565b915061294a60208401612637565b90509250929050565b600181811c9082168061296757607f821691505b60208210810361298757634e487b7160e01b600052602260045260246000fd5b50919050565b634e487b7160e01b600052603260045260246000fd5b634e487b7160e01b600052601160045260246000fd5b80820180821115610526576105266129a3565b6000600182016129de576129de6129a3565b5060010190565b600083516129f78184602088016125bb565b835190830190612a0b8183602088016125bb565b01949350505050565b81810381811115610526576105266129a3565b6001600160a01b0385811682528416602082015260408101839052608060608201819052600090612a5a908301846125df565b9695505050505050565b600060208284031215612a7657600080fd5b8151610cfd81612588565b634e487b7160e01b600052601260045260246000fd5b634e487b7160e01b600052602160045260246000fd5b600082612aca57634e487b7160e01b600052601260045260246000fd5b500490565b6001600160d01b03828116828216039080821115612aef57612aef6129a3565b5092915050565b6001600160d01b03818116838216019080821115612aef57612aef6129a3565b634e487b7160e01b600052603160045260246000fdfea2646970667358221220de141dc70e1625fd493ad31c1795b1a421cc9fc3cd2250ef70288f94e284508064736f6c63430008140033",
  "linkReferences": {},
  "deployedLinkReferences": {}
}