{
  "_format": "hh-sol-artifact-1",
  "contractName": "Crowdfunding",
  "sourceName": "contracts/Crowdfunding.sol",
  "abi": [
    {
      "anonymous": false,
      "inputs": [
        {
          "indexed": false,
          "internalType": "uint256",
          "name": "_id",
          "type": "uint256"
        }
      ],
      "name": "Cancel",
      "type": "event"
    },
    {
      "anonymous": false,
      "inputs": [
        {
          "indexed": true,
          "internalType": "uint256",
          "name": "_id",
          "type": "uint256"
        },
        {
          "indexed": true,
          "internalType": "address",
          "name": "_funder",
          "type": "address"
        },
        {
          "indexed": false,
          "internalType": "uint256",
          "name": "_amount",
          "type": "uint256"
        }
      ],
      "name": "Fund",
      "type": "event"
    },
    {
      "anonymous": false,
      "inputs": [
        {
          "indexed": true,
          "internalType": "uint256",
          "name": "_id",
          "type": "uint256"
        },
        {
          "indexed": false,
          "internalType": "address",
          "name": "_funder",
          "type": "address"
        },
        {
          "indexed": false,
          "internalType": "uint256",
          "name": "_amount",
          "type": "uint256"
        }
      ],
      "name": "FunderWithdraw",
      "type": "event"
    },
    {
      "anonymous": false,
      "inputs": [
        {
          "indexed": false,
          "internalType": "uint256",
          "name": "_id",
          "type": "uint256"
        },
        {
          "indexed": false,
          "internalType": "string",
          "name": "_projectName",
          "type": "string"
        },
        {
          "indexed": true,
          "internalType": "address",
          "name": "_owner",
          "type": "address"
        },
        {
          "indexed": false,
          "internalType": "uint256",
          "name": "_targetFund",
          "type": "uint256"
        },
        {
          "indexed": false,
          "internalType": "uint256",
          "name": "_startAt",
          "type": "uint256"
        },
        {
          "indexed": false,
          "internalType": "uint256",
          "name": "_endAt",
          "type": "uint256"
        }
      ],
      "name": "Launch",
      "type": "event"
    },
    {
      "anonymous": false,
      "inputs": [
        {
          "indexed": false,
          "internalType": "uint256",
          "name": "_id",
          "type": "uint256"
        }
      ],
      "name": "OwnerWithdraw",
      "type": "event"
    },
    {
      "anonymous": false,
      "inputs": [
        {
          "indexed": false,
          "internalType": "uint256",
          "name": "_id",
          "type": "uint256"
        },
        {
          "indexed": true,
          "internalType": "address",
          "name": "_funder",
          "type": "address"
        },
        {
          "indexed": false,
          "internalType": "uint256",
          "name": "_amount",
          "type": "uint256"
        }
      ],
      "name": "Refund",
      "type": "event"
    },
    {
      "anonymous": false,
      "inputs": [
        {
          "indexed": true,
          "internalType": "uint256",
          "name": "_id",
          "type": "uint256"
        },
        {
          "indexed": false,
          "internalType": "uint256",
          "name": "_raisedFund",
          "type": "uint256"
        }
      ],
      "name": "SuccessFund",
      "type": "event"
    },
    {
      "stateMutability": "payable",
      "type": "fallback"
    },
    {
      "inputs": [
        {
          "internalType": "uint256",
          "name": "_id",
          "type": "uint256"
        }
      ],
      "name": "cancel",
      "outputs": [],
      "stateMutability": "nonpayable",
      "type": "function"
    },
    {
      "inputs": [
        {
          "internalType": "uint256",
          "name": "_id",
          "type": "uint256"
        }
      ],
      "name": "fund",
      "outputs": [],
      "stateMutability": "payable",
      "type": "function"
    },
    {
      "inputs": [
        {
          "internalType": "uint256",
          "name": "projectId",
          "type": "uint256"
        }
      ],
      "name": "getDeadline",
      "outputs": [
        {
          "internalType": "uint256",
          "name": "",
          "type": "uint256"
        }
      ],
      "stateMutability": "view",
      "type": "function"
    },
    {
      "inputs": [
        {
          "internalType": "uint256",
          "name": "_projectId",
          "type": "uint256"
        }
      ],
      "name": "getFunders",
      "outputs": [
        {
          "internalType": "address[]",
          "name": "",
          "type": "address[]"
        },
        {
          "internalType": "uint256[]",
          "name": "",
          "type": "uint256[]"
        }
      ],
      "stateMutability": "view",
      "type": "function"
    },
    {
      "inputs": [
        {
          "internalType": "uint256",
          "name": "projectId",
          "type": "uint256"
        }
      ],
      "name": "getMyFund",
      "outputs": [
        {
          "internalType": "uint256",
          "name": "",
          "type": "uint256"
        }
      ],
      "stateMutability": "view",
      "type": "function"
    },
    {
      "inputs": [
        {
          "internalType": "uint256",
          "name": "projectId",
          "type": "uint256"
        }
      ],
      "name": "getRaisedFund",
      "outputs": [
        {
          "internalType": "uint256",
          "name": "",
          "type": "uint256"
        }
      ],
      "stateMutability": "view",
      "type": "function"
    },
    {
      "inputs": [
        {
          "internalType": "uint256",
          "name": "projectId",
          "type": "uint256"
        }
      ],
      "name": "isSuccess",
      "outputs": [
        {
          "internalType": "bool",
          "name": "",
          "type": "bool"
        }
      ],
      "stateMutability": "view",
      "type": "function"
    },
    {
      "inputs": [
        {
          "internalType": "string",
          "name": "_projectName",
          "type": "string"
        },
        {
          "internalType": "string",
          "name": "_description",
          "type": "string"
        },
        {
          "internalType": "uint256",
          "name": "_targetFund",
          "type": "uint256"
        },
        {
          "internalType": "uint256",
          "name": "_startFromNow",
          "type": "uint256"
        },
        {
          "internalType": "uint256",
          "name": "_duration",
          "type": "uint256"
        }
      ],
      "name": "launch",
      "outputs": [
        {
          "internalType": "uint256",
          "name": "",
          "type": "uint256"
        }
      ],
      "stateMutability": "nonpayable",
      "type": "function"
    },
    {
      "inputs": [],
      "name": "projectCount",
      "outputs": [
        {
          "internalType": "uint256",
          "name": "",
          "type": "uint256"
        }
      ],
      "stateMutability": "view",
      "type": "function"
    },
    {
      "inputs": [
        {
          "internalType": "uint256",
          "name": "",
          "type": "uint256"
        }
      ],
      "name": "projects",
      "outputs": [
        {
          "internalType": "uint256",
          "name": "id",
          "type": "uint256"
        },
        {
          "internalType": "address",
          "name": "owner",
          "type": "address"
        },
        {
          "internalType": "uint256",
          "name": "targetFund",
          "type": "uint256"
        },
        {
          "internalType": "uint256",
          "name": "raisedFund",
          "type": "uint256"
        },
        {
          "internalType": "uint256",
          "name": "endAt",
          "type": "uint256"
        },
        {
          "internalType": "uint256",
          "name": "startAt",
          "type": "uint256"
        },
        {
          "internalType": "bool",
          "name": "ownerWithdrawn",
          "type": "bool"
        },
        {
          "internalType": "string",
          "name": "projectName",
          "type": "string"
        },
        {
          "internalType": "string",
          "name": "description",
          "type": "string"
        }
      ],
      "stateMutability": "view",
      "type": "function"
    },
    {
      "inputs": [
        {
          "internalType": "uint256",
          "name": "_id",
          "type": "uint256"
        }
      ],
      "name": "refund",
      "outputs": [],
      "stateMutability": "payable",
      "type": "function"
    },
    {
      "inputs": [
        {
          "internalType": "uint256",
          "name": "_id",
          "type": "uint256"
        }
      ],
      "name": "withdrawFunder",
      "outputs": [],
      "stateMutability": "payable",
      "type": "function"
    },
    {
      "inputs": [
        {
          "internalType": "uint256",
          "name": "_id",
          "type": "uint256"
        }
      ],
      "name": "withdrawOwner",
      "outputs": [],
      "stateMutability": "payable",
      "type": "function"
    },
    {
      "stateMutability": "payable",
      "type": "receive"
    }
  ],
  "bytecode": "0x60806040526000805534801561001457600080fd5b50612fb1806100246000396000f3fe6080604052600436106100c65760003560e01c806340e58ee51161007f578063736fefb011610059578063736fefb01461027457806382862275146102b15780639d439237146102ee578063ca1d209d1461032b576100cd565b806340e58ee5146101f25780635ca30c2c1461021b5780636ef98b2114610258576100cd565b8063107046bd146100cf5780632451a89914610114578063278ecde1146101515780632d53a11e1461016d57806336fbad26146101895780633a7b6c74146101b4576100cd565b366100cd57005b005b3480156100db57600080fd5b506100f660048036038101906100f19190611bd8565b610347565b60405161010b99989796959493929190611d00565b60405180910390f35b34801561012057600080fd5b5061013b60048036038101906101369190611bd8565b6104d2565b6040516101489190611d9b565b60405180910390f35b61016b60048036038101906101669190611bd8565b61050b565b005b61018760048036038101906101829190611bd8565b61087f565b005b34801561019557600080fd5b5061019e610d32565b6040516101ab9190611db6565b60405180910390f35b3480156101c057600080fd5b506101db60048036038101906101d69190611bd8565b610d38565b6040516101e9929190611f4d565b60405180910390f35b3480156101fe57600080fd5b5061021960048036038101906102149190611bd8565b610f08565b005b34801561022757600080fd5b50610242600480360381019061023d9190611bd8565b6111bb565b60405161024f9190611db6565b60405180910390f35b610272600480360381019061026d9190611bd8565b6111db565b005b34801561028057600080fd5b5061029b60048036038101906102969190611bd8565b611471565b6040516102a89190611db6565b60405180910390f35b3480156102bd57600080fd5b506102d860048036038101906102d39190611bd8565b6114ce565b6040516102e59190611db6565b60405180910390f35b3480156102fa57600080fd5b50610315600480360381019061031091906120b9565b6114ee565b6040516103229190611db6565b60405180910390f35b61034560048036038101906103409190611bd8565b611800565b005b60016020528060005260406000206000915090508060000154908060010160009054906101000a900473ffffffffffffffffffffffffffffffffffffffff16908060020154908060030154908060040154908060050154908060060160009054906101000a900460ff16908060090180546103c19061219b565b80601f01602080910402602001604051908101604052809291908181526020018280546103ed9061219b565b801561043a5780601f1061040f5761010080835404028352916020019161043a565b820191906000526020600020905b81548152906001019060200180831161041d57829003601f168201915b50505050509080600a01805461044f9061219b565b80601f016020809104026020016040519081016040528092919081815260200182805461047b9061219b565b80156104c85780601f1061049d576101008083540402835291602001916104c8565b820191906000526020600020905b8154815290600101906020018083116104ab57829003601f168201915b5050505050905089565b60006001600083815260200190815260200160002060020154600160008481526020019081526020016000206003015410159050919050565b60006001600083815260200190815260200160002090506000816005015403610569576040517f08c379a000000000000000000000000000000000000000000000000000000000815260040161056090612218565b60405180910390fd5b806004015442116105af576040517f08c379a00000000000000000000000000000000000000000000000000000000081526004016105a690612284565b60405180910390fd5b80600201548160030154106105f9576040517f08c379a00000000000000000000000000000000000000000000000000000000081526004016105f0906122f0565b60405180910390fd5b60008160070160003373ffffffffffffffffffffffffffffffffffffffff1673ffffffffffffffffffffffffffffffffffffffff168152602001908152602001600020541161067d576040517f08c379a00000000000000000000000000000000000000000000000000000000081526004016106749061235c565b60405180910390fd5b600115158160060160009054906101000a900460ff161515036106d5576040517f08c379a00000000000000000000000000000000000000000000000000000000081526004016106cc906123c8565b60405180910390fd5b60008160070160003373ffffffffffffffffffffffffffffffffffffffff1673ffffffffffffffffffffffffffffffffffffffff16815260200190815260200160002054905060003373ffffffffffffffffffffffffffffffffffffffff168260405161074190612419565b60006040518083038185875af1925050503d806000811461077e576040519150601f19603f3d011682016040523d82523d6000602084013e610783565b606091505b50509050806107c7576040517f08c379a00000000000000000000000000000000000000000000000000000000081526004016107be9061247a565b60405180910390fd5b818360030160008282546107db91906124c9565b9250508190555060008360070160003373ffffffffffffffffffffffffffffffffffffffff1673ffffffffffffffffffffffffffffffffffffffff168152602001908152602001600020819055503373ffffffffffffffffffffffffffffffffffffffff167f21e12a7cad0da5928167e1084ea4d5fdf8d9af66657a2543a9ac76a0ca08147785846040516108719291906124fd565b60405180910390a250505050565b600060016000838152602001908152602001600020905060008160050154036108dd576040517f08c379a00000000000000000000000000000000000000000000000000000000081526004016108d490612218565b60405180910390fd5b8060040154421115610924576040517f08c379a000000000000000000000000000000000000000000000000000000000815260040161091b90612572565b60405180910390fd5b60008160070160003373ffffffffffffffffffffffffffffffffffffffff1673ffffffffffffffffffffffffffffffffffffffff16815260200190815260200160002054116109a8576040517f08c379a000000000000000000000000000000000000000000000000000000000815260040161099f9061235c565b60405180910390fd5b600115158160060160009054906101000a900460ff16151503610a00576040517f08c379a00000000000000000000000000000000000000000000000000000000081526004016109f7906123c8565b60405180910390fd5b60008160070160003373ffffffffffffffffffffffffffffffffffffffff1673ffffffffffffffffffffffffffffffffffffffff16815260200190815260200160002054905060003373ffffffffffffffffffffffffffffffffffffffff1682604051610a6c90612419565b60006040518083038185875af1925050503d8060008114610aa9576040519150601f19603f3d011682016040523d82523d6000602084013e610aae565b606091505b5050905080610af2576040517f08c379a0000000000000000000000000000000000000000000000000000000008152600401610ae99061247a565b60405180910390fd5b81836003016000828254610b0691906124c9565b9250508190555060008360070160003373ffffffffffffffffffffffffffffffffffffffff1673ffffffffffffffffffffffffffffffffffffffff168152602001908152602001600020819055506000805b8460080180549050811015610bf5573373ffffffffffffffffffffffffffffffffffffffff16856008018281548110610b9457610b93612592565b5b9060005260206000200160009054906101000a900473ffffffffffffffffffffffffffffffffffffffff1673ffffffffffffffffffffffffffffffffffffffff1603610be257809150610bf5565b8080610bed906125c1565b915050610b58565b508360080160018560080180549050610c0e91906124c9565b81548110610c1f57610c1e612592565b5b9060005260206000200160009054906101000a900473ffffffffffffffffffffffffffffffffffffffff16846008018281548110610c6057610c5f612592565b5b9060005260206000200160006101000a81548173ffffffffffffffffffffffffffffffffffffffff021916908373ffffffffffffffffffffffffffffffffffffffff16021790555083600801805480610cbc57610cbb612609565b5b6001900381819060005260206000200160006101000a81549073ffffffffffffffffffffffffffffffffffffffff02191690559055847f963787f23890b4153326475e5d4378e357834353b2296cf5122d3dd172bc80163385604051610d23929190612638565b60405180910390a25050505050565b60005481565b6060806000600160008581526020019081526020016000209050600081600801805480602002602001604051908101604052809291908181526020018280548015610dd857602002820191906000526020600020905b8160009054906101000a900473ffffffffffffffffffffffffffffffffffffffff1673ffffffffffffffffffffffffffffffffffffffff1681526020019060010190808311610d8e575b505050505090506000826008018054905067ffffffffffffffff811115610e0257610e01611f8e565b5b604051908082528060200260200182016040528015610e305781602001602082028036833780820191505090505b50905060005b8360080180549050811015610ef957836007016000856008018381548110610e6157610e60612592565b5b9060005260206000200160009054906101000a900473ffffffffffffffffffffffffffffffffffffffff1673ffffffffffffffffffffffffffffffffffffffff1673ffffffffffffffffffffffffffffffffffffffff16815260200190815260200160002054828281518110610eda57610ed9612592565b5b6020026020010181815250508080610ef1906125c1565b915050610e36565b50818194509450505050915091565b60006001600083815260200190815260200160002090506000816005015403610f66576040517f08c379a0000000000000000000000000000000000000000000000000000000008152600401610f5d90612218565b60405180910390fd5b3373ffffffffffffffffffffffffffffffffffffffff168160010160009054906101000a900473ffffffffffffffffffffffffffffffffffffffff1673ffffffffffffffffffffffffffffffffffffffff1614610ff8576040517f08c379a0000000000000000000000000000000000000000000000000000000008152600401610fef906126ad565b60405180910390fd5b8060050154421061103e576040517f08c379a000000000000000000000000000000000000000000000000000000000815260040161103590612719565b60405180910390fd5b6000816003015414611085576040517f08c379a000000000000000000000000000000000000000000000000000000000815260040161107c90612785565b60405180910390fd5b8060060160009054906101000a900460ff16156110d7576040517f08c379a00000000000000000000000000000000000000000000000000000000081526004016110ce906127f1565b60405180910390fd5b600160008381526020019081526020016000206000808201600090556001820160006101000a81549073ffffffffffffffffffffffffffffffffffffffff021916905560028201600090556003820160009055600482016000905560058201600090556006820160006101000a81549060ff021916905560088201600061115e9190611b10565b60098201600061116e9190611b31565b600a8201600061117e9190611b31565b50507f8bf30e7ff26833413be5f69e1d373744864d600b664204b4a2f9844a8eedb9ed826040516111af9190611db6565b60405180910390a15050565b600060016000838152602001908152602001600020600301549050919050565b60006001600083815260200190815260200160002090506000816005015403611239576040517f08c379a000000000000000000000000000000000000000000000000000000000815260040161123090612218565b60405180910390fd5b8060010160009054906101000a900473ffffffffffffffffffffffffffffffffffffffff1673ffffffffffffffffffffffffffffffffffffffff163373ffffffffffffffffffffffffffffffffffffffff16146112cb576040517f08c379a00000000000000000000000000000000000000000000000000000000081526004016112c2906126ad565b60405180910390fd5b806002015481600301541015611316576040517f08c379a000000000000000000000000000000000000000000000000000000000815260040161130d9061285d565b60405180910390fd5b8060060160009054906101000a900460ff1615611368576040517f08c379a000000000000000000000000000000000000000000000000000000000815260040161135f906127f1565b60405180910390fd5b60003373ffffffffffffffffffffffffffffffffffffffff16826003015460405161139290612419565b60006040518083038185875af1925050503d80600081146113cf576040519150601f19603f3d011682016040523d82523d6000602084013e6113d4565b606091505b5050905080611418576040517f08c379a000000000000000000000000000000000000000000000000000000000815260040161140f906128c9565b60405180910390fd5b60018260060160006101000a81548160ff0219169083151502179055507fa20809e697380eaea0fd13bf4d14b00e2ef29559ef361501189d3be2e9b0ec85836040516114649190611db6565b60405180910390a1505050565b60006001600083815260200190815260200160002060070160003373ffffffffffffffffffffffffffffffffffffffff1673ffffffffffffffffffffffffffffffffffffffff168152602001908152602001600020549050919050565b600060016000838152602001908152602001600020600401549050919050565b60008083426114fd91906128e9565b90506000838261150d91906128e9565b905060008411611552576040517f08c379a000000000000000000000000000000000000000000000000000000000815260040161154990612969565b60405180910390fd5b6000851015611596576040517f08c379a000000000000000000000000000000000000000000000000000000000815260040161158d906129d5565b60405180910390fd5b428210156115d9576040517f08c379a00000000000000000000000000000000000000000000000000000000081526004016115d090612a41565b60405180910390fd5b81811161161b576040517f08c379a000000000000000000000000000000000000000000000000000000000815260040161161290612aad565b60405180910390fd5b6303c267004261162b91906128e9565b81111561166d576040517f08c379a000000000000000000000000000000000000000000000000000000000815260040161166490612b19565b60405180910390fd5b600086116116b0576040517f08c379a00000000000000000000000000000000000000000000000000000000081526004016116a790612b85565b60405180910390fd5b6000808154809291906116c2906125c1565b9190505550600060016000805481526020019081526020016000209050338160010160006101000a81548173ffffffffffffffffffffffffffffffffffffffff021916908373ffffffffffffffffffffffffffffffffffffffff160217905550600054816000018190555086816002018190555060008160030181905550818160040181905550828160050181905550888160090190816117639190612d51565b508781600a0190816117759190612d51565b5060008160060160006101000a81548160ff0219169083151502179055503373ffffffffffffffffffffffffffffffffffffffff167fdf16a43b35bfd00b96b1b63cb01ca3d0d459dcd01a9b9d93aaa3f389ae2d05f482600001548b8a87876040516117e5959493929190612e23565b60405180910390a28060000154935050505095945050505050565b6000600160008381526020019081526020016000209050600081600501540361185e576040517f08c379a000000000000000000000000000000000000000000000000000000000815260040161185590612218565b60405180910390fd5b80600501544210156118a5576040517f08c379a000000000000000000000000000000000000000000000000000000000815260040161189c90612ec9565b60405180910390fd5b80600401544211156118ec576040517f08c379a00000000000000000000000000000000000000000000000000000000081526004016118e390612572565b60405180910390fd5b60003073ffffffffffffffffffffffffffffffffffffffff163460405161191290612419565b60006040518083038185875af1925050503d806000811461194f576040519150601f19603f3d011682016040523d82523d6000602084013e611954565b606091505b5050905080611998576040517f08c379a000000000000000000000000000000000000000000000000000000000815260040161198f90612f5b565b60405180910390fd5b348260030160008282546119ac91906128e9565b92505081905550348260070160003373ffffffffffffffffffffffffffffffffffffffff1673ffffffffffffffffffffffffffffffffffffffff1681526020019081526020016000206000828254611a0491906128e9565b9250508190555081600801339080600181540180825580915050600190039060005260206000200160009091909190916101000a81548173ffffffffffffffffffffffffffffffffffffffff021916908373ffffffffffffffffffffffffffffffffffffffff1602179055503373ffffffffffffffffffffffffffffffffffffffff16837f4885b409da2ec1d52c2afe69b0a66b5a3547747b607647660417a2b0378bff4034604051611ab79190611db6565b60405180910390a38160020154826003015410611b0b57827fba3eafb2cc58399c2a709066109f8e4530dbc80f3250fea1a4c0941eae1c7b168360030154604051611b029190611db6565b60405180910390a25b505050565b5080546000825590600052602060002090810190611b2e9190611b71565b50565b508054611b3d9061219b565b6000825580601f10611b4f5750611b6e565b601f016020900490600052602060002090810190611b6d9190611b71565b5b50565b5b80821115611b8a576000816000905550600101611b72565b5090565b6000604051905090565b600080fd5b600080fd5b6000819050919050565b611bb581611ba2565b8114611bc057600080fd5b50565b600081359050611bd281611bac565b92915050565b600060208284031215611bee57611bed611b98565b5b6000611bfc84828501611bc3565b91505092915050565b611c0e81611ba2565b82525050565b600073ffffffffffffffffffffffffffffffffffffffff82169050919050565b6000611c3f82611c14565b9050919050565b611c4f81611c34565b82525050565b60008115159050919050565b611c6a81611c55565b82525050565b600081519050919050565b600082825260208201905092915050565b60005b83811015611caa578082015181840152602081019050611c8f565b60008484015250505050565b6000601f19601f8301169050919050565b6000611cd282611c70565b611cdc8185611c7b565b9350611cec818560208601611c8c565b611cf581611cb6565b840191505092915050565b600061012082019050611d16600083018c611c05565b611d23602083018b611c46565b611d30604083018a611c05565b611d3d6060830189611c05565b611d4a6080830188611c05565b611d5760a0830187611c05565b611d6460c0830186611c61565b81810360e0830152611d768185611cc7565b9050818103610100830152611d8b8184611cc7565b90509a9950505050505050505050565b6000602082019050611db06000830184611c61565b92915050565b6000602082019050611dcb6000830184611c05565b92915050565b600081519050919050565b600082825260208201905092915050565b6000819050602082019050919050565b611e0681611c34565b82525050565b6000611e188383611dfd565b60208301905092915050565b6000602082019050919050565b6000611e3c82611dd1565b611e468185611ddc565b9350611e5183611ded565b8060005b83811015611e82578151611e698882611e0c565b9750611e7483611e24565b925050600181019050611e55565b5085935050505092915050565b600081519050919050565b600082825260208201905092915050565b6000819050602082019050919050565b611ec481611ba2565b82525050565b6000611ed68383611ebb565b60208301905092915050565b6000602082019050919050565b6000611efa82611e8f565b611f048185611e9a565b9350611f0f83611eab565b8060005b83811015611f40578151611f278882611eca565b9750611f3283611ee2565b925050600181019050611f13565b5085935050505092915050565b60006040820190508181036000830152611f678185611e31565b90508181036020830152611f7b8184611eef565b90509392505050565b600080fd5b600080fd5b7f4e487b7100000000000000000000000000000000000000000000000000000000600052604160045260246000fd5b611fc682611cb6565b810181811067ffffffffffffffff82111715611fe557611fe4611f8e565b5b80604052505050565b6000611ff8611b8e565b90506120048282611fbd565b919050565b600067ffffffffffffffff82111561202457612023611f8e565b5b61202d82611cb6565b9050602081019050919050565b82818337600083830152505050565b600061205c61205784612009565b611fee565b90508281526020810184848401111561207857612077611f89565b5b61208384828561203a565b509392505050565b600082601f8301126120a05761209f611f84565b5b81356120b0848260208601612049565b91505092915050565b600080600080600060a086880312156120d5576120d4611b98565b5b600086013567ffffffffffffffff8111156120f3576120f2611b9d565b5b6120ff8882890161208b565b955050602086013567ffffffffffffffff8111156121205761211f611b9d565b5b61212c8882890161208b565b945050604061213d88828901611bc3565b935050606061214e88828901611bc3565b925050608061215f88828901611bc3565b9150509295509295909350565b7f4e487b7100000000000000000000000000000000000000000000000000000000600052602260045260246000fd5b600060028204905060018216806121b357607f821691505b6020821081036121c6576121c561216c565b5b50919050565b7f50726f6a656374206e6f74206578697374730000000000000000000000000000600082015250565b6000612202601283611c7b565b915061220d826121cc565b602082019050919050565b60006020820190508181036000830152612231816121f5565b9050919050565b7f6e6f7420656e6421000000000000000000000000000000000000000000000000600082015250565b600061226e600883611c7b565b915061227982612238565b602082019050919050565b6000602082019050818103600083015261229d81612261565b9050919050565b7f546172676574206d65742c2063616e6e6f7420726566756e642e000000000000600082015250565b60006122da601a83611c7b565b91506122e5826122a4565b602082019050919050565b60006020820190508181036000830152612309816122cd565b9050919050565b7f596f7520617265206e6f74206120636f6e7472696275746f7200000000000000600082015250565b6000612346601983611c7b565b915061235182612310565b602082019050919050565b6000602082019050818103600083015261237581612339565b9050919050565b7f6f776e65722077697468647261776e0000000000000000000000000000000000600082015250565b60006123b2600f83611c7b565b91506123bd8261237c565b602082019050919050565b600060208201905081810360008301526123e1816123a5565b9050919050565b600081905092915050565b50565b60006124036000836123e8565b915061240e826123f3565b600082019050919050565b6000612424826123f6565b9150819050919050565b7f756e61626c6520746f2073656e64210000000000000000000000000000000000600082015250565b6000612464600f83611c7b565b915061246f8261242e565b602082019050919050565b6000602082019050818103600083015261249381612457565b9050919050565b7f4e487b7100000000000000000000000000000000000000000000000000000000600052601160045260246000fd5b60006124d482611ba2565b91506124df83611ba2565b92508282039050818111156124f7576124f661249a565b5b92915050565b60006040820190506125126000830185611c05565b61251f6020830184611c05565b9392505050565b7f456e646564000000000000000000000000000000000000000000000000000000600082015250565b600061255c600583611c7b565b915061256782612526565b602082019050919050565b6000602082019050818103600083015261258b8161254f565b9050919050565b7f4e487b7100000000000000000000000000000000000000000000000000000000600052603260045260246000fd5b60006125cc82611ba2565b91507fffffffffffffffffffffffffffffffffffffffffffffffffffffffffffffffff82036125fe576125fd61249a565b5b600182019050919050565b7f4e487b7100000000000000000000000000000000000000000000000000000000600052603160045260246000fd5b600060408201905061264d6000830185611c46565b61265a6020830184611c05565b9392505050565b7f4e6f7420617574686f72697a6564210000000000000000000000000000000000600082015250565b6000612697600f83611c7b565b91506126a282612661565b602082019050919050565b600060208201905081810360008301526126c68161268a565b9050919050565b7f7374617274656400000000000000000000000000000000000000000000000000600082015250565b6000612703600783611c7b565b915061270e826126cd565b602082019050919050565b60006020820190508181036000830152612732816126f6565b9050919050565b7f616c72656164792066756e646564000000000000000000000000000000000000600082015250565b600061276f600e83611c7b565b915061277a82612739565b602082019050919050565b6000602082019050818103600083015261279e81612762565b9050919050565b7f4f776e657220616c72656164792077697468647261776e000000000000000000600082015250565b60006127db601783611c7b565b91506127e6826127a5565b602082019050919050565b6000602082019050818103600083015261280a816127ce565b9050919050565b7f4e6f74206d656574207461726765740000000000000000000000000000000000600082015250565b6000612847600f83611c7b565b915061285282612811565b602082019050919050565b600060208201905081810360008301526128768161283a565b9050919050565b7f756e61626c6520746f207472616e736665722066756e6420746f206f776e6572600082015250565b60006128b3602083611c7b565b91506128be8261287d565b602082019050919050565b600060208201905081810360008301526128e2816128a6565b9050919050565b60006128f482611ba2565b91506128ff83611ba2565b92508282019050808211156129175761291661249a565b5b92915050565b7f6475726174696f6e203c3d203000000000000000000000000000000000000000600082015250565b6000612953600d83611c7b565b915061295e8261291d565b602082019050919050565b6000602082019050818103600083015261298281612946565b9050919050565b7f737461727446726f6d4e6f77203c203000000000000000000000000000000000600082015250565b60006129bf601083611c7b565b91506129ca82612989565b602082019050919050565b600060208201905081810360008301526129ee816129b2565b9050919050565b7f7374617274206174203c206e6f77000000000000000000000000000000000000600082015250565b6000612a2b600e83611c7b565b9150612a36826129f5565b602082019050919050565b60006020820190508181036000830152612a5a81612a1e565b9050919050565b7f656e64206174203c3d2073746172742061740000000000000000000000000000600082015250565b6000612a97601283611c7b565b9150612aa282612a61565b602082019050919050565b60006020820190508181036000830152612ac681612a8a565b9050919050565b7f656e64206174203e206d6178206475726174696f6e2028322079656172732900600082015250565b6000612b03601f83611c7b565b9150612b0e82612acd565b602082019050919050565b60006020820190508181036000830152612b3281612af6565b9050919050565b7f74617267657446756e64203c3d20300000000000000000000000000000000000600082015250565b6000612b6f600f83611c7b565b9150612b7a82612b39565b602082019050919050565b60006020820190508181036000830152612b9e81612b62565b9050919050565b60008190508160005260206000209050919050565b60006020601f8301049050919050565b600082821b905092915050565b600060088302612c077fffffffffffffffffffffffffffffffffffffffffffffffffffffffffffffffff82612bca565b612c118683612bca565b95508019841693508086168417925050509392505050565b6000819050919050565b6000612c4e612c49612c4484611ba2565b612c29565b611ba2565b9050919050565b6000819050919050565b612c6883612c33565b612c7c612c7482612c55565b848454612bd7565b825550505050565b600090565b612c91612c84565b612c9c818484612c5f565b505050565b5b81811015612cc057612cb5600082612c89565b600181019050612ca2565b5050565b601f821115612d0557612cd681612ba5565b612cdf84612bba565b81016020851015612cee578190505b612d02612cfa85612bba565b830182612ca1565b50505b505050565b600082821c905092915050565b6000612d2860001984600802612d0a565b1980831691505092915050565b6000612d418383612d17565b9150826002028217905092915050565b612d5a82611c70565b67ffffffffffffffff811115612d7357612d72611f8e565b5b612d7d825461219b565b612d88828285612cc4565b600060209050601f831160018114612dbb5760008415612da9578287015190505b612db38582612d35565b865550612e1b565b601f198416612dc986612ba5565b60005b82811015612df157848901518255600182019150602085019450602081019050612dcc565b86831015612e0e5784890151612e0a601f891682612d17565b8355505b6001600288020188555050505b505050505050565b600060a082019050612e386000830188611c05565b8181036020830152612e4a8187611cc7565b9050612e596040830186611c05565b612e666060830185611c05565b612e736080830184611c05565b9695505050505050565b7f4e6f742073746172746564207965740000000000000000000000000000000000600082015250565b6000612eb3600f83611c7b565b9150612ebe82612e7d565b602082019050919050565b60006020820190508181036000830152612ee281612ea6565b9050919050565b7f556e61626c6520746f207472616e736665722066756e647320746f207468652060008201527f636f6e74726163742e0000000000000000000000000000000000000000000000602082015250565b6000612f45602983611c7b565b9150612f5082612ee9565b604082019050919050565b60006020820190508181036000830152612f7481612f38565b905091905056fea2646970667358221220ff0c716e1f307282d86c62d651b675bddcfbc465d923c63f21cbdfa52f271d2864736f6c63430008140033",
  "linkReferences": {},
  "deployedLinkReferences": {}
}