{
  "_format": "hh-sol-artifact-1",
  "contractName": "Crowdfunding",
  "sourceName": "contracts/Crowdfunding.sol",
  "abi": [
    {
      "anonymous": false,
      "inputs": [
        {
          "indexed": false,
          "internalType": "uint256",
          "name": "_id",
          "type": "uint256"
        }
      ],
      "name": "Cancel",
      "type": "event"
    },
    {
      "anonymous": false,
      "inputs": [
        {
          "indexed": true,
          "internalType": "uint256",
          "name": "_id",
          "type": "uint256"
        },
        {
          "indexed": true,
          "internalType": "address",
          "name": "_funder",
          "type": "address"
        },
        {
          "indexed": false,
          "internalType": "uint256",
          "name": "_amount",
          "type": "uint256"
        }
      ],
      "name": "Fund",
      "type": "event"
    },
    {
      "anonymous": false,
      "inputs": [
        {
          "indexed": true,
          "internalType": "uint256",
          "name": "_id",
          "type": "uint256"
        },
        {
          "indexed": false,
          "internalType": "address",
          "name": "_funder",
          "type": "address"
        },
        {
          "indexed": false,
          "internalType": "uint256",
          "name": "_amount",
          "type": "uint256"
        }
      ],
      "name": "FunderWithdraw",
      "type": "event"
    },
    {
      "anonymous": false,
      "inputs": [
        {
          "indexed": false,
          "internalType": "uint256",
          "name": "_id",
          "type": "uint256"
        },
        {
          "indexed": false,
          "internalType": "string",
          "name": "_projectName",
          "type": "string"
        },
        {
          "indexed": true,
          "internalType": "address",
          "name": "_owner",
          "type": "address"
        },
        {
          "indexed": false,
          "internalType": "uint256",
          "name": "_targetFund",
          "type": "uint256"
        },
        {
          "indexed": false,
          "internalType": "uint256",
          "name": "_startAt",
          "type": "uint256"
        },
        {
          "indexed": false,
          "internalType": "uint256",
          "name": "_endAt",
          "type": "uint256"
        },
        {
          "indexed": false,
          "internalType": "address",
          "name": "_nft",
          "type": "address"
        }
      ],
      "name": "Launch",
      "type": "event"
    },
    {
      "anonymous": false,
      "inputs": [
        {
          "indexed": false,
          "internalType": "uint256",
          "name": "_id",
          "type": "uint256"
        }
      ],
      "name": "OwnerWithdraw",
      "type": "event"
    },
    {
      "anonymous": false,
      "inputs": [
        {
          "indexed": false,
          "internalType": "uint256",
          "name": "_id",
          "type": "uint256"
        },
        {
          "indexed": true,
          "internalType": "address",
          "name": "_funder",
          "type": "address"
        },
        {
          "indexed": false,
          "internalType": "uint256",
          "name": "_amount",
          "type": "uint256"
        }
      ],
      "name": "Refund",
      "type": "event"
    },
    {
      "anonymous": false,
      "inputs": [
        {
          "indexed": true,
          "internalType": "uint256",
          "name": "_id",
          "type": "uint256"
        },
        {
          "indexed": false,
          "internalType": "uint256",
          "name": "_raisedFund",
          "type": "uint256"
        }
      ],
      "name": "SuccessFund",
      "type": "event"
    },
    {
      "stateMutability": "payable",
      "type": "fallback"
    },
    {
      "inputs": [
        {
          "internalType": "uint256",
          "name": "_id",
          "type": "uint256"
        }
      ],
      "name": "cancel",
      "outputs": [],
      "stateMutability": "nonpayable",
      "type": "function"
    },
    {
      "inputs": [
        {
          "internalType": "uint256",
          "name": "_id",
          "type": "uint256"
        }
      ],
      "name": "fund",
      "outputs": [],
      "stateMutability": "payable",
      "type": "function"
    },
    {
      "inputs": [
        {
          "internalType": "uint256",
          "name": "projectId",
          "type": "uint256"
        }
      ],
      "name": "getDeadline",
      "outputs": [
        {
          "internalType": "uint256",
          "name": "",
          "type": "uint256"
        }
      ],
      "stateMutability": "view",
      "type": "function"
    },
    {
      "inputs": [
        {
          "internalType": "uint256",
          "name": "_projectId",
          "type": "uint256"
        }
      ],
      "name": "getFunders",
      "outputs": [
        {
          "internalType": "address[]",
          "name": "",
          "type": "address[]"
        },
        {
          "internalType": "uint256[]",
          "name": "",
          "type": "uint256[]"
        }
      ],
      "stateMutability": "view",
      "type": "function"
    },
    {
      "inputs": [
        {
          "internalType": "uint256",
          "name": "projectId",
          "type": "uint256"
        }
      ],
      "name": "getMyFund",
      "outputs": [
        {
          "internalType": "uint256",
          "name": "",
          "type": "uint256"
        }
      ],
      "stateMutability": "view",
      "type": "function"
    },
    {
      "inputs": [
        {
          "internalType": "uint256",
          "name": "projectId",
          "type": "uint256"
        }
      ],
      "name": "getRaisedFund",
      "outputs": [
        {
          "internalType": "uint256",
          "name": "",
          "type": "uint256"
        }
      ],
      "stateMutability": "view",
      "type": "function"
    },
    {
      "inputs": [
        {
          "internalType": "uint256",
          "name": "projectId",
          "type": "uint256"
        }
      ],
      "name": "isSuccess",
      "outputs": [
        {
          "internalType": "bool",
          "name": "",
          "type": "bool"
        }
      ],
      "stateMutability": "view",
      "type": "function"
    },
    {
      "inputs": [
        {
          "internalType": "string",
          "name": "_projectName",
          "type": "string"
        },
        {
          "internalType": "string",
          "name": "_description",
          "type": "string"
        },
        {
          "internalType": "string",
          "name": "_tokenName",
          "type": "string"
        },
        {
          "internalType": "uint256",
          "name": "_targetFund",
          "type": "uint256"
        },
        {
          "internalType": "uint256",
          "name": "_startFromNow",
          "type": "uint256"
        },
        {
          "internalType": "uint256",
          "name": "_duration",
          "type": "uint256"
        }
      ],
      "name": "launch",
      "outputs": [
        {
          "internalType": "uint256",
          "name": "",
          "type": "uint256"
        }
      ],
      "stateMutability": "nonpayable",
      "type": "function"
    },
    {
      "inputs": [],
      "name": "projectCount",
      "outputs": [
        {
          "internalType": "uint256",
          "name": "",
          "type": "uint256"
        }
      ],
      "stateMutability": "view",
      "type": "function"
    },
    {
      "inputs": [
        {
          "internalType": "uint256",
          "name": "",
          "type": "uint256"
        }
      ],
      "name": "projects",
      "outputs": [
        {
          "internalType": "uint256",
          "name": "id",
          "type": "uint256"
        },
        {
          "internalType": "address",
          "name": "owner",
          "type": "address"
        },
        {
          "internalType": "uint256",
          "name": "targetFund",
          "type": "uint256"
        },
        {
          "internalType": "uint256",
          "name": "raisedFund",
          "type": "uint256"
        },
        {
          "internalType": "uint256",
          "name": "endAt",
          "type": "uint256"
        },
        {
          "internalType": "uint256",
          "name": "startAt",
          "type": "uint256"
        },
        {
          "internalType": "bool",
          "name": "ownerWithdrawn",
          "type": "bool"
        },
        {
          "internalType": "string",
          "name": "projectName",
          "type": "string"
        },
        {
          "internalType": "string",
          "name": "description",
          "type": "string"
        },
        {
          "internalType": "address",
          "name": "nft",
          "type": "address"
        }
      ],
      "stateMutability": "view",
      "type": "function"
    },
    {
      "inputs": [
        {
          "internalType": "uint256",
          "name": "_id",
          "type": "uint256"
        }
      ],
      "name": "refund",
      "outputs": [],
      "stateMutability": "payable",
      "type": "function"
    },
    {
      "inputs": [
        {
          "internalType": "uint256",
          "name": "_id",
          "type": "uint256"
        }
      ],
      "name": "withdrawFunder",
      "outputs": [],
      "stateMutability": "payable",
      "type": "function"
    },
    {
      "inputs": [
        {
          "internalType": "uint256",
          "name": "_id",
          "type": "uint256"
        }
      ],
      "name": "withdrawOwner",
      "outputs": [],
      "stateMutability": "payable",
      "type": "function"
    },
    {
      "stateMutability": "payable",
      "type": "receive"
    }
  ],
  "bytecode": "0x60806040526000805534801561001457600080fd5b50614f09806100246000396000f3fe608060405260043610620000cd5760003560e01c806340e58ee51162000083578063736fefb0116200005d578063736fefb014620002655780638286227514620002a4578063b43150ed14620002d8578063ca1d209d14620002fd57005b806340e58ee514620001f55780635ca30c2c146200021a5780636ef98b21146200024e57005b8063107046bd14620000d75780632451a899146200011d578063278ecde1146200016b5780632d53a11e146200018257806336fbad2614620001995780633a7b6c7414620001c057005b36620000d557005b005b348015620000e457600080fd5b50620000fc620000f636600462001717565b62000314565b604051620001149a9998979695949392919062001779565b60405180910390f35b3480156200012a57600080fd5b506200015a6200013c36600462001717565b60009081526001602052604090206002810154600390910154101590565b604051901515815260200162000114565b620000d56200017c36600462001717565b6200049d565b620000d56200019336600462001717565b6200072a565b348015620001a657600080fd5b50620001b160005481565b60405190815260200162000114565b348015620001cd57600080fd5b50620001e5620001df36600462001717565b62000a82565b60405162000114929190620017f7565b3480156200020257600080fd5b50620000d56200021436600462001717565b62000be7565b3480156200022757600080fd5b50620001b16200023936600462001717565b60009081526001602052604090206003015490565b620000d56200025f36600462001717565b62000e06565b3480156200027257600080fd5b50620001b16200028436600462001717565b600090815260016020908152604080832033845260070190915290205490565b348015620002b157600080fd5b50620001b1620002c336600462001717565b60009081526001602052604090206004015490565b348015620002e557600080fd5b50620001b1620002f736600462001940565b62001016565b620000d56200030e36600462001717565b62001318565b6001602081905260009182526040909120805491810154600282015460038301546004840154600585015460068601546009870180546001600160a01b0390971697959694959394929360ff909216926200036f90620019ee565b80601f01602080910402602001604051908101604052809291908181526020018280546200039d90620019ee565b8015620003ee5780601f10620003c257610100808354040283529160200191620003ee565b820191906000526020600020905b815481529060010190602001808311620003d057829003601f168201915b50505050509080600a0180546200040590620019ee565b80601f01602080910402602001604051908101604052809291908181526020018280546200043390620019ee565b8015620004845780601f10620004585761010080835404028352916020019162000484565b820191906000526020600020905b8154815290600101906020018083116200046657829003601f168201915b505050600b90930154919250506001600160a01b03168a565b60008181526001602052604081206005810154909103620004db5760405162461bcd60e51b8152600401620004d29062001a2a565b60405180910390fd5b806004015442116200051b5760405162461bcd60e51b81526020600482015260086024820152676e6f7420656e642160c01b6044820152606401620004d2565b8060020154816003015410620005745760405162461bcd60e51b815260206004820152601a60248201527f546172676574206d65742c2063616e6e6f7420726566756e642e0000000000006044820152606401620004d2565b336000908152600782016020526040902054620005d05760405162461bcd60e51b81526020600482015260196024820152782cb7ba9030b932903737ba10309031b7b73a3934b13aba37b960391b6044820152606401620004d2565b600681015460ff1615156001036200061d5760405162461bcd60e51b815260206004820152600f60248201526e37bbb732b9103bb4ba34323930bbb760891b6044820152606401620004d2565b33600081815260078301602052604080822054905190929083908381818185875af1925050503d806000811462000671576040519150601f19603f3d011682016040523d82523d6000602084013e62000676565b606091505b5050905080620006bb5760405162461bcd60e51b815260206004820152600f60248201526e756e61626c6520746f2073656e642160881b6044820152606401620004d2565b81836003016000828254620006d1919062001a6c565b909155505033600081815260078501602090815260408083209290925581518781529081018590527f21e12a7cad0da5928167e1084ea4d5fdf8d9af66657a2543a9ac76a0ca081477910160405180910390a250505050565b600081815260016020526040812060058101549091036200075f5760405162461bcd60e51b8152600401620004d29062001a2a565b80600401544211156200079d5760405162461bcd60e51b8152602060048201526005602482015264115b99195960da1b6044820152606401620004d2565b336000908152600782016020526040902054620007f95760405162461bcd60e51b81526020600482015260196024820152782cb7ba9030b932903737ba10309031b7b73a3934b13aba37b960391b6044820152606401620004d2565b600681015460ff161515600103620008465760405162461bcd60e51b815260206004820152600f60248201526e37bbb732b9103bb4ba34323930bbb760891b6044820152606401620004d2565b33600081815260078301602052604080822054905190929083908381818185875af1925050503d80600081146200089a576040519150601f19603f3d011682016040523d82523d6000602084013e6200089f565b606091505b5050905080620008e45760405162461bcd60e51b815260206004820152600f60248201526e756e61626c6520746f2073656e642160881b6044820152606401620004d2565b81836003016000828254620008fa919062001a6c565b90915550503360009081526007840160205260408120819055805b60088501548110156200097d57336001600160a01b031685600801828154811062000944576200094462001a88565b6000918252602090912001546001600160a01b03160362000968578091506200097d565b80620009748162001a9e565b91505062000915565b50600884018054620009929060019062001a6c565b81548110620009a557620009a562001a88565b6000918252602090912001546008850180546001600160a01b039092169183908110620009d657620009d662001a88565b9060005260206000200160006101000a8154816001600160a01b0302191690836001600160a01b031602179055508360080180548062000a1a5762000a1a62001aba565b6000828152602090819020600019908301810180546001600160a01b03191690559091019091556040805133815291820185905286917f963787f23890b4153326475e5d4378e357834353b2296cf5122d3dd172bc8016910160405180910390a25050505050565b606080600060016000858152602001908152602001600020905060008160080180548060200260200160405190810160405280929190818152602001828054801562000af857602002820191906000526020600020905b81546001600160a01b0316815260019091019060200180831162000ad9575b505050505090506000826008018054905067ffffffffffffffff81111562000b245762000b246200187f565b60405190808252806020026020018201604052801562000b4e578160200160208202803683370190505b50905060005b600884015481101562000bdb5783600701600085600801838154811062000b7f5762000b7f62001a88565b60009182526020808320909101546001600160a01b03168352820192909252604001902054825183908390811062000bbb5762000bbb62001a88565b60209081029190910101528062000bd28162001a9e565b91505062000b54565b50909590945092505050565b6000818152600160205260408120600581015490910362000c1c5760405162461bcd60e51b8152600401620004d29062001a2a565b60018101546001600160a01b0316331462000c6c5760405162461bcd60e51b815260206004820152600f60248201526e4e6f7420617574686f72697a65642160881b6044820152606401620004d2565b8060050154421062000cab5760405162461bcd60e51b81526020600482015260076024820152661cdd185c9d195960ca1b6044820152606401620004d2565b60038101541562000cf05760405162461bcd60e51b815260206004820152600e60248201526d185b1c9958591e48199d5b99195960921b6044820152606401620004d2565b600681015460ff161562000d415760405162461bcd60e51b815260206004820152601760248201527627bbb732b91030b63932b0b23c903bb4ba34323930bbb760491b6044820152606401620004d2565b6000828152600160208190526040822082815590810180546001600160a01b03191690556002810182905560038101829055600481018290556005810182905560068101805460ff191690559062000d9d60088301826200168c565b62000dad600983016000620016af565b62000dbd600a83016000620016af565b50600b0180546001600160a01b03191690556040518281527f8bf30e7ff26833413be5f69e1d373744864d600b664204b4a2f9844a8eedb9ed9060200160405180910390a15050565b6000818152600160205260408120600581015490910362000e3b5760405162461bcd60e51b8152600401620004d29062001a2a565b60018101546001600160a01b0316331462000e8b5760405162461bcd60e51b815260206004820152600f60248201526e4e6f7420617574686f72697a65642160881b6044820152606401620004d2565b80600201548160030154101562000ed75760405162461bcd60e51b815260206004820152600f60248201526e139bdd081b59595d081d185c99d95d608a1b6044820152606401620004d2565b600681015460ff161562000f285760405162461bcd60e51b815260206004820152601760248201527627bbb732b91030b63932b0b23c903bb4ba34323930bbb760491b6044820152606401620004d2565b600381015460405160009133918381818185875af1925050503d806000811462000f6f576040519150601f19603f3d011682016040523d82523d6000602084013e62000f74565b606091505b505090508062000fc75760405162461bcd60e51b815260206004820181905260248201527f756e61626c6520746f207472616e736665722066756e6420746f206f776e65726044820152606401620004d2565b60068201805460ff191660011790556040517fa20809e697380eaea0fd13bf4d14b00e2ef29559ef361501189d3be2e9b0ec8590620010099085815260200190565b60405180910390a1505050565b60008062001025844262001ad0565b9050600062001035848362001ad0565b905060008411620010795760405162461bcd60e51b815260206004820152600d60248201526c06475726174696f6e203c3d203609c1b6044820152606401620004d2565b42821015620010bc5760405162461bcd60e51b815260206004820152600e60248201526d7374617274206174203c206e6f7760901b6044820152606401620004d2565b818111620011025760405162461bcd60e51b8152602060048201526012602482015271195b9908185d080f0f481cdd185c9d08185d60721b6044820152606401620004d2565b62001112426303c2670062001ad0565b811115620011635760405162461bcd60e51b815260206004820152601f60248201527f656e64206174203e206d6178206475726174696f6e20283220796561727329006044820152606401620004d2565b60008611620011a75760405162461bcd60e51b815260206004820152600f60248201526e074617267657446756e64203c3d203608c1b6044820152606401620004d2565b600080549080620011b88362001a9e565b9091555050600080548152600160208190526040822090810180546001600160a01b0319163317905581548155600281018890556003810191909155600481018290556005810183905560098101620012128b8262001b38565b50600a8101620012238a8262001b38565b5060068101805460ff19169055604051600090309060098401908b906200124a90620016ee565b620012589392919062001c05565b604051809103906000f08015801562001275573d6000803e3d6000fd5b5090508082600b0160006101000a8154816001600160a01b0302191690836001600160a01b03160217905550336001600160a01b03167fe1e766336635250f2b137a82dd11fc83be45ba1479beff4cf0bbf8b55c0f220083600001548d8b888888600b0160009054906101000a90046001600160a01b0316604051620013019695949392919062001cbd565b60405180910390a250549998505050505050505050565b600081815260016020526040812060058101549091036200134d5760405162461bcd60e51b8152600401620004d29062001a2a565b8060050154421015620013955760405162461bcd60e51b815260206004820152600f60248201526e139bdd081cdd185c9d1959081e595d608a1b6044820152606401620004d2565b8060040154421115620013d35760405162461bcd60e51b8152602060048201526005602482015264115b99195960da1b6044820152606401620004d2565b604051600090309034908381818185875af1925050503d806000811462001417576040519150601f19603f3d011682016040523d82523d6000602084013e6200141c565b606091505b5050905080620014815760405162461bcd60e51b815260206004820152602960248201527f556e61626c6520746f207472616e736665722066756e647320746f207468652060448201526831b7b73a3930b1ba1760b91b6064820152608401620004d2565b3482600301600082825462001497919062001ad0565b909155505033600090815260078301602052604081208054349290620014bf90849062001ad0565b9091555050600882018054600181018255600091825260209091200180546001600160a01b0319163390811790915560405184907f4885b409da2ec1d52c2afe69b0a66b5a3547747b607647660417a2b0378bff4090620015239034815260200190565b60405180910390a381600201548260030154106200168757600b8201546001600160a01b0316600080620015578662000a82565b9150915060005b82518110156200164357836001600160a01b031663a14481948483815181106200158c576200158c62001a88565b6020026020010151848481518110620015a957620015a962001a88565b60200260200101516040518363ffffffff1660e01b8152600401620015e39291906001600160a01b03929092168252602082015260400190565b6000604051808303816000875af115801562001603573d6000803e3d6000fd5b505050506040513d6000823e601f3d908101601f191682016040526200162d919081019062001d06565b50806200163a8162001a9e565b9150506200155e565b50857fba3eafb2cc58399c2a709066109f8e4530dbc80f3250fea1a4c0941eae1c7b1686600301546040516200167b91815260200190565b60405180910390a25050505b505050565b5080546000825590600052602060002090810190620016ac9190620016fc565b50565b508054620016bd90620019ee565b6000825580601f10620016ce575050565b601f016020900490600052602060002090810190620016ac9190620016fc565b61311c8062001db883390190565b5b80821115620017135760008155600101620016fd565b5090565b6000602082840312156200172a57600080fd5b5035919050565b6000815180845260005b8181101562001759576020818501810151868301820152016200173b565b506000602082860101526020601f19601f83011685010191505092915050565b60006101408c835260018060a01b03808d1660208501528b60408501528a60608501528960808501528860a085015287151560c08501528160e0850152620017c48285018862001731565b9150838203610100850152620017db828762001731565b925080851661012085015250509b9a5050505050505050505050565b604080825283519082018190526000906020906060840190828701845b828110156200183b5781516001600160a01b03168452928401929084019060010162001814565b5050508381038285015284518082528583019183019060005b81811015620018725783518352928401929184019160010162001854565b5090979650505050505050565b634e487b7160e01b600052604160045260246000fd5b604051601f8201601f1916810167ffffffffffffffff81118282101715620018c157620018c16200187f565b604052919050565b600082601f830112620018db57600080fd5b813567ffffffffffffffff811115620018f857620018f86200187f565b6200190d601f8201601f191660200162001895565b8181528460208386010111156200192357600080fd5b816020850160208301376000918101602001919091529392505050565b60008060008060008060c087890312156200195a57600080fd5b863567ffffffffffffffff808211156200197357600080fd5b620019818a838b01620018c9565b975060208901359150808211156200199857600080fd5b620019a68a838b01620018c9565b96506040890135915080821115620019bd57600080fd5b50620019cc89828a01620018c9565b945050606087013592506080870135915060a087013590509295509295509295565b600181811c9082168062001a0357607f821691505b60208210810362001a2457634e487b7160e01b600052602260045260246000fd5b50919050565b60208082526012908201527150726f6a656374206e6f742065786973747360701b604082015260600190565b634e487b7160e01b600052601160045260246000fd5b8181038181111562001a825762001a8262001a56565b92915050565b634e487b7160e01b600052603260045260246000fd5b60006001820162001ab35762001ab362001a56565b5060010190565b634e487b7160e01b600052603160045260246000fd5b8082018082111562001a825762001a8262001a56565b601f8211156200168757600081815260208120601f850160051c8101602086101562001b0f5750805b601f850160051c820191505b8181101562001b305782815560010162001b1b565b505050505050565b815167ffffffffffffffff81111562001b555762001b556200187f565b62001b6d8162001b668454620019ee565b8462001ae6565b602080601f83116001811462001ba5576000841562001b8c5750858301515b600019600386901b1c1916600185901b17855562001b30565b600085815260208120601f198616915b8281101562001bd65788860151825594840194600190910190840162001bb5565b508582101562001bf55787850151600019600388901b60f8161c191681555b5050505050600190811b01905550565b60018060a01b0384168152600060206060818401526000855462001c2981620019ee565b806060870152608060018084166000811462001c4e576001811462001c695762001c99565b60ff1985168984015283151560051b89018301955062001c99565b8a6000528660002060005b8581101562001c915781548b820186015290830190880162001c74565b8a0184019650505b5050505050838103604085015262001cb2818662001731565b979650505050505050565b86815260c06020820152600062001cd860c083018862001731565b604083019690965250606081019390935260808301919091526001600160a01b031660a09091015292915050565b6000602080838503121562001d1a57600080fd5b825167ffffffffffffffff8082111562001d3357600080fd5b818501915085601f83011262001d4857600080fd5b81518181111562001d5d5762001d5d6200187f565b8060051b915062001d7084830162001895565b818152918301840191848101908884111562001d8b57600080fd5b938501935b8385101562001dab5784518252938501939085019062001d90565b9897505050505050505056fe6101606040526127106014553480156200001857600080fd5b506040516200311c3803806200311c8339810160408190526200003b9162000320565b6040805180820190915260018152603160f81b60208201528290848284600062000066838262000439565b50600162000075828262000439565b5050600a805460ff19169055506001600160a01b038116620000b257604051631e4fbdf760e01b8152600060048201526024015b60405180910390fd5b620000bd816200017d565b50620000cb82600b620001d7565b61012052620000dc81600c620001d7565b61014052815160208084019190912060e052815190820120610100524660a0526200016a60e05161010051604080517f8b73c3c69bb8fe3d512ecc4cf759cc79239f7b179b0ffacaa9a75d522b39400f60208201529081019290925260608201524660808201523060a082015260009060c00160405160208183030381529060405280519060200120905090565b60805250503060c052506200055f915050565b600a80546001600160a01b03838116610100818102610100600160a81b031985161790945560405193909204169182907f8be0079c531659141344cd1fd0a4f28419497f9722a3daafe3b4186f6b6457e090600090a35050565b6000602083511015620001f757620001ef8362000210565b90506200020a565b8162000204848262000439565b5060ff90505b92915050565b600080829050601f815111156200023e578260405163305a27a960e01b8152600401620000a9919062000505565b80516200024b826200053a565b179392505050565b634e487b7160e01b600052604160045260246000fd5b60005b83811015620002865781810151838201526020016200026c565b50506000910152565b600082601f830112620002a157600080fd5b81516001600160401b0380821115620002be57620002be62000253565b604051601f8301601f19908116603f01168101908282118183101715620002e957620002e962000253565b816040528381528660208588010111156200030357600080fd5b6200031684602083016020890162000269565b9695505050505050565b6000806000606084860312156200033657600080fd5b83516001600160a01b03811681146200034e57600080fd5b60208501519093506001600160401b03808211156200036c57600080fd5b6200037a878388016200028f565b935060408601519150808211156200039157600080fd5b50620003a0868287016200028f565b9150509250925092565b600181811c90821680620003bf57607f821691505b602082108103620003e057634e487b7160e01b600052602260045260246000fd5b50919050565b601f8211156200043457600081815260208120601f850160051c810160208610156200040f5750805b601f850160051c820191505b8181101562000430578281556001016200041b565b5050505b505050565b81516001600160401b0381111562000455576200045562000253565b6200046d81620004668454620003aa565b84620003e6565b602080601f831160018114620004a557600084156200048c5750858301515b600019600386901b1c1916600185901b17855562000430565b600085815260208120601f198616915b82811015620004d657888601518255948401946001909101908401620004b5565b5085821015620004f55787850151600019600388901b60f8161c191681555b5050505050600190811b01905550565b60208152600082518060208401526200052681604085016020870162000269565b601f01601f19169190910160400192915050565b80516020808301519190811015620003e05760001960209190910360031b1b16919050565b60805160a05160c05160e051610100516101205161014051612b62620005ba60003960006110aa0152600061107d01526000611a3a01526000611a120152600061196d01526000611997015260006119c10152612b626000f3fe608060405234801561001057600080fd5b50600436106102275760003560e01c806370a082311161013057806395d89b41116100b8578063b88d4fde1161007c578063b88d4fde146104bc578063c3cda520146104cf578063c87b56dd146104e2578063e985e9c5146104f5578063f2fde38b1461050857600080fd5b806395d89b41146104725780639ab24eb01461047a578063a14481941461048d578063a22cb465146104a0578063b501eaf5146104b357600080fd5b806384b0196e116100ff57806384b0196e146104065780638aa80ea5146104215780638da5cb5b1461042a5780638e539e8c1461044057806391ddadf41461045357600080fd5b806370a08231146103ba578063715018a6146103cd5780637ecebe00146103d55780638456cb59146103fe57600080fd5b806342842e0e116101b3578063587cde1e11610182578063587cde1e1461033d5780635c19a95c146103695780635c975abb1461037c5780636352211e146103875780636970bb0a1461039a57600080fd5b806342842e0e146102fc57806342966c681461030f5780634bf5d7e9146103225780634f6ccce71461032a57600080fd5b806318160ddd116101fa57806318160ddd146102a957806323b872dd146102bb5780632f745c59146102ce5780633a46b1a8146102e15780633f4ba83a146102f457600080fd5b806301ffc9a71461022c57806306fdde0314610254578063081812fc14610269578063095ea7b314610294575b600080fd5b61023f61023a36600461259e565b61051b565b60405190151581526020015b60405180910390f35b61025c61052c565b60405161024b919061260b565b61027c61027736600461261e565b6105be565b6040516001600160a01b03909116815260200161024b565b6102a76102a2366004612653565b6105e7565b005b6008545b60405190815260200161024b565b6102a76102c936600461267d565b6105f6565b6102ad6102dc366004612653565b610686565b6102ad6102ef366004612653565b6106eb565b6102a761076c565b6102a761030a36600461267d565b61077e565b6102a761031d36600461261e565b61079e565b61025c6107aa565b6102ad61033836600461261e565b610822565b61027c61034b3660046126b9565b6001600160a01b039081166000908152600e60205260409020541690565b6102a76103773660046126b9565b61087b565b600a5460ff1661023f565b61027c61039536600461261e565b610886565b6103ad6103a83660046126b9565b610891565b60405161024b919061270f565b6102ad6103c83660046126b9565b6108fd565b6102a7610945565b6102ad6103e33660046126b9565b6001600160a01b03166000908152600d602052604090205490565b6102a7610957565b61040e610967565b60405161024b9796959493929190612722565b6102ad60145481565b600a5461010090046001600160a01b031661027c565b6102ad61044e36600461261e565b6109ad565b61045b610a17565b60405165ffffffffffff909116815260200161024b565b61025c610a26565b6102ad6104883660046126b9565b610a35565b6103ad61049b366004612653565b610a65565b6102a76104ae366004612792565b610bb0565b6102ad60155481565b6102a76104ca3660046127e4565b610bbb565b6102a76104dd3660046128c0565b610bd2565b61025c6104f036600461261e565b610c8f565b61023f610503366004612920565b610d04565b6102a76105163660046126b9565b610d32565b600061052682610d70565b92915050565b60606000805461053b90612953565b80601f016020809104026020016040519081016040528092919081815260200182805461056790612953565b80156105b45780601f10610589576101008083540402835291602001916105b4565b820191906000526020600020905b81548152906001019060200180831161059757829003601f168201915b5050505050905090565b60006105c982610d95565b506000828152600460205260409020546001600160a01b0316610526565b6105f2828233610dce565b5050565b6001600160a01b03821661062557604051633250574960e11b8152600060048201526024015b60405180910390fd5b6000610632838333610ddb565b9050836001600160a01b0316816001600160a01b031614610680576040516364283d7b60e01b81526001600160a01b038086166004830152602482018490528216604482015260640161061c565b50505050565b6000610691836108fd565b82106106c25760405163295f44f760e21b81526001600160a01b03841660048201526024810183905260440161061c565b506001600160a01b03919091166000908152600660209081526040808320938352929052205490565b6000806106f6610a17565b90508065ffffffffffff16831061073157604051637669fc0f60e11b81526004810184905265ffffffffffff8216602482015260440161061c565b61075b61073d84610df0565b6001600160a01b0386166000908152600f6020526040902090610e27565b6001600160d01b0316949350505050565b610774610edd565b61077c610f10565b565b61079983838360405180602001604052806000815250610bbb565b505050565b6105f260008233610ddb565b60606107b4610f62565b65ffffffffffff166107c4610a17565b65ffffffffffff16146107ea576040516301bfc1c560e61b815260040160405180910390fd5b5060408051808201909152601d81527f6d6f64653d626c6f636b6e756d6265722666726f6d3d64656661756c74000000602082015290565b600061082d60085490565b82106108565760405163295f44f760e21b8152600060048201526024810183905260440161061c565b600882815481106108695761086961298d565b90600052602060002001549050919050565b336105f28183610f6d565b600061052682610d95565b6001600160a01b0381166000908152601260209081526040918290208054835181840281018401909452808452606093928301828280156108f157602002820191906000526020600020905b8154815260200190600101908083116108dd575b50505050509050919050565b60006001600160a01b038216610929576040516322718ad960e21b81526000600482015260240161061c565b506001600160a01b031660009081526003602052604090205490565b61094d610edd565b61077c6000610fdf565b61095f610edd565b61077c611039565b60006060806000806000606061097b611076565b6109836110a3565b60408051600080825260208201909252600f60f81b9b939a50919850469750309650945092509050565b6000806109b8610a17565b90508065ffffffffffff1683106109f357604051637669fc0f60e11b81526004810184905265ffffffffffff8216602482015260440161061c565b610a076109ff84610df0565b601090610e27565b6001600160d01b03169392505050565b6000610a21610f62565b905090565b60606001805461053b90612953565b6001600160a01b0381166000908152600f60205260408120610a56906110d0565b6001600160d01b031692915050565b6060610a6f610edd565b60145482601554610a8091906129b9565b1115610ac35760405162461bcd60e51b815260206004820152601260248201527113585e081b1a5b5a5d08195e18d95959195960721b604482015260640161061c565b60008267ffffffffffffffff811115610ade57610ade6127ce565b604051908082528060200260200182016040528015610b07578160200160208202803683370190505b50905060005b83811015610b7e57601354610b228682611109565b80838381518110610b3557610b3561298d565b602090810291909101015260158054906000610b50836129cc565b909155505060138054906000610b65836129cc565b9190505550508080610b76906129cc565b915050610b0d565b506001600160a01b03841660009081526012602090815260409091208251610ba892840190612531565b509392505050565b6105f2338383611123565b610bc68484846105f6565b610680848484846111c2565b83421115610bf657604051632341d78760e11b81526004810185905260240161061c565b604080517fe48329057bfd03d55e49b547132e39cffd9c1820ad7b9d4c5307691425d15adf60208201526001600160a01b038816918101919091526060810186905260808101859052600090610c7090610c689060a001604051602081830303815290604052805190602001206112eb565b858585611318565b9050610c7c8187611346565b610c868188610f6d565b50505050505050565b6060610c9a82610d95565b506000610cb260408051602081019091526000815290565b90506000815111610cd25760405180602001604052806000815250610cfd565b80610cdc84611399565b604051602001610ced9291906129e5565b6040516020818303038152906040525b9392505050565b6001600160a01b03918216600090815260056020908152604080832093909416825291909152205460ff1690565b610d3a610edd565b6001600160a01b038116610d6457604051631e4fbdf760e01b81526000600482015260240161061c565b610d6d81610fdf565b50565b60006001600160e01b0319821663780e9d6360e01b148061052657506105268261142c565b6000818152600260205260408120546001600160a01b03168061052657604051637e27328960e01b81526004810184905260240161061c565b610799838383600161147c565b6000610de8848484611582565b949350505050565b600065ffffffffffff821115610e23576040516306dfcc6560e41b8152603060048201526024810183905260440161061c565b5090565b815460009081816005811115610e86576000610e428461159e565b610e4c9085612a14565b60008881526020902090915081015465ffffffffffff9081169087161015610e7657809150610e84565b610e818160016129b9565b92505b505b6000610e9487878585611686565b90508015610ecf57610eb987610eab600184612a14565b600091825260209091200190565b54600160301b90046001600160d01b0316610ed2565b60005b979650505050505050565b600a546001600160a01b0361010090910416331461077c5760405163118cdaa760e01b815233600482015260240161061c565b610f186116e0565b600a805460ff191690557f5db9ee0a495bf2e6ff9c91a7834c1ba4fdd244a5e8aa4e537bd38aeae4b073aa335b6040516001600160a01b03909116815260200160405180910390a1565b6000610a2143610df0565b6001600160a01b038281166000818152600e602052604080822080548686166001600160a01b0319821681179092559151919094169392849290917f3134e8a2e6d97e929a7e54011ea5485d7d196dd5f0ba4d4ef95803e8e3fc257f9190a46107998183610fda86611703565b61170e565b600a80546001600160a01b03838116610100818102610100600160a81b031985161790945560405193909204169182907f8be0079c531659141344cd1fd0a4f28419497f9722a3daafe3b4186f6b6457e090600090a35050565b61104161187a565b600a805460ff191660011790557f62e78cea01bee320cd4e420270b5ea74000d11b0c9f74754ebdbfc544b05a258610f453390565b6060610a217f0000000000000000000000000000000000000000000000000000000000000000600b61189e565b6060610a217f0000000000000000000000000000000000000000000000000000000000000000600c61189e565b80546000908015611100576110ea83610eab600184612a14565b54600160301b90046001600160d01b0316610cfd565b60009392505050565b6105f2828260405180602001604052806000815250611949565b6001600160a01b03821661115557604051630b61174360e31b81526001600160a01b038316600482015260240161061c565b6001600160a01b03838116600081815260056020908152604080832094871680845294825291829020805460ff191686151590811790915591519182527f17307eab39ab6107e8899845ad3d59bd9653f200f220920489ca2b5937696c31910160405180910390a3505050565b6001600160a01b0383163b1561068057604051630a85bd0160e11b81526001600160a01b0384169063150b7a0290611204903390889087908790600401612a27565b6020604051808303816000875af192505050801561123f575060408051601f3d908101601f1916820190925261123c91810190612a64565b60015b6112a8573d80801561126d576040519150601f19603f3d011682016040523d82523d6000602084013e611272565b606091505b5080516000036112a057604051633250574960e11b81526001600160a01b038516600482015260240161061c565b805181602001fd5b6001600160e01b03198116630a85bd0160e11b146112e457604051633250574960e11b81526001600160a01b038516600482015260240161061c565b5050505050565b60006105266112f8611960565b8360405161190160f01b8152600281019290925260228201526042902090565b60008060008061132a88888888611a8b565b92509250925061133a8282611b5a565b50909695505050505050565b6001600160a01b0382166000908152600d60205260409020805460018101909155818114610799576040516301d4b62360e61b81526001600160a01b03841660048201526024810182905260440161061c565b606060006113a683611c13565b600101905060008167ffffffffffffffff8111156113c6576113c66127ce565b6040519080825280601f01601f1916602001820160405280156113f0576020820181803683370190505b5090508181016020015b600019016f181899199a1a9b1b9c1cb0b131b232b360811b600a86061a8153600a85049450846113fa57509392505050565b60006001600160e01b031982166380ac58cd60e01b148061145d57506001600160e01b03198216635b5e139f60e01b145b8061052657506301ffc9a760e01b6001600160e01b0319831614610526565b808061149057506001600160a01b03821615155b156115525760006114a084610d95565b90506001600160a01b038316158015906114cc5750826001600160a01b0316816001600160a01b031614155b80156114df57506114dd8184610d04565b155b156115085760405163a9fbf51f60e01b81526001600160a01b038416600482015260240161061c565b81156115505783856001600160a01b0316826001600160a01b03167f8c5be1e5ebec7d5bd14f71427d1e84f3dd0314c0f7b2291e5b200ac8c7c3b92560405160405180910390a45b505b5050600090815260046020526040902080546001600160a01b0319166001600160a01b0392909216919091179055565b600080611590858585611ceb565b9050610de881866001611d00565b6000816000036115b057506000919050565b600060016115bd84611d76565b901c6001901b905060018184816115d6576115d6612a81565b048201901c905060018184816115ee576115ee612a81565b048201901c9050600181848161160657611606612a81565b048201901c9050600181848161161e5761161e612a81565b048201901c9050600181848161163657611636612a81565b048201901c9050600181848161164e5761164e612a81565b048201901c9050600181848161166657611666612a81565b048201901c9050610cfd8182858161168057611680612a81565b04611e0a565b60005b81831015610ba857600061169d8484611e20565b60008781526020902090915065ffffffffffff86169082015465ffffffffffff1611156116cc578092506116da565b6116d78160016129b9565b93505b50611689565b600a5460ff1661077c57604051638dfc202b60e01b815260040160405180910390fd5b6000610526826108fd565b816001600160a01b0316836001600160a01b0316141580156117305750600081115b15610799576001600160a01b038316156117d8576001600160a01b0383166000908152600f60205260408120819061177390611e3b61176e86611e47565b611e7b565b6001600160d01b031691506001600160d01b03169150846001600160a01b03167fdec2bacdd2f05b59de34da9b523dff8be42e5e38e818c82fdb0bae774387a72483836040516117cd929190918252602082015260400190565b60405180910390a250505b6001600160a01b03821615610799576001600160a01b0382166000908152600f60205260408120819061181190611eb461176e86611e47565b6001600160d01b031691506001600160d01b03169150836001600160a01b03167fdec2bacdd2f05b59de34da9b523dff8be42e5e38e818c82fdb0bae774387a724838360405161186b929190918252602082015260400190565b60405180910390a25050505050565b600a5460ff161561077c5760405163d93c066560e01b815260040160405180910390fd5b606060ff83146118b8576118b183611ec0565b9050610526565b8180546118c490612953565b80601f01602080910402602001604051908101604052809291908181526020018280546118f090612953565b801561193d5780601f106119125761010080835404028352916020019161193d565b820191906000526020600020905b81548152906001019060200180831161192057829003601f168201915b50505050509050610526565b6119538383611eff565b61079960008484846111c2565b6000306001600160a01b037f0000000000000000000000000000000000000000000000000000000000000000161480156119b957507f000000000000000000000000000000000000000000000000000000000000000046145b156119e357507f000000000000000000000000000000000000000000000000000000000000000090565b610a21604080517f8b73c3c69bb8fe3d512ecc4cf759cc79239f7b179b0ffacaa9a75d522b39400f60208201527f0000000000000000000000000000000000000000000000000000000000000000918101919091527f000000000000000000000000000000000000000000000000000000000000000060608201524660808201523060a082015260009060c00160405160208183030381529060405280519060200120905090565b600080807f7fffffffffffffffffffffffffffffff5d576e7357a4501ddfe92f46681b20a0841115611ac65750600091506003905082611b50565b604080516000808252602082018084528a905260ff891692820192909252606081018790526080810186905260019060a0016020604051602081039080840390855afa158015611b1a573d6000803e3d6000fd5b5050604051601f1901519150506001600160a01b038116611b4657506000925060019150829050611b50565b9250600091508190505b9450945094915050565b6000826003811115611b6e57611b6e612a97565b03611b77575050565b6001826003811115611b8b57611b8b612a97565b03611ba95760405163f645eedf60e01b815260040160405180910390fd5b6002826003811115611bbd57611bbd612a97565b03611bde5760405163fce698f760e01b81526004810182905260240161061c565b6003826003811115611bf257611bf2612a97565b036105f2576040516335e2f38360e21b81526004810182905260240161061c565b60008072184f03e93ff9f4daa797ed6e38ed64bf6a1f0160401b8310611c525772184f03e93ff9f4daa797ed6e38ed64bf6a1f0160401b830492506040015b6d04ee2d6d415b85acef81000000008310611c7e576d04ee2d6d415b85acef8100000000830492506020015b662386f26fc100008310611c9c57662386f26fc10000830492506010015b6305f5e1008310611cb4576305f5e100830492506008015b6127108310611cc857612710830492506004015b60648310611cda576064830492506002015b600a83106105265760010192915050565b6000611cf561187a565b610de8848484611f64565b6001600160a01b038316611d2257611d1f6010611eb461176e84611e47565b50505b6001600160a01b038216611d4457611d416010611e3b61176e84611e47565b50505b6001600160a01b038381166000908152600e60205260408082205485841683529120546107999291821691168361170e565b600080608083901c15611d8b57608092831c92015b604083901c15611d9d57604092831c92015b602083901c15611daf57602092831c92015b601083901c15611dc157601092831c92015b600883901c15611dd357600892831c92015b600483901c15611de557600492831c92015b600283901c15611df757600292831c92015b600183901c156105265760010192915050565b6000818310611e195781610cfd565b5090919050565b6000611e2f6002848418612aad565b610cfd908484166129b9565b6000610cfd8284612acf565b60006001600160d01b03821115610e23576040516306dfcc6560e41b815260d060048201526024810183905260440161061c565b600080611ea7611e89610a17565b611e9f611e95886110d0565b868863ffffffff16565b879190612031565b915091505b935093915050565b6000610cfd8284612af6565b60606000611ecd8361203f565b604080516020808252818301909252919250600091906020820181803683375050509182525060208101929092525090565b6001600160a01b038216611f2957604051633250574960e11b81526000600482015260240161061c565b6000611f3783836000610ddb565b90506001600160a01b03811615610799576040516339e3563760e11b81526000600482015260240161061c565b600080611f72858585612067565b90506001600160a01b038116611fcf57611fca84600880546000838152600960205260408120829055600182018355919091527ff3f7a9fe364faab93b216da50a3214154f22a0a2b415b23a84c8169e8b636ee30155565b611ff2565b846001600160a01b0316816001600160a01b031614611ff257611ff28185612160565b6001600160a01b03851661200e57612009846121f1565b610de8565b846001600160a01b0316816001600160a01b031614610de857610de885856122a0565b600080611ea78585856122f0565b600060ff8216601f81111561052657604051632cd44ac360e21b815260040160405180910390fd5b6000828152600260205260408120546001600160a01b03908116908316156120945761209481848661246a565b6001600160a01b038116156120d2576120b160008560008061147c565b6001600160a01b038116600090815260036020526040902080546000190190555b6001600160a01b03851615612101576001600160a01b0385166000908152600360205260409020805460010190555b60008481526002602052604080822080546001600160a01b0319166001600160a01b0389811691821790925591518793918516917fddf252ad1be2c89b69c2b068fc378daa952ba7f163c4a11628f55a4df523b3ef91a4949350505050565b600061216b836108fd565b6000838152600760205260409020549091508082146121be576001600160a01b03841660009081526006602090815260408083208584528252808320548484528184208190558352600790915290208190555b5060009182526007602090815260408084208490556001600160a01b039094168352600681528383209183525290812055565b60085460009061220390600190612a14565b6000838152600960205260408120546008805493945090928490811061222b5761222b61298d565b90600052602060002001549050806008838154811061224c5761224c61298d565b600091825260208083209091019290925582815260099091526040808220849055858252812055600880548061228457612284612b16565b6001900381819060005260206000200160009055905550505050565b600060016122ad846108fd565b6122b79190612a14565b6001600160a01b039093166000908152600660209081526040808320868452825280832085905593825260079052919091209190915550565b82546000908190801561240f57600061230e87610eab600185612a14565b60408051808201909152905465ffffffffffff808216808452600160301b9092046001600160d01b03166020840152919250908716101561236257604051632520601d60e01b815260040160405180910390fd5b805165ffffffffffff8088169116036123ae578461238588610eab600186612a14565b80546001600160d01b0392909216600160301b0265ffffffffffff9092169190911790556123ff565b6040805180820190915265ffffffffffff80881682526001600160d01b0380881660208085019182528b54600181018d5560008d81529190912094519151909216600160301b029216919091179101555b602001519250839150611eac9050565b50506040805180820190915265ffffffffffff80851682526001600160d01b0380851660208085019182528854600181018a5560008a815291822095519251909316600160301b029190931617920191909155905081611eac565b6124758383836124ce565b610799576001600160a01b0383166124a357604051637e27328960e01b81526004810182905260240161061c565b60405163177e802f60e01b81526001600160a01b03831660048201526024810182905260440161061c565b60006001600160a01b03831615801590610de85750826001600160a01b0316846001600160a01b0316148061250857506125088484610d04565b80610de85750506000908152600460205260409020546001600160a01b03908116911614919050565b82805482825590600052602060002090810192821561256c579160200282015b8281111561256c578251825591602001919060010190612551565b50610e239291505b80821115610e235760008155600101612574565b6001600160e01b031981168114610d6d57600080fd5b6000602082840312156125b057600080fd5b8135610cfd81612588565b60005b838110156125d65781810151838201526020016125be565b50506000910152565b600081518084526125f78160208601602086016125bb565b601f01601f19169290920160200192915050565b602081526000610cfd60208301846125df565b60006020828403121561263057600080fd5b5035919050565b80356001600160a01b038116811461264e57600080fd5b919050565b6000806040838503121561266657600080fd5b61266f83612637565b946020939093013593505050565b60008060006060848603121561269257600080fd5b61269b84612637565b92506126a960208501612637565b9150604084013590509250925092565b6000602082840312156126cb57600080fd5b610cfd82612637565b600081518084526020808501945080840160005b83811015612704578151875295820195908201906001016126e8565b509495945050505050565b602081526000610cfd60208301846126d4565b60ff60f81b8816815260e06020820152600061274160e08301896125df565b828103604084015261275381896125df565b606084018890526001600160a01b038716608085015260a0840186905283810360c0850152905061278481856126d4565b9a9950505050505050505050565b600080604083850312156127a557600080fd5b6127ae83612637565b9150602083013580151581146127c357600080fd5b809150509250929050565b634e487b7160e01b600052604160045260246000fd5b600080600080608085870312156127fa57600080fd5b61280385612637565b935061281160208601612637565b925060408501359150606085013567ffffffffffffffff8082111561283557600080fd5b818701915087601f83011261284957600080fd5b81358181111561285b5761285b6127ce565b604051601f8201601f19908116603f01168101908382118183101715612883576128836127ce565b816040528281528a602084870101111561289c57600080fd5b82602086016020830137600060208483010152809550505050505092959194509250565b60008060008060008060c087890312156128d957600080fd5b6128e287612637565b95506020870135945060408701359350606087013560ff8116811461290657600080fd5b9598949750929560808101359460a0909101359350915050565b6000806040838503121561293357600080fd5b61293c83612637565b915061294a60208401612637565b90509250929050565b600181811c9082168061296757607f821691505b60208210810361298757634e487b7160e01b600052602260045260246000fd5b50919050565b634e487b7160e01b600052603260045260246000fd5b634e487b7160e01b600052601160045260246000fd5b80820180821115610526576105266129a3565b6000600182016129de576129de6129a3565b5060010190565b600083516129f78184602088016125bb565b835190830190612a0b8183602088016125bb565b01949350505050565b81810381811115610526576105266129a3565b6001600160a01b0385811682528416602082015260408101839052608060608201819052600090612a5a908301846125df565b9695505050505050565b600060208284031215612a7657600080fd5b8151610cfd81612588565b634e487b7160e01b600052601260045260246000fd5b634e487b7160e01b600052602160045260246000fd5b600082612aca57634e487b7160e01b600052601260045260246000fd5b500490565b6001600160d01b03828116828216039080821115612aef57612aef6129a3565b5092915050565b6001600160d01b03818116838216019080821115612aef57612aef6129a3565b634e487b7160e01b600052603160045260246000fdfea2646970667358221220de141dc70e1625fd493ad31c1795b1a421cc9fc3cd2250ef70288f94e284508064736f6c63430008140033a26469706673582212205d94bc4afacd51584e014add57c936803da18156456e90bbca5b21fd343059cf64736f6c63430008140033",
  "linkReferences": {},
  "deployedLinkReferences": {}
}