{
  "_format": "hh-sol-artifact-1",
  "contractName": "Crowdfunding",
  "sourceName": "contracts/Crowdfunding.sol",
  "abi": [
    {
      "anonymous": false,
      "inputs": [
        {
          "indexed": false,
          "internalType": "uint256",
          "name": "_id",
          "type": "uint256"
        }
      ],
      "name": "Cancel",
      "type": "event"
    },
    {
      "anonymous": false,
      "inputs": [
        {
          "indexed": true,
          "internalType": "uint256",
          "name": "_id",
          "type": "uint256"
        },
        {
          "indexed": true,
          "internalType": "address",
          "name": "_funder",
          "type": "address"
        },
        {
          "indexed": false,
          "internalType": "uint256",
          "name": "_amount",
          "type": "uint256"
        }
      ],
      "name": "Fund",
      "type": "event"
    },
    {
      "anonymous": false,
      "inputs": [
        {
          "indexed": true,
          "internalType": "uint256",
          "name": "_id",
          "type": "uint256"
        },
        {
          "indexed": false,
          "internalType": "address",
          "name": "_funder",
          "type": "address"
        },
        {
          "indexed": false,
          "internalType": "uint256",
          "name": "_amount",
          "type": "uint256"
        }
      ],
      "name": "FunderWithdraw",
      "type": "event"
    },
    {
      "anonymous": false,
      "inputs": [
        {
          "indexed": false,
          "internalType": "uint256",
          "name": "_id",
          "type": "uint256"
        },
        {
          "indexed": false,
          "internalType": "string",
          "name": "_projectName",
          "type": "string"
        },
        {
          "indexed": true,
          "internalType": "address",
          "name": "_owner",
          "type": "address"
        },
        {
          "indexed": false,
          "internalType": "uint256",
          "name": "_targetFund",
          "type": "uint256"
        },
        {
          "indexed": false,
          "internalType": "uint256",
          "name": "_startAt",
          "type": "uint256"
        },
        {
          "indexed": false,
          "internalType": "uint256",
          "name": "_endAt",
          "type": "uint256"
        }
      ],
      "name": "Launch",
      "type": "event"
    },
    {
      "anonymous": false,
      "inputs": [
        {
          "indexed": false,
          "internalType": "uint256",
          "name": "_id",
          "type": "uint256"
        }
      ],
      "name": "OwnerWithdraw",
      "type": "event"
    },
    {
      "anonymous": false,
      "inputs": [
        {
          "indexed": false,
          "internalType": "uint256",
          "name": "_id",
          "type": "uint256"
        },
        {
          "indexed": true,
          "internalType": "address",
          "name": "_funder",
          "type": "address"
        },
        {
          "indexed": false,
          "internalType": "uint256",
          "name": "_amount",
          "type": "uint256"
        }
      ],
      "name": "Refund",
      "type": "event"
    },
    {
      "anonymous": false,
      "inputs": [
        {
          "indexed": true,
          "internalType": "uint256",
          "name": "_id",
          "type": "uint256"
        },
        {
          "indexed": false,
          "internalType": "uint256",
          "name": "_raisedFund",
          "type": "uint256"
        }
      ],
      "name": "SuccessFund",
      "type": "event"
    },
    {
      "stateMutability": "payable",
      "type": "fallback"
    },
    {
      "inputs": [
        {
          "internalType": "uint256",
          "name": "_id",
          "type": "uint256"
        }
      ],
      "name": "cancel",
      "outputs": [],
      "stateMutability": "nonpayable",
      "type": "function"
    },
    {
      "inputs": [
        {
          "internalType": "uint256",
          "name": "_id",
          "type": "uint256"
        }
      ],
      "name": "fund",
      "outputs": [],
      "stateMutability": "payable",
      "type": "function"
    },
    {
      "inputs": [
        {
          "internalType": "uint256",
          "name": "projectId",
          "type": "uint256"
        }
      ],
      "name": "getDeadline",
      "outputs": [
        {
          "internalType": "uint256",
          "name": "",
          "type": "uint256"
        }
      ],
      "stateMutability": "view",
      "type": "function"
    },
    {
      "inputs": [
        {
          "internalType": "uint256",
          "name": "_projectId",
          "type": "uint256"
        }
      ],
      "name": "getFunders",
      "outputs": [
        {
          "internalType": "address[]",
          "name": "",
          "type": "address[]"
        },
        {
          "internalType": "uint256[]",
          "name": "",
          "type": "uint256[]"
        }
      ],
      "stateMutability": "view",
      "type": "function"
    },
    {
      "inputs": [
        {
          "internalType": "uint256",
          "name": "projectId",
          "type": "uint256"
        }
      ],
      "name": "getMyFund",
      "outputs": [
        {
          "internalType": "uint256",
          "name": "",
          "type": "uint256"
        }
      ],
      "stateMutability": "view",
      "type": "function"
    },
    {
      "inputs": [
        {
          "internalType": "uint256",
          "name": "projectId",
          "type": "uint256"
        }
      ],
      "name": "getRaisedFund",
      "outputs": [
        {
          "internalType": "uint256",
          "name": "",
          "type": "uint256"
        }
      ],
      "stateMutability": "view",
      "type": "function"
    },
    {
      "inputs": [
        {
          "internalType": "uint256",
          "name": "projectId",
          "type": "uint256"
        }
      ],
      "name": "isSuccess",
      "outputs": [
        {
          "internalType": "bool",
          "name": "",
          "type": "bool"
        }
      ],
      "stateMutability": "view",
      "type": "function"
    },
    {
      "inputs": [
        {
          "internalType": "string",
          "name": "_projectName",
          "type": "string"
        },
        {
          "internalType": "string",
          "name": "_description",
          "type": "string"
        },
        {
          "internalType": "uint256",
          "name": "_targetFund",
          "type": "uint256"
        },
        {
          "internalType": "uint256",
          "name": "_startFromNow",
          "type": "uint256"
        },
        {
          "internalType": "uint256",
          "name": "_duration",
          "type": "uint256"
        }
      ],
      "name": "launch",
      "outputs": [
        {
          "internalType": "uint256",
          "name": "",
          "type": "uint256"
        }
      ],
      "stateMutability": "nonpayable",
      "type": "function"
    },
    {
      "inputs": [],
      "name": "projectCount",
      "outputs": [
        {
          "internalType": "uint256",
          "name": "",
          "type": "uint256"
        }
      ],
      "stateMutability": "view",
      "type": "function"
    },
    {
      "inputs": [
        {
          "internalType": "uint256",
          "name": "",
          "type": "uint256"
        }
      ],
      "name": "projects",
      "outputs": [
        {
          "internalType": "uint256",
          "name": "id",
          "type": "uint256"
        },
        {
          "internalType": "address",
          "name": "owner",
          "type": "address"
        },
        {
          "internalType": "uint256",
          "name": "targetFund",
          "type": "uint256"
        },
        {
          "internalType": "uint256",
          "name": "raisedFund",
          "type": "uint256"
        },
        {
          "internalType": "uint256",
          "name": "endAt",
          "type": "uint256"
        },
        {
          "internalType": "uint256",
          "name": "startAt",
          "type": "uint256"
        },
        {
          "internalType": "bool",
          "name": "ownerWithdrawn",
          "type": "bool"
        },
        {
          "internalType": "string",
          "name": "projectName",
          "type": "string"
        },
        {
          "internalType": "string",
          "name": "description",
          "type": "string"
        }
      ],
      "stateMutability": "view",
      "type": "function"
    },
    {
      "inputs": [
        {
          "internalType": "uint256",
          "name": "_id",
          "type": "uint256"
        }
      ],
      "name": "refund",
      "outputs": [],
      "stateMutability": "nonpayable",
      "type": "function"
    },
    {
      "inputs": [
        {
          "internalType": "uint256",
          "name": "_id",
          "type": "uint256"
        }
      ],
      "name": "withdrawFunder",
      "outputs": [],
      "stateMutability": "nonpayable",
      "type": "function"
    },
    {
      "inputs": [
        {
          "internalType": "uint256",
          "name": "_id",
          "type": "uint256"
        }
      ],
      "name": "withdrawOwner",
      "outputs": [],
      "stateMutability": "nonpayable",
      "type": "function"
    },
    {
      "stateMutability": "payable",
      "type": "receive"
    }
  ],
  "bytecode": "0x60806040526000805534801561001457600080fd5b50612fda806100246000396000f3fe6080604052600436106100c65760003560e01c806340e58ee51161007f578063736fefb011610059578063736fefb01461029b57806382862275146102d85780639d43923714610315578063ca1d209d14610352576100cd565b806340e58ee51461020c5780635ca30c2c146102355780636ef98b2114610272576100cd565b8063107046bd146100cf5780632451a89914610114578063278ecde1146101515780632d53a11e1461017a57806336fbad26146101a35780633a7b6c74146101ce576100cd565b366100cd57005b005b3480156100db57600080fd5b506100f660048036038101906100f19190611b95565b61036e565b60405161010b99989796959493929190611cbd565b60405180910390f35b34801561012057600080fd5b5061013b60048036038101906101369190611b95565b6104f9565b6040516101489190611d58565b60405180910390f35b34801561015d57600080fd5b5061017860048036038101906101739190611b95565b610532565b005b34801561018657600080fd5b506101a1600480360381019061019c9190611b95565b61084e565b005b3480156101af57600080fd5b506101b8610ca9565b6040516101c59190611d73565b60405180910390f35b3480156101da57600080fd5b506101f560048036038101906101f09190611b95565b610caf565b604051610203929190611f0a565b60405180910390f35b34801561021857600080fd5b50610233600480360381019061022e9190611b95565b610e7f565b005b34801561024157600080fd5b5061025c60048036038101906102579190611b95565b611132565b6040516102699190611d73565b60405180910390f35b34801561027e57600080fd5b5061029960048036038101906102949190611b95565b611152565b005b3480156102a757600080fd5b506102c260048036038101906102bd9190611b95565b61142e565b6040516102cf9190611d73565b60405180910390f35b3480156102e457600080fd5b506102ff60048036038101906102fa9190611b95565b61148b565b60405161030c9190611d73565b60405180910390f35b34801561032157600080fd5b5061033c60048036038101906103379190612076565b6114ab565b6040516103499190611d73565b60405180910390f35b61036c60048036038101906103679190611b95565b6117bd565b005b60016020528060005260406000206000915090508060000154908060010160009054906101000a900473ffffffffffffffffffffffffffffffffffffffff16908060020154908060030154908060040154908060050154908060060160009054906101000a900460ff16908060090180546103e890612158565b80601f016020809104026020016040519081016040528092919081815260200182805461041490612158565b80156104615780601f1061043657610100808354040283529160200191610461565b820191906000526020600020905b81548152906001019060200180831161044457829003601f168201915b50505050509080600a01805461047690612158565b80601f01602080910402602001604051908101604052809291908181526020018280546104a290612158565b80156104ef5780601f106104c4576101008083540402835291602001916104ef565b820191906000526020600020905b8154815290600101906020018083116104d257829003601f168201915b5050505050905089565b60006001600083815260200190815260200160002060020154600160008481526020019081526020016000206003015410159050919050565b60006001600083815260200190815260200160002090506000816005015403610590576040517f08c379a0000000000000000000000000000000000000000000000000000000008152600401610587906121d5565b60405180910390fd5b806004015442116105d6576040517f08c379a00000000000000000000000000000000000000000000000000000000081526004016105cd90612241565b60405180910390fd5b60008160070160003373ffffffffffffffffffffffffffffffffffffffff1673ffffffffffffffffffffffffffffffffffffffff168152602001908152602001600020541161065a576040517f08c379a0000000000000000000000000000000000000000000000000000000008152600401610651906122ad565b60405180910390fd5b80600201548160030154106106a4576040517f08c379a000000000000000000000000000000000000000000000000000000000815260040161069b90612319565b60405180910390fd5b60008160070160003373ffffffffffffffffffffffffffffffffffffffff1673ffffffffffffffffffffffffffffffffffffffff16815260200190815260200160002054905060003373ffffffffffffffffffffffffffffffffffffffff16826040516107109061236a565b60006040518083038185875af1925050503d806000811461074d576040519150601f19603f3d011682016040523d82523d6000602084013e610752565b606091505b5050905080610796576040517f08c379a000000000000000000000000000000000000000000000000000000000815260040161078d906123cb565b60405180910390fd5b818360030160008282546107aa919061241a565b9250508190555060008360070160003373ffffffffffffffffffffffffffffffffffffffff1673ffffffffffffffffffffffffffffffffffffffff168152602001908152602001600020819055503373ffffffffffffffffffffffffffffffffffffffff167f21e12a7cad0da5928167e1084ea4d5fdf8d9af66657a2543a9ac76a0ca081477858460405161084092919061244e565b60405180910390a250505050565b600060016000838152602001908152602001600020905060008160050154036108ac576040517f08c379a00000000000000000000000000000000000000000000000000000000081526004016108a3906121d5565b60405180910390fd5b80600401544211156108f3576040517f08c379a00000000000000000000000000000000000000000000000000000000081526004016108ea906124c3565b60405180910390fd5b60008160070160003373ffffffffffffffffffffffffffffffffffffffff1673ffffffffffffffffffffffffffffffffffffffff1681526020019081526020016000205411610977576040517f08c379a000000000000000000000000000000000000000000000000000000000815260040161096e906122ad565b60405180910390fd5b60008160070160003373ffffffffffffffffffffffffffffffffffffffff1673ffffffffffffffffffffffffffffffffffffffff16815260200190815260200160002054905060003373ffffffffffffffffffffffffffffffffffffffff16826040516109e39061236a565b60006040518083038185875af1925050503d8060008114610a20576040519150601f19603f3d011682016040523d82523d6000602084013e610a25565b606091505b5050905080610a69576040517f08c379a0000000000000000000000000000000000000000000000000000000008152600401610a60906123cb565b60405180910390fd5b81836003016000828254610a7d919061241a565b9250508190555060008360070160003373ffffffffffffffffffffffffffffffffffffffff1673ffffffffffffffffffffffffffffffffffffffff168152602001908152602001600020819055506000805b8460080180549050811015610b6c573373ffffffffffffffffffffffffffffffffffffffff16856008018281548110610b0b57610b0a6124e3565b5b9060005260206000200160009054906101000a900473ffffffffffffffffffffffffffffffffffffffff1673ffffffffffffffffffffffffffffffffffffffff1603610b5957809150610b6c565b8080610b6490612512565b915050610acf565b508360080160018560080180549050610b85919061241a565b81548110610b9657610b956124e3565b5b9060005260206000200160009054906101000a900473ffffffffffffffffffffffffffffffffffffffff16846008018281548110610bd757610bd66124e3565b5b9060005260206000200160006101000a81548173ffffffffffffffffffffffffffffffffffffffff021916908373ffffffffffffffffffffffffffffffffffffffff16021790555083600801805480610c3357610c3261255a565b5b6001900381819060005260206000200160006101000a81549073ffffffffffffffffffffffffffffffffffffffff02191690559055847f963787f23890b4153326475e5d4378e357834353b2296cf5122d3dd172bc80163385604051610c9a929190612589565b60405180910390a25050505050565b60005481565b6060806000600160008581526020019081526020016000209050600081600801805480602002602001604051908101604052809291908181526020018280548015610d4f57602002820191906000526020600020905b8160009054906101000a900473ffffffffffffffffffffffffffffffffffffffff1673ffffffffffffffffffffffffffffffffffffffff1681526020019060010190808311610d05575b505050505090506000826008018054905067ffffffffffffffff811115610d7957610d78611f4b565b5b604051908082528060200260200182016040528015610da75781602001602082028036833780820191505090505b50905060005b8360080180549050811015610e7057836007016000856008018381548110610dd857610dd76124e3565b5b9060005260206000200160009054906101000a900473ffffffffffffffffffffffffffffffffffffffff1673ffffffffffffffffffffffffffffffffffffffff1673ffffffffffffffffffffffffffffffffffffffff16815260200190815260200160002054828281518110610e5157610e506124e3565b5b6020026020010181815250508080610e6890612512565b915050610dad565b50818194509450505050915091565b60006001600083815260200190815260200160002090506000816005015403610edd576040517f08c379a0000000000000000000000000000000000000000000000000000000008152600401610ed4906121d5565b60405180910390fd5b3373ffffffffffffffffffffffffffffffffffffffff168160010160009054906101000a900473ffffffffffffffffffffffffffffffffffffffff1673ffffffffffffffffffffffffffffffffffffffff1614610f6f576040517f08c379a0000000000000000000000000000000000000000000000000000000008152600401610f66906125fe565b60405180910390fd5b80600501544210610fb5576040517f08c379a0000000000000000000000000000000000000000000000000000000008152600401610fac9061266a565b60405180910390fd5b6000816003015414610ffc576040517f08c379a0000000000000000000000000000000000000000000000000000000008152600401610ff3906126d6565b60405180910390fd5b8060060160009054906101000a900460ff161561104e576040517f08c379a000000000000000000000000000000000000000000000000000000000815260040161104590612742565b60405180910390fd5b600160008381526020019081526020016000206000808201600090556001820160006101000a81549073ffffffffffffffffffffffffffffffffffffffff021916905560028201600090556003820160009055600482016000905560058201600090556006820160006101000a81549060ff02191690556008820160006110d59190611acd565b6009820160006110e59190611aee565b600a820160006110f59190611aee565b50507f8bf30e7ff26833413be5f69e1d373744864d600b664204b4a2f9844a8eedb9ed826040516111269190611d73565b60405180910390a15050565b600060016000838152602001908152602001600020600301549050919050565b600060016000838152602001908152602001600020905060008160050154036111b0576040517f08c379a00000000000000000000000000000000000000000000000000000000081526004016111a7906121d5565b60405180910390fd5b8060010160009054906101000a900473ffffffffffffffffffffffffffffffffffffffff1673ffffffffffffffffffffffffffffffffffffffff163373ffffffffffffffffffffffffffffffffffffffff1614611242576040517f08c379a0000000000000000000000000000000000000000000000000000000008152600401611239906127ae565b60405180910390fd5b80600201548160030154101561128d576040517f08c379a00000000000000000000000000000000000000000000000000000000081526004016112849061281a565b60405180910390fd5b806004015442116112d3576040517f08c379a00000000000000000000000000000000000000000000000000000000081526004016112ca90612886565b60405180910390fd5b8060060160009054906101000a900460ff1615611325576040517f08c379a000000000000000000000000000000000000000000000000000000000815260040161131c90612742565b60405180910390fd5b60003373ffffffffffffffffffffffffffffffffffffffff16826003015460405161134f9061236a565b60006040518083038185875af1925050503d806000811461138c576040519150601f19603f3d011682016040523d82523d6000602084013e611391565b606091505b50509050806113d5576040517f08c379a00000000000000000000000000000000000000000000000000000000081526004016113cc906128f2565b60405180910390fd5b60018260060160006101000a81548160ff0219169083151502179055507fa20809e697380eaea0fd13bf4d14b00e2ef29559ef361501189d3be2e9b0ec85836040516114219190611d73565b60405180910390a1505050565b60006001600083815260200190815260200160002060070160003373ffffffffffffffffffffffffffffffffffffffff1673ffffffffffffffffffffffffffffffffffffffff168152602001908152602001600020549050919050565b600060016000838152602001908152602001600020600401549050919050565b60008083426114ba9190612912565b9050600083826114ca9190612912565b90506000841161150f576040517f08c379a000000000000000000000000000000000000000000000000000000000815260040161150690612992565b60405180910390fd5b6000851015611553576040517f08c379a000000000000000000000000000000000000000000000000000000000815260040161154a906129fe565b60405180910390fd5b42821015611596576040517f08c379a000000000000000000000000000000000000000000000000000000000815260040161158d90612a6a565b60405180910390fd5b8181116115d8576040517f08c379a00000000000000000000000000000000000000000000000000000000081526004016115cf90612ad6565b60405180910390fd5b6303c26700426115e89190612912565b81111561162a576040517f08c379a000000000000000000000000000000000000000000000000000000000815260040161162190612b42565b60405180910390fd5b6000861161166d576040517f08c379a000000000000000000000000000000000000000000000000000000000815260040161166490612bae565b60405180910390fd5b60008081548092919061167f90612512565b9190505550600060016000805481526020019081526020016000209050338160010160006101000a81548173ffffffffffffffffffffffffffffffffffffffff021916908373ffffffffffffffffffffffffffffffffffffffff160217905550600054816000018190555086816002018190555060008160030181905550818160040181905550828160050181905550888160090190816117209190612d7a565b508781600a0190816117329190612d7a565b5060008160060160006101000a81548160ff0219169083151502179055503373ffffffffffffffffffffffffffffffffffffffff167fdf16a43b35bfd00b96b1b63cb01ca3d0d459dcd01a9b9d93aaa3f389ae2d05f482600001548b8a87876040516117a2959493929190612e4c565b60405180910390a28060000154935050505095945050505050565b6000600160008381526020019081526020016000209050600081600501540361181b576040517f08c379a0000000000000000000000000000000000000000000000000000000008152600401611812906121d5565b60405180910390fd5b8060050154421015611862576040517f08c379a000000000000000000000000000000000000000000000000000000000815260040161185990612ef2565b60405180910390fd5b80600401544211156118a9576040517f08c379a00000000000000000000000000000000000000000000000000000000081526004016118a0906124c3565b60405180910390fd5b60003073ffffffffffffffffffffffffffffffffffffffff16346040516118cf9061236a565b60006040518083038185875af1925050503d806000811461190c576040519150601f19603f3d011682016040523d82523d6000602084013e611911565b606091505b5050905080611955576040517f08c379a000000000000000000000000000000000000000000000000000000000815260040161194c90612f84565b60405180910390fd5b348260030160008282546119699190612912565b92505081905550348260070160003373ffffffffffffffffffffffffffffffffffffffff1673ffffffffffffffffffffffffffffffffffffffff16815260200190815260200160002060008282546119c19190612912565b9250508190555081600801339080600181540180825580915050600190039060005260206000200160009091909190916101000a81548173ffffffffffffffffffffffffffffffffffffffff021916908373ffffffffffffffffffffffffffffffffffffffff1602179055503373ffffffffffffffffffffffffffffffffffffffff16837f4885b409da2ec1d52c2afe69b0a66b5a3547747b607647660417a2b0378bff4034604051611a749190611d73565b60405180910390a38160020154826003015410611ac857827fba3eafb2cc58399c2a709066109f8e4530dbc80f3250fea1a4c0941eae1c7b168360030154604051611abf9190611d73565b60405180910390a25b505050565b5080546000825590600052602060002090810190611aeb9190611b2e565b50565b508054611afa90612158565b6000825580601f10611b0c5750611b2b565b601f016020900490600052602060002090810190611b2a9190611b2e565b5b50565b5b80821115611b47576000816000905550600101611b2f565b5090565b6000604051905090565b600080fd5b600080fd5b6000819050919050565b611b7281611b5f565b8114611b7d57600080fd5b50565b600081359050611b8f81611b69565b92915050565b600060208284031215611bab57611baa611b55565b5b6000611bb984828501611b80565b91505092915050565b611bcb81611b5f565b82525050565b600073ffffffffffffffffffffffffffffffffffffffff82169050919050565b6000611bfc82611bd1565b9050919050565b611c0c81611bf1565b82525050565b60008115159050919050565b611c2781611c12565b82525050565b600081519050919050565b600082825260208201905092915050565b60005b83811015611c67578082015181840152602081019050611c4c565b60008484015250505050565b6000601f19601f8301169050919050565b6000611c8f82611c2d565b611c998185611c38565b9350611ca9818560208601611c49565b611cb281611c73565b840191505092915050565b600061012082019050611cd3600083018c611bc2565b611ce0602083018b611c03565b611ced604083018a611bc2565b611cfa6060830189611bc2565b611d076080830188611bc2565b611d1460a0830187611bc2565b611d2160c0830186611c1e565b81810360e0830152611d338185611c84565b9050818103610100830152611d488184611c84565b90509a9950505050505050505050565b6000602082019050611d6d6000830184611c1e565b92915050565b6000602082019050611d886000830184611bc2565b92915050565b600081519050919050565b600082825260208201905092915050565b6000819050602082019050919050565b611dc381611bf1565b82525050565b6000611dd58383611dba565b60208301905092915050565b6000602082019050919050565b6000611df982611d8e565b611e038185611d99565b9350611e0e83611daa565b8060005b83811015611e3f578151611e268882611dc9565b9750611e3183611de1565b925050600181019050611e12565b5085935050505092915050565b600081519050919050565b600082825260208201905092915050565b6000819050602082019050919050565b611e8181611b5f565b82525050565b6000611e938383611e78565b60208301905092915050565b6000602082019050919050565b6000611eb782611e4c565b611ec18185611e57565b9350611ecc83611e68565b8060005b83811015611efd578151611ee48882611e87565b9750611eef83611e9f565b925050600181019050611ed0565b5085935050505092915050565b60006040820190508181036000830152611f248185611dee565b90508181036020830152611f388184611eac565b90509392505050565b600080fd5b600080fd5b7f4e487b7100000000000000000000000000000000000000000000000000000000600052604160045260246000fd5b611f8382611c73565b810181811067ffffffffffffffff82111715611fa257611fa1611f4b565b5b80604052505050565b6000611fb5611b4b565b9050611fc18282611f7a565b919050565b600067ffffffffffffffff821115611fe157611fe0611f4b565b5b611fea82611c73565b9050602081019050919050565b82818337600083830152505050565b600061201961201484611fc6565b611fab565b90508281526020810184848401111561203557612034611f46565b5b612040848285611ff7565b509392505050565b600082601f83011261205d5761205c611f41565b5b813561206d848260208601612006565b91505092915050565b600080600080600060a0868803121561209257612091611b55565b5b600086013567ffffffffffffffff8111156120b0576120af611b5a565b5b6120bc88828901612048565b955050602086013567ffffffffffffffff8111156120dd576120dc611b5a565b5b6120e988828901612048565b94505060406120fa88828901611b80565b935050606061210b88828901611b80565b925050608061211c88828901611b80565b9150509295509295909350565b7f4e487b7100000000000000000000000000000000000000000000000000000000600052602260045260246000fd5b6000600282049050600182168061217057607f821691505b60208210810361218357612182612129565b5b50919050565b7f50726f6a656374206e6f74206578697374730000000000000000000000000000600082015250565b60006121bf601283611c38565b91506121ca82612189565b602082019050919050565b600060208201905081810360008301526121ee816121b2565b9050919050565b7f6e6f7420656e6421000000000000000000000000000000000000000000000000600082015250565b600061222b600883611c38565b9150612236826121f5565b602082019050919050565b6000602082019050818103600083015261225a8161221e565b9050919050565b7f596f7520617265206e6f74206120636f6e7472696275746f7200000000000000600082015250565b6000612297601983611c38565b91506122a282612261565b602082019050919050565b600060208201905081810360008301526122c68161228a565b9050919050565b7f72616973656446756e64203e2074617267657446756e64000000000000000000600082015250565b6000612303601783611c38565b915061230e826122cd565b602082019050919050565b60006020820190508181036000830152612332816122f6565b9050919050565b600081905092915050565b50565b6000612354600083612339565b915061235f82612344565b600082019050919050565b600061237582612347565b9150819050919050565b7f756e61626c6520746f2073656e64210000000000000000000000000000000000600082015250565b60006123b5600f83611c38565b91506123c08261237f565b602082019050919050565b600060208201905081810360008301526123e4816123a8565b9050919050565b7f4e487b7100000000000000000000000000000000000000000000000000000000600052601160045260246000fd5b600061242582611b5f565b915061243083611b5f565b9250828203905081811115612448576124476123eb565b5b92915050565b60006040820190506124636000830185611bc2565b6124706020830184611bc2565b9392505050565b7f456e646564000000000000000000000000000000000000000000000000000000600082015250565b60006124ad600583611c38565b91506124b882612477565b602082019050919050565b600060208201905081810360008301526124dc816124a0565b9050919050565b7f4e487b7100000000000000000000000000000000000000000000000000000000600052603260045260246000fd5b600061251d82611b5f565b91507fffffffffffffffffffffffffffffffffffffffffffffffffffffffffffffffff820361254f5761254e6123eb565b5b600182019050919050565b7f4e487b7100000000000000000000000000000000000000000000000000000000600052603160045260246000fd5b600060408201905061259e6000830185611c03565b6125ab6020830184611bc2565b9392505050565b7f6e6f742063726561746f72000000000000000000000000000000000000000000600082015250565b60006125e8600b83611c38565b91506125f3826125b2565b602082019050919050565b60006020820190508181036000830152612617816125db565b9050919050565b7f7374617274656400000000000000000000000000000000000000000000000000600082015250565b6000612654600783611c38565b915061265f8261261e565b602082019050919050565b6000602082019050818103600083015261268381612647565b9050919050565b7f616c72656164792066756e646564000000000000000000000000000000000000600082015250565b60006126c0600e83611c38565b91506126cb8261268a565b602082019050919050565b600060208201905081810360008301526126ef816126b3565b9050919050565b7f4f776e657220616c72656164792077697468647261776e000000000000000000600082015250565b600061272c601783611c38565b9150612737826126f6565b602082019050919050565b6000602082019050818103600083015261275b8161271f565b9050919050565b7f4e6f7420617574686f72697a6564210000000000000000000000000000000000600082015250565b6000612798600f83611c38565b91506127a382612762565b602082019050919050565b600060208201905081810360008301526127c78161278b565b9050919050565b7f4e6f74206d656574207461726765740000000000000000000000000000000000600082015250565b6000612804600f83611c38565b915061280f826127ce565b602082019050919050565b60006020820190508181036000830152612833816127f7565b9050919050565b7f6e6f7420656e6465640000000000000000000000000000000000000000000000600082015250565b6000612870600983611c38565b915061287b8261283a565b602082019050919050565b6000602082019050818103600083015261289f81612863565b9050919050565b7f756e61626c6520746f207472616e736665722066756e6420746f206f776e6572600082015250565b60006128dc602083611c38565b91506128e7826128a6565b602082019050919050565b6000602082019050818103600083015261290b816128cf565b9050919050565b600061291d82611b5f565b915061292883611b5f565b92508282019050808211156129405761293f6123eb565b5b92915050565b7f6475726174696f6e203c3d203000000000000000000000000000000000000000600082015250565b600061297c600d83611c38565b915061298782612946565b602082019050919050565b600060208201905081810360008301526129ab8161296f565b9050919050565b7f737461727446726f6d4e6f77203c203000000000000000000000000000000000600082015250565b60006129e8601083611c38565b91506129f3826129b2565b602082019050919050565b60006020820190508181036000830152612a17816129db565b9050919050565b7f7374617274206174203c206e6f77000000000000000000000000000000000000600082015250565b6000612a54600e83611c38565b9150612a5f82612a1e565b602082019050919050565b60006020820190508181036000830152612a8381612a47565b9050919050565b7f656e64206174203c3d2073746172742061740000000000000000000000000000600082015250565b6000612ac0601283611c38565b9150612acb82612a8a565b602082019050919050565b60006020820190508181036000830152612aef81612ab3565b9050919050565b7f656e64206174203e206d6178206475726174696f6e2028322079656172732900600082015250565b6000612b2c601f83611c38565b9150612b3782612af6565b602082019050919050565b60006020820190508181036000830152612b5b81612b1f565b9050919050565b7f74617267657446756e64203c3d20300000000000000000000000000000000000600082015250565b6000612b98600f83611c38565b9150612ba382612b62565b602082019050919050565b60006020820190508181036000830152612bc781612b8b565b9050919050565b60008190508160005260206000209050919050565b60006020601f8301049050919050565b600082821b905092915050565b600060088302612c307fffffffffffffffffffffffffffffffffffffffffffffffffffffffffffffffff82612bf3565b612c3a8683612bf3565b95508019841693508086168417925050509392505050565b6000819050919050565b6000612c77612c72612c6d84611b5f565b612c52565b611b5f565b9050919050565b6000819050919050565b612c9183612c5c565b612ca5612c9d82612c7e565b848454612c00565b825550505050565b600090565b612cba612cad565b612cc5818484612c88565b505050565b5b81811015612ce957612cde600082612cb2565b600181019050612ccb565b5050565b601f821115612d2e57612cff81612bce565b612d0884612be3565b81016020851015612d17578190505b612d2b612d2385612be3565b830182612cca565b50505b505050565b600082821c905092915050565b6000612d5160001984600802612d33565b1980831691505092915050565b6000612d6a8383612d40565b9150826002028217905092915050565b612d8382611c2d565b67ffffffffffffffff811115612d9c57612d9b611f4b565b5b612da68254612158565b612db1828285612ced565b600060209050601f831160018114612de45760008415612dd2578287015190505b612ddc8582612d5e565b865550612e44565b601f198416612df286612bce565b60005b82811015612e1a57848901518255600182019150602085019450602081019050612df5565b86831015612e375784890151612e33601f891682612d40565b8355505b6001600288020188555050505b505050505050565b600060a082019050612e616000830188611bc2565b8181036020830152612e738187611c84565b9050612e826040830186611bc2565b612e8f6060830185611bc2565b612e9c6080830184611bc2565b9695505050505050565b7f4e6f742073746172746564207965740000000000000000000000000000000000600082015250565b6000612edc600f83611c38565b9150612ee782612ea6565b602082019050919050565b60006020820190508181036000830152612f0b81612ecf565b9050919050565b7f556e61626c6520746f207472616e736665722066756e647320746f207468652060008201527f636f6e74726163742e0000000000000000000000000000000000000000000000602082015250565b6000612f6e602983611c38565b9150612f7982612f12565b604082019050919050565b60006020820190508181036000830152612f9d81612f61565b905091905056fea26469706673582212208cc9f6d55d492609df2e3b2a33fff65c7e1b878077e97dec752f16bf1599983864736f6c63430008140033",
  "linkReferences": {},
  "deployedLinkReferences": {}
}