{
  "_format": "hh-sol-artifact-1",
  "contractName": "Crowdfunding",
  "sourceName": "contracts/Crowdfunding.sol",
  "abi": [
    {
      "anonymous": false,
      "inputs": [
        {
          "indexed": false,
          "internalType": "uint256",
          "name": "_id",
          "type": "uint256"
        }
      ],
      "name": "Cancel",
      "type": "event"
    },
    {
      "anonymous": false,
      "inputs": [
        {
          "indexed": true,
          "internalType": "uint256",
          "name": "_id",
          "type": "uint256"
        },
        {
          "indexed": true,
          "internalType": "address",
          "name": "_funder",
          "type": "address"
        },
        {
          "indexed": false,
          "internalType": "uint256",
          "name": "_amount",
          "type": "uint256"
        }
      ],
      "name": "Fund",
      "type": "event"
    },
    {
      "anonymous": false,
      "inputs": [
        {
          "indexed": true,
          "internalType": "uint256",
          "name": "_id",
          "type": "uint256"
        },
        {
          "indexed": false,
          "internalType": "address",
          "name": "_funder",
          "type": "address"
        },
        {
          "indexed": false,
          "internalType": "uint256",
          "name": "_amount",
          "type": "uint256"
        }
      ],
      "name": "FunderWithdraw",
      "type": "event"
    },
    {
      "anonymous": false,
      "inputs": [
        {
          "indexed": false,
          "internalType": "uint256",
          "name": "_id",
          "type": "uint256"
        },
        {
          "indexed": false,
          "internalType": "string",
          "name": "_projectName",
          "type": "string"
        },
        {
          "indexed": true,
          "internalType": "address",
          "name": "_owner",
          "type": "address"
        },
        {
          "indexed": false,
          "internalType": "uint256",
          "name": "_targetFund",
          "type": "uint256"
        },
        {
          "indexed": false,
          "internalType": "uint256",
          "name": "_startAt",
          "type": "uint256"
        },
        {
          "indexed": false,
          "internalType": "uint256",
          "name": "_endAt",
          "type": "uint256"
        }
      ],
      "name": "Launch",
      "type": "event"
    },
    {
      "anonymous": false,
      "inputs": [
        {
          "indexed": false,
          "internalType": "uint256",
          "name": "_id",
          "type": "uint256"
        }
      ],
      "name": "OwnerWithdraw",
      "type": "event"
    },
    {
      "anonymous": false,
      "inputs": [
        {
          "indexed": false,
          "internalType": "uint256",
          "name": "_id",
          "type": "uint256"
        },
        {
          "indexed": true,
          "internalType": "address",
          "name": "_funder",
          "type": "address"
        },
        {
          "indexed": false,
          "internalType": "uint256",
          "name": "_amount",
          "type": "uint256"
        }
      ],
      "name": "Refund",
      "type": "event"
    },
    {
      "stateMutability": "payable",
      "type": "fallback"
    },
    {
      "inputs": [
        {
          "internalType": "uint256",
          "name": "_id",
          "type": "uint256"
        }
      ],
      "name": "cancel",
      "outputs": [],
      "stateMutability": "nonpayable",
      "type": "function"
    },
    {
      "inputs": [
        {
          "internalType": "uint256",
          "name": "_id",
          "type": "uint256"
        }
      ],
      "name": "fund",
      "outputs": [],
      "stateMutability": "payable",
      "type": "function"
    },
    {
      "inputs": [
        {
          "internalType": "uint256",
          "name": "projectId",
          "type": "uint256"
        }
      ],
      "name": "getDeadline",
      "outputs": [
        {
          "internalType": "uint256",
          "name": "",
          "type": "uint256"
        }
      ],
      "stateMutability": "view",
      "type": "function"
    },
    {
      "inputs": [
        {
          "internalType": "uint256",
          "name": "projectId",
          "type": "uint256"
        }
      ],
      "name": "getMyFund",
      "outputs": [
        {
          "internalType": "uint256",
          "name": "",
          "type": "uint256"
        }
      ],
      "stateMutability": "view",
      "type": "function"
    },
    {
      "inputs": [
        {
          "internalType": "uint256",
          "name": "projectId",
          "type": "uint256"
        }
      ],
      "name": "getRaisedFund",
      "outputs": [
        {
          "internalType": "uint256",
          "name": "",
          "type": "uint256"
        }
      ],
      "stateMutability": "view",
      "type": "function"
    },
    {
      "inputs": [
        {
          "internalType": "uint256",
          "name": "projectId",
          "type": "uint256"
        }
      ],
      "name": "isSuccess",
      "outputs": [
        {
          "internalType": "bool",
          "name": "",
          "type": "bool"
        }
      ],
      "stateMutability": "view",
      "type": "function"
    },
    {
      "inputs": [
        {
          "internalType": "string",
          "name": "_projectName",
          "type": "string"
        },
        {
          "internalType": "string",
          "name": "_description",
          "type": "string"
        },
        {
          "internalType": "uint256",
          "name": "_targetFund",
          "type": "uint256"
        },
        {
          "internalType": "uint256",
          "name": "_startFromNow",
          "type": "uint256"
        },
        {
          "internalType": "uint256",
          "name": "_duration",
          "type": "uint256"
        }
      ],
      "name": "launch",
      "outputs": [
        {
          "internalType": "uint256",
          "name": "",
          "type": "uint256"
        }
      ],
      "stateMutability": "nonpayable",
      "type": "function"
    },
    {
      "inputs": [],
      "name": "projectCount",
      "outputs": [
        {
          "internalType": "uint256",
          "name": "",
          "type": "uint256"
        }
      ],
      "stateMutability": "view",
      "type": "function"
    },
    {
      "inputs": [
        {
          "internalType": "uint256",
          "name": "",
          "type": "uint256"
        }
      ],
      "name": "projects",
      "outputs": [
        {
          "internalType": "uint256",
          "name": "id",
          "type": "uint256"
        },
        {
          "internalType": "address",
          "name": "owner",
          "type": "address"
        },
        {
          "internalType": "uint256",
          "name": "targetFund",
          "type": "uint256"
        },
        {
          "internalType": "uint256",
          "name": "raisedFund",
          "type": "uint256"
        },
        {
          "internalType": "uint256",
          "name": "endAt",
          "type": "uint256"
        },
        {
          "internalType": "uint256",
          "name": "startAt",
          "type": "uint256"
        },
        {
          "internalType": "bool",
          "name": "ownerWithdrawn",
          "type": "bool"
        },
        {
          "internalType": "string",
          "name": "projectName",
          "type": "string"
        },
        {
          "internalType": "string",
          "name": "description",
          "type": "string"
        }
      ],
      "stateMutability": "view",
      "type": "function"
    },
    {
      "inputs": [
        {
          "internalType": "uint256",
          "name": "_id",
          "type": "uint256"
        }
      ],
      "name": "refund",
      "outputs": [],
      "stateMutability": "nonpayable",
      "type": "function"
    },
    {
      "inputs": [
        {
          "internalType": "uint256",
          "name": "_id",
          "type": "uint256"
        }
      ],
      "name": "withdrawFunder",
      "outputs": [],
      "stateMutability": "nonpayable",
      "type": "function"
    },
    {
      "inputs": [
        {
          "internalType": "uint256",
          "name": "_id",
          "type": "uint256"
        }
      ],
      "name": "withdrawOwner",
      "outputs": [],
      "stateMutability": "nonpayable",
      "type": "function"
    },
    {
      "stateMutability": "payable",
      "type": "receive"
    }
  ],
  "bytecode": "0x60806040526000805534801561001457600080fd5b5061281b806100246000396000f3fe6080604052600436106100ab5760003560e01c80635ca30c2c116100645780635ca30c2c146101dc5780636ef98b2114610219578063736fefb014610242578063828622751461027f5780639d439237146102bc578063ca1d209d146102f9576100b2565b8063107046bd146100b45780632451a899146100f9578063278ecde1146101365780632d53a11e1461015f57806336fbad261461018857806340e58ee5146101b3576100b2565b366100b257005b005b3480156100c057600080fd5b506100db60048036038101906100d69190611653565b610315565b6040516100f09998979695949392919061177b565b60405180910390f35b34801561010557600080fd5b50610120600480360381019061011b9190611653565b6104a0565b60405161012d9190611816565b60405180910390f35b34801561014257600080fd5b5061015d60048036038101906101589190611653565b6104d9565b005b34801561016b57600080fd5b5061018660048036038101906101819190611653565b6107f5565b005b34801561019457600080fd5b5061019d610ab2565b6040516101aa9190611831565b60405180910390f35b3480156101bf57600080fd5b506101da60048036038101906101d59190611653565b610ab8565b005b3480156101e857600080fd5b5061020360048036038101906101fe9190611653565b610cc2565b6040516102109190611831565b60405180910390f35b34801561022557600080fd5b50610240600480360381019061023b9190611653565b610ce2565b005b34801561024e57600080fd5b5061026960048036038101906102649190611653565b610fbe565b6040516102769190611831565b60405180910390f35b34801561028b57600080fd5b506102a660048036038101906102a19190611653565b61101b565b6040516102b39190611831565b60405180910390f35b3480156102c857600080fd5b506102e360048036038101906102de9190611981565b61103b565b6040516102f09190611831565b60405180910390f35b610313600480360381019061030e9190611653565b61134d565b005b60016020528060005260406000206000915090508060000154908060010160009054906101000a900473ffffffffffffffffffffffffffffffffffffffff16908060020154908060030154908060040154908060050154908060060160009054906101000a900460ff169080600801805461038f90611a63565b80601f01602080910402602001604051908101604052809291908181526020018280546103bb90611a63565b80156104085780601f106103dd57610100808354040283529160200191610408565b820191906000526020600020905b8154815290600101906020018083116103eb57829003601f168201915b50505050509080600901805461041d90611a63565b80601f016020809104026020016040519081016040528092919081815260200182805461044990611a63565b80156104965780601f1061046b57610100808354040283529160200191610496565b820191906000526020600020905b81548152906001019060200180831161047957829003601f168201915b5050505050905089565b60006001600083815260200190815260200160002060020154600160008481526020019081526020016000206003015410159050919050565b60006001600083815260200190815260200160002090506000816005015403610537576040517f08c379a000000000000000000000000000000000000000000000000000000000815260040161052e90611ae0565b60405180910390fd5b8060040154421161057d576040517f08c379a000000000000000000000000000000000000000000000000000000000815260040161057490611b4c565b60405180910390fd5b60008160070160003373ffffffffffffffffffffffffffffffffffffffff1673ffffffffffffffffffffffffffffffffffffffff1681526020019081526020016000205411610601576040517f08c379a00000000000000000000000000000000000000000000000000000000081526004016105f890611bb8565b60405180910390fd5b806002015481600301541061064b576040517f08c379a000000000000000000000000000000000000000000000000000000000815260040161064290611c24565b60405180910390fd5b60008160070160003373ffffffffffffffffffffffffffffffffffffffff1673ffffffffffffffffffffffffffffffffffffffff16815260200190815260200160002054905060003373ffffffffffffffffffffffffffffffffffffffff16826040516106b790611c75565b60006040518083038185875af1925050503d80600081146106f4576040519150601f19603f3d011682016040523d82523d6000602084013e6106f9565b606091505b505090508061073d576040517f08c379a000000000000000000000000000000000000000000000000000000000815260040161073490611cd6565b60405180910390fd5b818360030160008282546107519190611d25565b9250508190555060008360070160003373ffffffffffffffffffffffffffffffffffffffff1673ffffffffffffffffffffffffffffffffffffffff168152602001908152602001600020819055503373ffffffffffffffffffffffffffffffffffffffff167f21e12a7cad0da5928167e1084ea4d5fdf8d9af66657a2543a9ac76a0ca08147785846040516107e7929190611d59565b60405180910390a250505050565b60006001600083815260200190815260200160002090506000816005015403610853576040517f08c379a000000000000000000000000000000000000000000000000000000000815260040161084a90611ae0565b60405180910390fd5b806004015442111561089a576040517f08c379a000000000000000000000000000000000000000000000000000000000815260040161089190611dce565b60405180910390fd5b60008160070160003373ffffffffffffffffffffffffffffffffffffffff1673ffffffffffffffffffffffffffffffffffffffff168152602001908152602001600020541161091e576040517f08c379a000000000000000000000000000000000000000000000000000000000815260040161091590611bb8565b60405180910390fd5b60008160070160003373ffffffffffffffffffffffffffffffffffffffff1673ffffffffffffffffffffffffffffffffffffffff16815260200190815260200160002054905060003373ffffffffffffffffffffffffffffffffffffffff168260405161098a90611c75565b60006040518083038185875af1925050503d80600081146109c7576040519150601f19603f3d011682016040523d82523d6000602084013e6109cc565b606091505b5050905080610a10576040517f08c379a0000000000000000000000000000000000000000000000000000000008152600401610a0790611cd6565b60405180910390fd5b81836003016000828254610a249190611d25565b9250508190555060008360070160003373ffffffffffffffffffffffffffffffffffffffff1673ffffffffffffffffffffffffffffffffffffffff16815260200190815260200160002081905550837f963787f23890b4153326475e5d4378e357834353b2296cf5122d3dd172bc80163384604051610aa4929190611dee565b60405180910390a250505050565b60005481565b60006001600083815260200190815260200160002090506000816005015403610b16576040517f08c379a0000000000000000000000000000000000000000000000000000000008152600401610b0d90611ae0565b60405180910390fd5b3373ffffffffffffffffffffffffffffffffffffffff168160010160009054906101000a900473ffffffffffffffffffffffffffffffffffffffff1673ffffffffffffffffffffffffffffffffffffffff1614610ba8576040517f08c379a0000000000000000000000000000000000000000000000000000000008152600401610b9f90611e63565b60405180910390fd5b80600501544210610bee576040517f08c379a0000000000000000000000000000000000000000000000000000000008152600401610be590611ecf565b60405180910390fd5b600160008381526020019081526020016000206000808201600090556001820160006101000a81549073ffffffffffffffffffffffffffffffffffffffff021916905560028201600090556003820160009055600482016000905560058201600090556006820160006101000a81549060ff0219169055600882016000610c7591906115ac565b600982016000610c8591906115ac565b50507f8bf30e7ff26833413be5f69e1d373744864d600b664204b4a2f9844a8eedb9ed82604051610cb69190611831565b60405180910390a15050565b600060016000838152602001908152602001600020600301549050919050565b60006001600083815260200190815260200160002090506000816005015403610d40576040517f08c379a0000000000000000000000000000000000000000000000000000000008152600401610d3790611ae0565b60405180910390fd5b8060010160009054906101000a900473ffffffffffffffffffffffffffffffffffffffff1673ffffffffffffffffffffffffffffffffffffffff163373ffffffffffffffffffffffffffffffffffffffff1614610dd2576040517f08c379a0000000000000000000000000000000000000000000000000000000008152600401610dc990611f3b565b60405180910390fd5b806002015481600301541015610e1d576040517f08c379a0000000000000000000000000000000000000000000000000000000008152600401610e1490611fa7565b60405180910390fd5b80600401544211610e63576040517f08c379a0000000000000000000000000000000000000000000000000000000008152600401610e5a90612013565b60405180910390fd5b8060060160009054906101000a900460ff1615610eb5576040517f08c379a0000000000000000000000000000000000000000000000000000000008152600401610eac9061207f565b60405180910390fd5b60003373ffffffffffffffffffffffffffffffffffffffff168260030154604051610edf90611c75565b60006040518083038185875af1925050503d8060008114610f1c576040519150601f19603f3d011682016040523d82523d6000602084013e610f21565b606091505b5050905080610f65576040517f08c379a0000000000000000000000000000000000000000000000000000000008152600401610f5c906120eb565b60405180910390fd5b60018260060160006101000a81548160ff0219169083151502179055507fa20809e697380eaea0fd13bf4d14b00e2ef29559ef361501189d3be2e9b0ec8583604051610fb19190611831565b60405180910390a1505050565b60006001600083815260200190815260200160002060070160003373ffffffffffffffffffffffffffffffffffffffff1673ffffffffffffffffffffffffffffffffffffffff168152602001908152602001600020549050919050565b600060016000838152602001908152602001600020600401549050919050565b600080834261104a919061210b565b90506000838261105a919061210b565b90506000841161109f576040517f08c379a00000000000000000000000000000000000000000000000000000000081526004016110969061218b565b60405180910390fd5b60008510156110e3576040517f08c379a00000000000000000000000000000000000000000000000000000000081526004016110da906121f7565b60405180910390fd5b42821015611126576040517f08c379a000000000000000000000000000000000000000000000000000000000815260040161111d90612263565b60405180910390fd5b818111611168576040517f08c379a000000000000000000000000000000000000000000000000000000000815260040161115f906122cf565b60405180910390fd5b6303c2670042611178919061210b565b8111156111ba576040517f08c379a00000000000000000000000000000000000000000000000000000000081526004016111b19061233b565b60405180910390fd5b600086116111fd576040517f08c379a00000000000000000000000000000000000000000000000000000000081526004016111f4906123a7565b60405180910390fd5b60008081548092919061120f906123c7565b9190505550600060016000805481526020019081526020016000209050338160010160006101000a81548173ffffffffffffffffffffffffffffffffffffffff021916908373ffffffffffffffffffffffffffffffffffffffff160217905550600054816000018190555086816002018190555060008160030181905550818160040181905550828160050181905550888160080190816112b091906125bb565b50878160090190816112c291906125bb565b5060008160060160006101000a81548160ff0219169083151502179055503373ffffffffffffffffffffffffffffffffffffffff167fdf16a43b35bfd00b96b1b63cb01ca3d0d459dcd01a9b9d93aaa3f389ae2d05f482600001548b8a878760405161133295949392919061268d565b60405180910390a28060000154935050505095945050505050565b600060016000838152602001908152602001600020905060008160050154036113ab576040517f08c379a00000000000000000000000000000000000000000000000000000000081526004016113a290611ae0565b60405180910390fd5b80600501544210156113f2576040517f08c379a00000000000000000000000000000000000000000000000000000000081526004016113e990612733565b60405180910390fd5b8060040154421115611439576040517f08c379a000000000000000000000000000000000000000000000000000000000815260040161143090611dce565b60405180910390fd5b60003073ffffffffffffffffffffffffffffffffffffffff163460405161145f90611c75565b60006040518083038185875af1925050503d806000811461149c576040519150601f19603f3d011682016040523d82523d6000602084013e6114a1565b606091505b50509050806114e5576040517f08c379a00000000000000000000000000000000000000000000000000000000081526004016114dc906127c5565b60405180910390fd5b348260030160008282546114f9919061210b565b92505081905550348260070160003373ffffffffffffffffffffffffffffffffffffffff1673ffffffffffffffffffffffffffffffffffffffff1681526020019081526020016000206000828254611551919061210b565b925050819055503373ffffffffffffffffffffffffffffffffffffffff16837f4885b409da2ec1d52c2afe69b0a66b5a3547747b607647660417a2b0378bff403460405161159f9190611831565b60405180910390a3505050565b5080546115b890611a63565b6000825580601f106115ca57506115e9565b601f0160209004906000526020600020908101906115e891906115ec565b5b50565b5b808211156116055760008160009055506001016115ed565b5090565b6000604051905090565b600080fd5b600080fd5b6000819050919050565b6116308161161d565b811461163b57600080fd5b50565b60008135905061164d81611627565b92915050565b60006020828403121561166957611668611613565b5b60006116778482850161163e565b91505092915050565b6116898161161d565b82525050565b600073ffffffffffffffffffffffffffffffffffffffff82169050919050565b60006116ba8261168f565b9050919050565b6116ca816116af565b82525050565b60008115159050919050565b6116e5816116d0565b82525050565b600081519050919050565b600082825260208201905092915050565b60005b8381101561172557808201518184015260208101905061170a565b60008484015250505050565b6000601f19601f8301169050919050565b600061174d826116eb565b61175781856116f6565b9350611767818560208601611707565b61177081611731565b840191505092915050565b600061012082019050611791600083018c611680565b61179e602083018b6116c1565b6117ab604083018a611680565b6117b86060830189611680565b6117c56080830188611680565b6117d260a0830187611680565b6117df60c08301866116dc565b81810360e08301526117f18185611742565b90508181036101008301526118068184611742565b90509a9950505050505050505050565b600060208201905061182b60008301846116dc565b92915050565b60006020820190506118466000830184611680565b92915050565b600080fd5b600080fd5b7f4e487b7100000000000000000000000000000000000000000000000000000000600052604160045260246000fd5b61188e82611731565b810181811067ffffffffffffffff821117156118ad576118ac611856565b5b80604052505050565b60006118c0611609565b90506118cc8282611885565b919050565b600067ffffffffffffffff8211156118ec576118eb611856565b5b6118f582611731565b9050602081019050919050565b82818337600083830152505050565b600061192461191f846118d1565b6118b6565b9050828152602081018484840111156119405761193f611851565b5b61194b848285611902565b509392505050565b600082601f8301126119685761196761184c565b5b8135611978848260208601611911565b91505092915050565b600080600080600060a0868803121561199d5761199c611613565b5b600086013567ffffffffffffffff8111156119bb576119ba611618565b5b6119c788828901611953565b955050602086013567ffffffffffffffff8111156119e8576119e7611618565b5b6119f488828901611953565b9450506040611a058882890161163e565b9350506060611a168882890161163e565b9250506080611a278882890161163e565b9150509295509295909350565b7f4e487b7100000000000000000000000000000000000000000000000000000000600052602260045260246000fd5b60006002820490506001821680611a7b57607f821691505b602082108103611a8e57611a8d611a34565b5b50919050565b7f50726f6a656374206e6f74206578697374730000000000000000000000000000600082015250565b6000611aca6012836116f6565b9150611ad582611a94565b602082019050919050565b60006020820190508181036000830152611af981611abd565b9050919050565b7f6e6f7420656e6421000000000000000000000000000000000000000000000000600082015250565b6000611b366008836116f6565b9150611b4182611b00565b602082019050919050565b60006020820190508181036000830152611b6581611b29565b9050919050565b7f596f7520617265206e6f74206120636f6e7472696275746f7200000000000000600082015250565b6000611ba26019836116f6565b9150611bad82611b6c565b602082019050919050565b60006020820190508181036000830152611bd181611b95565b9050919050565b7f72616973656446756e64203e2074617267657446756e64000000000000000000600082015250565b6000611c0e6017836116f6565b9150611c1982611bd8565b602082019050919050565b60006020820190508181036000830152611c3d81611c01565b9050919050565b600081905092915050565b50565b6000611c5f600083611c44565b9150611c6a82611c4f565b600082019050919050565b6000611c8082611c52565b9150819050919050565b7f756e61626c6520746f2073656e64210000000000000000000000000000000000600082015250565b6000611cc0600f836116f6565b9150611ccb82611c8a565b602082019050919050565b60006020820190508181036000830152611cef81611cb3565b9050919050565b7f4e487b7100000000000000000000000000000000000000000000000000000000600052601160045260246000fd5b6000611d308261161d565b9150611d3b8361161d565b9250828203905081811115611d5357611d52611cf6565b5b92915050565b6000604082019050611d6e6000830185611680565b611d7b6020830184611680565b9392505050565b7f456e646564000000000000000000000000000000000000000000000000000000600082015250565b6000611db86005836116f6565b9150611dc382611d82565b602082019050919050565b60006020820190508181036000830152611de781611dab565b9050919050565b6000604082019050611e0360008301856116c1565b611e106020830184611680565b9392505050565b7f6e6f742063726561746f72000000000000000000000000000000000000000000600082015250565b6000611e4d600b836116f6565b9150611e5882611e17565b602082019050919050565b60006020820190508181036000830152611e7c81611e40565b9050919050565b7f7374617274656400000000000000000000000000000000000000000000000000600082015250565b6000611eb96007836116f6565b9150611ec482611e83565b602082019050919050565b60006020820190508181036000830152611ee881611eac565b9050919050565b7f4e6f7420617574686f72697a6564210000000000000000000000000000000000600082015250565b6000611f25600f836116f6565b9150611f3082611eef565b602082019050919050565b60006020820190508181036000830152611f5481611f18565b9050919050565b7f4e6f74206d656574207461726765740000000000000000000000000000000000600082015250565b6000611f91600f836116f6565b9150611f9c82611f5b565b602082019050919050565b60006020820190508181036000830152611fc081611f84565b9050919050565b7f6e6f7420656e6465640000000000000000000000000000000000000000000000600082015250565b6000611ffd6009836116f6565b915061200882611fc7565b602082019050919050565b6000602082019050818103600083015261202c81611ff0565b9050919050565b7f4f776e657220616c72656164792077697468647261776e000000000000000000600082015250565b60006120696017836116f6565b915061207482612033565b602082019050919050565b600060208201905081810360008301526120988161205c565b9050919050565b7f756e61626c6520746f207472616e736665722066756e6420746f206f776e6572600082015250565b60006120d56020836116f6565b91506120e08261209f565b602082019050919050565b60006020820190508181036000830152612104816120c8565b9050919050565b60006121168261161d565b91506121218361161d565b925082820190508082111561213957612138611cf6565b5b92915050565b7f6475726174696f6e203c3d203000000000000000000000000000000000000000600082015250565b6000612175600d836116f6565b91506121808261213f565b602082019050919050565b600060208201905081810360008301526121a481612168565b9050919050565b7f737461727446726f6d4e6f77203c203000000000000000000000000000000000600082015250565b60006121e16010836116f6565b91506121ec826121ab565b602082019050919050565b60006020820190508181036000830152612210816121d4565b9050919050565b7f7374617274206174203c206e6f77000000000000000000000000000000000000600082015250565b600061224d600e836116f6565b915061225882612217565b602082019050919050565b6000602082019050818103600083015261227c81612240565b9050919050565b7f656e64206174203c3d2073746172742061740000000000000000000000000000600082015250565b60006122b96012836116f6565b91506122c482612283565b602082019050919050565b600060208201905081810360008301526122e8816122ac565b9050919050565b7f656e64206174203e206d6178206475726174696f6e2028322079656172732900600082015250565b6000612325601f836116f6565b9150612330826122ef565b602082019050919050565b6000602082019050818103600083015261235481612318565b9050919050565b7f74617267657446756e64203c3d20300000000000000000000000000000000000600082015250565b6000612391600f836116f6565b915061239c8261235b565b602082019050919050565b600060208201905081810360008301526123c081612384565b9050919050565b60006123d28261161d565b91507fffffffffffffffffffffffffffffffffffffffffffffffffffffffffffffffff820361240457612403611cf6565b5b600182019050919050565b60008190508160005260206000209050919050565b60006020601f8301049050919050565b600082821b905092915050565b6000600883026124717fffffffffffffffffffffffffffffffffffffffffffffffffffffffffffffffff82612434565b61247b8683612434565b95508019841693508086168417925050509392505050565b6000819050919050565b60006124b86124b36124ae8461161d565b612493565b61161d565b9050919050565b6000819050919050565b6124d28361249d565b6124e66124de826124bf565b848454612441565b825550505050565b600090565b6124fb6124ee565b6125068184846124c9565b505050565b5b8181101561252a5761251f6000826124f3565b60018101905061250c565b5050565b601f82111561256f576125408161240f565b61254984612424565b81016020851015612558578190505b61256c61256485612424565b83018261250b565b50505b505050565b600082821c905092915050565b600061259260001984600802612574565b1980831691505092915050565b60006125ab8383612581565b9150826002028217905092915050565b6125c4826116eb565b67ffffffffffffffff8111156125dd576125dc611856565b5b6125e78254611a63565b6125f282828561252e565b600060209050601f8311600181146126255760008415612613578287015190505b61261d858261259f565b865550612685565b601f1984166126338661240f565b60005b8281101561265b57848901518255600182019150602085019450602081019050612636565b868310156126785784890151612674601f891682612581565b8355505b6001600288020188555050505b505050505050565b600060a0820190506126a26000830188611680565b81810360208301526126b48187611742565b90506126c36040830186611680565b6126d06060830185611680565b6126dd6080830184611680565b9695505050505050565b7f4e6f742073746172746564207965740000000000000000000000000000000000600082015250565b600061271d600f836116f6565b9150612728826126e7565b602082019050919050565b6000602082019050818103600083015261274c81612710565b9050919050565b7f556e61626c6520746f207472616e736665722066756e647320746f207468652060008201527f636f6e74726163742e0000000000000000000000000000000000000000000000602082015250565b60006127af6029836116f6565b91506127ba82612753565b604082019050919050565b600060208201905081810360008301526127de816127a2565b905091905056fea2646970667358221220ff19f432e0e25ddc6bd9d4c36bffd60f5b057504e06e52674e3bb8fc229c076564736f6c63430008140033",
  "linkReferences": {},
  "deployedLinkReferences": {}
}