{
  "_format": "hh-sol-artifact-1",
  "contractName": "Crowdfunding",
  "sourceName": "contracts/Crowdfunding.sol",
  "abi": [
    {
      "anonymous": false,
      "inputs": [
        {
          "indexed": false,
          "internalType": "uint256",
          "name": "_id",
          "type": "uint256"
        }
      ],
      "name": "Cancel",
      "type": "event"
    },
    {
      "anonymous": false,
      "inputs": [
        {
          "indexed": true,
          "internalType": "uint256",
          "name": "_id",
          "type": "uint256"
        },
        {
          "indexed": true,
          "internalType": "address",
          "name": "_funder",
          "type": "address"
        },
        {
          "indexed": false,
          "internalType": "uint256",
          "name": "_amount",
          "type": "uint256"
        }
      ],
      "name": "Fund",
      "type": "event"
    },
    {
      "anonymous": false,
      "inputs": [
        {
          "indexed": true,
          "internalType": "uint256",
          "name": "_id",
          "type": "uint256"
        },
        {
          "indexed": false,
          "internalType": "address",
          "name": "_funder",
          "type": "address"
        },
        {
          "indexed": false,
          "internalType": "uint256",
          "name": "_amount",
          "type": "uint256"
        }
      ],
      "name": "FunderWithdraw",
      "type": "event"
    },
    {
      "anonymous": false,
      "inputs": [
        {
          "indexed": false,
          "internalType": "uint256",
          "name": "_id",
          "type": "uint256"
        },
        {
          "indexed": false,
          "internalType": "string",
          "name": "_projectName",
          "type": "string"
        },
        {
          "indexed": true,
          "internalType": "address",
          "name": "_owner",
          "type": "address"
        },
        {
          "indexed": false,
          "internalType": "uint256",
          "name": "_targetFund",
          "type": "uint256"
        },
        {
          "indexed": false,
          "internalType": "uint256",
          "name": "_startAt",
          "type": "uint256"
        },
        {
          "indexed": false,
          "internalType": "uint256",
          "name": "_endAt",
          "type": "uint256"
        },
        {
          "indexed": false,
          "internalType": "address",
          "name": "_nft",
          "type": "address"
        }
      ],
      "name": "Launch",
      "type": "event"
    },
    {
      "anonymous": false,
      "inputs": [
        {
          "indexed": false,
          "internalType": "uint256",
          "name": "_id",
          "type": "uint256"
        }
      ],
      "name": "OwnerWithdraw",
      "type": "event"
    },
    {
      "anonymous": false,
      "inputs": [
        {
          "indexed": false,
          "internalType": "uint256",
          "name": "_id",
          "type": "uint256"
        },
        {
          "indexed": true,
          "internalType": "address",
          "name": "_funder",
          "type": "address"
        },
        {
          "indexed": false,
          "internalType": "uint256",
          "name": "_amount",
          "type": "uint256"
        }
      ],
      "name": "Refund",
      "type": "event"
    },
    {
      "anonymous": false,
      "inputs": [
        {
          "indexed": true,
          "internalType": "uint256",
          "name": "_id",
          "type": "uint256"
        },
        {
          "indexed": false,
          "internalType": "uint256",
          "name": "_raisedFund",
          "type": "uint256"
        }
      ],
      "name": "SuccessFund",
      "type": "event"
    },
    {
      "stateMutability": "payable",
      "type": "fallback"
    },
    {
      "inputs": [
        {
          "internalType": "uint256",
          "name": "_id",
          "type": "uint256"
        }
      ],
      "name": "cancel",
      "outputs": [],
      "stateMutability": "nonpayable",
      "type": "function"
    },
    {
      "inputs": [
        {
          "internalType": "uint256",
          "name": "_id",
          "type": "uint256"
        }
      ],
      "name": "fund",
      "outputs": [],
      "stateMutability": "payable",
      "type": "function"
    },
    {
      "inputs": [
        {
          "internalType": "uint256",
          "name": "projectId",
          "type": "uint256"
        }
      ],
      "name": "getDeadline",
      "outputs": [
        {
          "internalType": "uint256",
          "name": "",
          "type": "uint256"
        }
      ],
      "stateMutability": "view",
      "type": "function"
    },
    {
      "inputs": [
        {
          "internalType": "uint256",
          "name": "_projectId",
          "type": "uint256"
        }
      ],
      "name": "getFunders",
      "outputs": [
        {
          "internalType": "address[]",
          "name": "",
          "type": "address[]"
        },
        {
          "internalType": "uint256[]",
          "name": "",
          "type": "uint256[]"
        }
      ],
      "stateMutability": "view",
      "type": "function"
    },
    {
      "inputs": [
        {
          "internalType": "uint256",
          "name": "projectId",
          "type": "uint256"
        }
      ],
      "name": "getMyFund",
      "outputs": [
        {
          "internalType": "uint256",
          "name": "",
          "type": "uint256"
        }
      ],
      "stateMutability": "view",
      "type": "function"
    },
    {
      "inputs": [
        {
          "internalType": "uint256",
          "name": "projectId",
          "type": "uint256"
        }
      ],
      "name": "getRaisedFund",
      "outputs": [
        {
          "internalType": "uint256",
          "name": "",
          "type": "uint256"
        }
      ],
      "stateMutability": "view",
      "type": "function"
    },
    {
      "inputs": [
        {
          "internalType": "uint256",
          "name": "projectId",
          "type": "uint256"
        }
      ],
      "name": "isSuccess",
      "outputs": [
        {
          "internalType": "bool",
          "name": "",
          "type": "bool"
        }
      ],
      "stateMutability": "view",
      "type": "function"
    },
    {
      "inputs": [
        {
          "internalType": "string",
          "name": "_projectName",
          "type": "string"
        },
        {
          "internalType": "string",
          "name": "_description",
          "type": "string"
        },
        {
          "internalType": "string",
          "name": "_tokenName",
          "type": "string"
        },
        {
          "internalType": "uint256",
          "name": "_targetFund",
          "type": "uint256"
        },
        {
          "internalType": "uint256",
          "name": "_startFromNow",
          "type": "uint256"
        },
        {
          "internalType": "uint256",
          "name": "_duration",
          "type": "uint256"
        }
      ],
      "name": "launch",
      "outputs": [
        {
          "internalType": "uint256",
          "name": "",
          "type": "uint256"
        }
      ],
      "stateMutability": "nonpayable",
      "type": "function"
    },
    {
      "inputs": [],
      "name": "projectCount",
      "outputs": [
        {
          "internalType": "uint256",
          "name": "",
          "type": "uint256"
        }
      ],
      "stateMutability": "view",
      "type": "function"
    },
    {
      "inputs": [
        {
          "internalType": "uint256",
          "name": "",
          "type": "uint256"
        }
      ],
      "name": "projects",
      "outputs": [
        {
          "internalType": "uint256",
          "name": "id",
          "type": "uint256"
        },
        {
          "internalType": "address",
          "name": "owner",
          "type": "address"
        },
        {
          "internalType": "uint256",
          "name": "targetFund",
          "type": "uint256"
        },
        {
          "internalType": "uint256",
          "name": "raisedFund",
          "type": "uint256"
        },
        {
          "internalType": "uint256",
          "name": "endAt",
          "type": "uint256"
        },
        {
          "internalType": "uint256",
          "name": "startAt",
          "type": "uint256"
        },
        {
          "internalType": "bool",
          "name": "ownerWithdrawn",
          "type": "bool"
        },
        {
          "internalType": "string",
          "name": "projectName",
          "type": "string"
        },
        {
          "internalType": "string",
          "name": "description",
          "type": "string"
        },
        {
          "internalType": "address",
          "name": "nft",
          "type": "address"
        }
      ],
      "stateMutability": "view",
      "type": "function"
    },
    {
      "inputs": [
        {
          "internalType": "uint256",
          "name": "_id",
          "type": "uint256"
        }
      ],
      "name": "refund",
      "outputs": [],
      "stateMutability": "payable",
      "type": "function"
    },
    {
      "inputs": [
        {
          "internalType": "uint256",
          "name": "_id",
          "type": "uint256"
        }
      ],
      "name": "withdrawFunder",
      "outputs": [],
      "stateMutability": "payable",
      "type": "function"
    },
    {
      "inputs": [
        {
          "internalType": "uint256",
          "name": "_id",
          "type": "uint256"
        }
      ],
      "name": "withdrawOwner",
      "outputs": [],
      "stateMutability": "payable",
      "type": "function"
    },
    {
      "stateMutability": "payable",
      "type": "receive"
    }
  ],
  "bytecode": "0x60806040526000805534801561001457600080fd5b50614e78806100246000396000f3fe608060405260043610620000b15760003560e01c8063107046bd14620000bb5780632451a8991462000101578063278ecde1146200014f5780632d53a11e146200016657806336fbad26146200017d5780633a7b6c7414620001a457806340e58ee514620001d95780635ca30c2c14620001fe5780636ef98b211462000232578063736fefb0146200024957806382862275146200026e578063b43150ed14620002a2578063ca1d209d14620002c757005b36620000b957005b005b348015620000c857600080fd5b50620000e0620000da36600462001614565b620002de565b604051620000f89a9998979695949392919062001676565b60405180910390f35b3480156200010e57600080fd5b506200013e6200012036600462001614565b60009081526001602052604090206002810154600390910154101590565b6040519015158152602001620000f8565b620000b96200016036600462001614565b62000467565b620000b96200017736600462001614565b62000684565b3480156200018a57600080fd5b506200019560005481565b604051908152602001620000f8565b348015620001b157600080fd5b50620001c9620001c336600462001614565b62000957565b604051620000f8929190620016f4565b348015620001e657600080fd5b50620000b9620001f836600462001614565b62000abb565b3480156200020b57600080fd5b50620001956200021d36600462001614565b60009081526001602052604090206003015490565b620000b96200024336600462001614565b62000c90565b3480156200025657600080fd5b50620001956200026836600462001614565b62000e56565b3480156200027b57600080fd5b50620001956200028d36600462001614565b60009081526001602052604090206004015490565b348015620002af57600080fd5b5062000195620002c13660046200183b565b62000ef4565b620000b9620002d836600462001614565b62001213565b6001602081905260009182526040909120805491810154600282015460038301546004840154600585015460068601546009870180546001600160a01b0390971697959694959394929360ff909216926200033990620018e8565b80601f01602080910402602001604051908101604052809291908181526020018280546200036790620018e8565b8015620003b85780601f106200038c57610100808354040283529160200191620003b8565b820191906000526020600020905b8154815290600101906020018083116200039a57829003601f168201915b50505050509080600a018054620003cf90620018e8565b80601f0160208091040260200160405190810160405280929190818152602001828054620003fd90620018e8565b80156200044e5780601f1062000422576101008083540402835291602001916200044e565b820191906000526020600020905b8154815290600101906020018083116200043057829003601f168201915b505050600b90930154919250506001600160a01b03168a565b60008181526001602052604081206005810154909103620004a55760405162461bcd60e51b81526004016200049c9062001924565b60405180910390fd5b80600401544211620004e55760405162461bcd60e51b81526020600482015260086024820152676e6f7420656e642160c01b60448201526064016200049c565b80600201548160030154106200053b5760405162461bcd60e51b815260206004820152601a6024820152792a30b933b2ba1036b2ba161031b0b73737ba103932b33ab7321760311b60448201526064016200049c565b3360009081526007820160205260409020546200056c5760405162461bcd60e51b81526004016200049c9062001950565b600681015460ff161515600103620005985760405162461bcd60e51b81526004016200049c9062001983565b33600081815260078301602052604080822054905190929083908381818185875af1925050503d8060008114620005ec576040519150601f19603f3d011682016040523d82523d6000602084013e620005f1565b606091505b5050905080620006155760405162461bcd60e51b81526004016200049c90620019ac565b818360030160008282546200062b9190620019eb565b909155505033600081815260078501602090815260408083209290925581518781529081018590527f21e12a7cad0da5928167e1084ea4d5fdf8d9af66657a2543a9ac76a0ca081477910160405180910390a250505050565b60008181526001602052604081206005810154909103620006b95760405162461bcd60e51b81526004016200049c9062001924565b8060040154421115620006e05760405162461bcd60e51b81526004016200049c9062001a07565b336000908152600782016020526040902054620007115760405162461bcd60e51b81526004016200049c9062001950565b600681015460ff1615156001036200073d5760405162461bcd60e51b81526004016200049c9062001983565b33600081815260078301602052604080822054905190929083908381818185875af1925050503d806000811462000791576040519150601f19603f3d011682016040523d82523d6000602084013e62000796565b606091505b5050905080620007ba5760405162461bcd60e51b81526004016200049c90620019ac565b81836003016000828254620007d09190620019eb565b90915550503360009081526007840160205260408120819055805b60088501548110156200085357336001600160a01b03168560080182815481106200081a576200081a62001a26565b6000918252602090912001546001600160a01b0316036200083e5780915062000853565b806200084a8162001a3c565b915050620007eb565b506008840180546200086890600190620019eb565b815481106200087b576200087b62001a26565b6000918252602090912001546008850180546001600160a01b039092169183908110620008ac57620008ac62001a26565b9060005260206000200160006101000a8154816001600160a01b0302191690836001600160a01b0316021790555083600801805480620008f057620008f062001a58565b600082815260209020810160001990810180546001600160a01b031916905501905560405185907f963787f23890b4153326475e5d4378e357834353b2296cf5122d3dd172bc80169062000948903390879062001a6e565b60405180910390a25050505050565b6060806000600160008581526020019081526020016000209050600081600801805480602002602001604051908101604052809291908181526020018280548015620009cd57602002820191906000526020600020905b81546001600160a01b03168152600190910190602001808311620009ae575b50505050509050600082600801805490506001600160401b03811115620009f857620009f86200177c565b60405190808252806020026020018201604052801562000a22578160200160208202803683370190505b50905060005b600884015481101562000aaf5783600701600085600801838154811062000a535762000a5362001a26565b60009182526020808320909101546001600160a01b03168352820192909252604001902054825183908390811062000a8f5762000a8f62001a26565b60209081029190910101528062000aa68162001a3c565b91505062000a28565b50909590945092505050565b6000818152600160205260408120600581015490910362000af05760405162461bcd60e51b81526004016200049c9062001924565b60018101546001600160a01b0316331462000b1f5760405162461bcd60e51b81526004016200049c9062001a87565b8060050154421062000b5e5760405162461bcd60e51b81526020600482015260076024820152661cdd185c9d195960ca1b60448201526064016200049c565b60038101541562000ba35760405162461bcd60e51b815260206004820152600e60248201526d185b1c9958591e48199d5b99195960921b60448201526064016200049c565b600681015460ff161562000bcb5760405162461bcd60e51b81526004016200049c9062001ab0565b6000828152600160208190526040822082815590810180546001600160a01b03191690556002810182905560038101829055600481018290556005810182905560068101805460ff191690559062000c27600883018262001589565b62000c37600983016000620015ac565b62000c47600a83016000620015ac565b50600b0180546001600160a01b03191690556040518281527f8bf30e7ff26833413be5f69e1d373744864d600b664204b4a2f9844a8eedb9ed9060200160405180910390a15050565b6000818152600160205260408120600581015490910362000cc55760405162461bcd60e51b81526004016200049c9062001924565b60018101546001600160a01b0316331462000cf45760405162461bcd60e51b81526004016200049c9062001a87565b80600201548160030154101562000d405760405162461bcd60e51b815260206004820152600f60248201526e139bdd081b59595d081d185c99d95d608a1b60448201526064016200049c565b600681015460ff161562000d685760405162461bcd60e51b81526004016200049c9062001ab0565b600381015460405160009133918381818185875af1925050503d806000811462000daf576040519150601f19603f3d011682016040523d82523d6000602084013e62000db4565b606091505b505090508062000e075760405162461bcd60e51b815260206004820181905260248201527f756e61626c6520746f207472616e736665722066756e6420746f206f776e657260448201526064016200049c565b60068201805460ff191660011790556040517fa20809e697380eaea0fd13bf4d14b00e2ef29559ef361501189d3be2e9b0ec859062000e499085815260200190565b60405180910390a1505050565b600080600062000e668462000957565b9150915060005b825181101562000ee957336001600160a01b031683828151811062000e965762000e9662001a26565b60200260200101516001600160a01b03160362000ed45781818151811062000ec25762000ec262001a26565b60200260200101519350505050919050565b8062000ee08162001a3c565b91505062000e6d565b506000949350505050565b60008062000f03844262001ae1565b9050600062000f13848362001ae1565b90506000841162000f575760405162461bcd60e51b815260206004820152600d60248201526c06475726174696f6e203c3d203609c1b60448201526064016200049c565b4282101562000f9a5760405162461bcd60e51b815260206004820152600e60248201526d7374617274206174203c206e6f7760901b60448201526064016200049c565b81811162000fe05760405162461bcd60e51b8152602060048201526012602482015271195b9908185d080f0f481cdd185c9d08185d60721b60448201526064016200049c565b62000ff0426303c2670062001ae1565b811115620010415760405162461bcd60e51b815260206004820152601f60248201527f656e64206174203e206d6178206475726174696f6e202832207965617273290060448201526064016200049c565b60008611620010855760405162461bcd60e51b815260206004820152600f60248201526e074617267657446756e64203c3d203608c1b60448201526064016200049c565b600080549080620010968362001a3c565b9091555050600080548152600160208190526040822090810180546001600160a01b0319163317905581548155600281018890556003810191909155600481018290556005810183905560098101620010f08b8262001b49565b50600a8101620011018a8262001b49565b5060068101805460ff1916905560018101546001600160a01b0316600090815260078201602052604080822082905551309060098401908b906200114590620015eb565b620011539392919062001c15565b604051809103906000f08015801562001170573d6000803e3d6000fd5b5090508082600b0160006101000a8154816001600160a01b0302191690836001600160a01b03160217905550336001600160a01b03167fe1e766336635250f2b137a82dd11fc83be45ba1479beff4cf0bbf8b55c0f220083600001548d8b888888600b0160009054906101000a90046001600160a01b0316604051620011fc9695949392919062001ccd565b60405180910390a250549998505050505050505050565b60008181526001602052604081206005810154909103620012485760405162461bcd60e51b81526004016200049c9062001924565b8060050154421015620012905760405162461bcd60e51b815260206004820152600f60248201526e139bdd081cdd185c9d1959081e595d608a1b60448201526064016200049c565b8060040154421115620012b75760405162461bcd60e51b81526004016200049c9062001a07565b600681015460ff161515600103620012e35760405162461bcd60e51b81526004016200049c9062001983565b604051600090309034908381818185875af1925050503d806000811462001327576040519150601f19603f3d011682016040523d82523d6000602084013e6200132c565b606091505b5050905080620013915760405162461bcd60e51b815260206004820152602960248201527f556e61626c6520746f207472616e736665722066756e647320746f207468652060448201526831b7b73a3930b1ba1760b91b60648201526084016200049c565b34826003016000828254620013a7919062001ae1565b909155505033600090815260078301602052604081208054349290620013cf90849062001ae1565b9091555050600882018054600181018255600091825260209091200180546001600160a01b0319163390811790915560405184907f4885b409da2ec1d52c2afe69b0a66b5a3547747b607647660417a2b0378bff4090620014339034815260200190565b60405180910390a381600201548260030154106200158457600b8201546001600160a01b0316600080620014678662000957565b9150915060005b82518110156200154057836001600160a01b031663a14481948483815181106200149c576200149c62001a26565b6020026020010151848481518110620014b957620014b962001a26565b60200260200101516040518363ffffffff1660e01b8152600401620014e092919062001a6e565b6000604051808303816000875af115801562001500573d6000803e3d6000fd5b505050506040513d6000823e601f3d908101601f191682016040526200152a919081019062001d16565b5080620015378162001a3c565b9150506200146e565b50857fba3eafb2cc58399c2a709066109f8e4530dbc80f3250fea1a4c0941eae1c7b1686600301546040516200157891815260200190565b60405180910390a25050505b505050565b5080546000825590600052602060002090810190620015a99190620015f9565b50565b508054620015ba90620018e8565b6000825580601f10620015cb575050565b601f016020900490600052602060002090810190620015a99190620015f9565b61307c8062001dc783390190565b5b80821115620016105760008155600101620015fa565b5090565b6000602082840312156200162757600080fd5b5035919050565b6000815180845260005b81811015620016565760208185018101518683018201520162001638565b506000602082860101526020601f19601f83011685010191505092915050565b60006101408c835260018060a01b03808d1660208501528b60408501528a60608501528960808501528860a085015287151560c08501528160e0850152620016c1828501886200162e565b9150838203610100850152620016d882876200162e565b925080851661012085015250509b9a5050505050505050505050565b604080825283519082018190526000906020906060840190828701845b82811015620017385781516001600160a01b03168452928401929084019060010162001711565b5050508381038285015284518082528583019183019060005b818110156200176f5783518352928401929184019160010162001751565b5090979650505050505050565b634e487b7160e01b600052604160045260246000fd5b604051601f8201601f191681016001600160401b0381118282101715620017bd57620017bd6200177c565b604052919050565b600082601f830112620017d757600080fd5b81356001600160401b03811115620017f357620017f36200177c565b62001808601f8201601f191660200162001792565b8181528460208386010111156200181e57600080fd5b816020850160208301376000918101602001919091529392505050565b60008060008060008060c087890312156200185557600080fd5b86356001600160401b03808211156200186d57600080fd5b6200187b8a838b01620017c5565b975060208901359150808211156200189257600080fd5b620018a08a838b01620017c5565b96506040890135915080821115620018b757600080fd5b50620018c689828a01620017c5565b945050606087013592506080870135915060a087013590509295509295509295565b600181811c90821680620018fd57607f821691505b6020821081036200191e57634e487b7160e01b600052602260045260246000fd5b50919050565b60208082526012908201527150726f6a656374206e6f742065786973747360701b604082015260600190565b6020808252601990820152782cb7ba9030b932903737ba10309031b7b73a3934b13aba37b960391b604082015260600190565b6020808252600f908201526e37bbb732b9103bb4ba34323930bbb760891b604082015260600190565b6020808252600f908201526e756e61626c6520746f2073656e642160881b604082015260600190565b634e487b7160e01b600052601160045260246000fd5b8181038181111562001a015762001a01620019d5565b92915050565b602080825260059082015264115b99195960da1b604082015260600190565b634e487b7160e01b600052603260045260246000fd5b60006001820162001a515762001a51620019d5565b5060010190565b634e487b7160e01b600052603160045260246000fd5b6001600160a01b03929092168252602082015260400190565b6020808252600f908201526e4e6f7420617574686f72697a65642160881b604082015260600190565b60208082526017908201527627bbb732b91030b63932b0b23c903bb4ba34323930bbb760491b604082015260600190565b8082018082111562001a015762001a01620019d5565b601f8211156200158457600081815260208120601f850160051c8101602086101562001b205750805b601f850160051c820191505b8181101562001b415782815560010162001b2c565b505050505050565b81516001600160401b0381111562001b655762001b656200177c565b62001b7d8162001b768454620018e8565b8462001af7565b602080601f83116001811462001bb5576000841562001b9c5750858301515b600019600386901b1c1916600185901b17855562001b41565b600085815260208120601f198616915b8281101562001be65788860151825594840194600190910190840162001bc5565b508582101562001c055787850151600019600388901b60f8161c191681555b5050505050600190811b01905550565b60018060a01b0384168152600060206060818401526000855462001c3981620018e8565b806060870152608060018084166000811462001c5e576001811462001c795762001ca9565b60ff1985168984015283151560051b89018301955062001ca9565b8a6000528660002060005b8581101562001ca15781548b820186015290830190880162001c84565b8a0184019650505b5050505050838103604085015262001cc281866200162e565b979650505050505050565b86815260c06020820152600062001ce860c08301886200162e565b604083019690965250606081019390935260808301919091526001600160a01b031660a09091015292915050565b6000602080838503121562001d2a57600080fd5b82516001600160401b038082111562001d4257600080fd5b818501915085601f83011262001d5757600080fd5b81518181111562001d6c5762001d6c6200177c565b8060051b915062001d7f84830162001792565b818152918301840191848101908884111562001d9a57600080fd5b938501935b8385101562001dba5784518252938501939085019062001d9f565b9897505050505050505056fe6101606040526127106014553480156200001857600080fd5b506040516200307c3803806200307c8339810160408190526200003b9162000320565b6040805180820190915260018152603160f81b60208201528290848284600062000066838262000439565b50600162000075828262000439565b5050600a805460ff19169055506001600160a01b038116620000b257604051631e4fbdf760e01b8152600060048201526024015b60405180910390fd5b620000bd816200017d565b50620000cb82600b620001d7565b61012052620000dc81600c620001d7565b61014052815160208084019190912060e052815190820120610100524660a0526200016a60e05161010051604080517f8b73c3c69bb8fe3d512ecc4cf759cc79239f7b179b0ffacaa9a75d522b39400f60208201529081019290925260608201524660808201523060a082015260009060c00160405160208183030381529060405280519060200120905090565b60805250503060c052506200055f915050565b600a80546001600160a01b03838116610100818102610100600160a81b031985161790945560405193909204169182907f8be0079c531659141344cd1fd0a4f28419497f9722a3daafe3b4186f6b6457e090600090a35050565b6000602083511015620001f757620001ef8362000210565b90506200020a565b8162000204848262000439565b5060ff90505b92915050565b600080829050601f815111156200023e578260405163305a27a960e01b8152600401620000a9919062000505565b80516200024b826200053a565b179392505050565b634e487b7160e01b600052604160045260246000fd5b60005b83811015620002865781810151838201526020016200026c565b50506000910152565b600082601f830112620002a157600080fd5b81516001600160401b0380821115620002be57620002be62000253565b604051601f8301601f19908116603f01168101908282118183101715620002e957620002e962000253565b816040528381528660208588010111156200030357600080fd5b6200031684602083016020890162000269565b9695505050505050565b6000806000606084860312156200033657600080fd5b83516001600160a01b03811681146200034e57600080fd5b60208501519093506001600160401b03808211156200036c57600080fd5b6200037a878388016200028f565b935060408601519150808211156200039157600080fd5b50620003a0868287016200028f565b9150509250925092565b600181811c90821680620003bf57607f821691505b602082108103620003e057634e487b7160e01b600052602260045260246000fd5b50919050565b601f8211156200043457600081815260208120601f850160051c810160208610156200040f5750805b601f850160051c820191505b8181101562000430578281556001016200041b565b5050505b505050565b81516001600160401b0381111562000455576200045562000253565b6200046d81620004668454620003aa565b84620003e6565b602080601f831160018114620004a557600084156200048c5750858301515b600019600386901b1c1916600185901b17855562000430565b600085815260208120601f198616915b82811015620004d657888601518255948401946001909101908401620004b5565b5085821015620004f55787850151600019600388901b60f8161c191681555b5050505050600190811b01905550565b60208152600082518060208401526200052681604085016020870162000269565b601f01601f19169190910160400192915050565b80516020808301519190811015620003e05760001960209190910360031b1b16919050565b60805160a05160c05160e051610100516101205161014051612ac2620005ba600039600061101801526000610feb0152600061196c015260006119440152600061189f015260006118c9015260006118f30152612ac26000f3fe608060405234801561001057600080fd5b50600436106101b75760003560e01c806301ffc9a7146101bc57806306fdde03146101e4578063081812fc146101f9578063095ea7b31461021957806318160ddd1461022e57806323b872dd146102405780632f745c59146102535780633a46b1a8146102665780633f4ba83a1461027957806342842e0e1461028157806342966c68146102945780634bf5d7e9146102a75780634f6ccce7146102af578063587cde1e146102c25780635c19a95c146102d55780635c975abb146102e85780636352211e146102f35780636970bb0a1461030657806370a0823114610326578063715018a6146103395780637ecebe00146103415780638456cb591461036a57806384b0196e146103725780638aa80ea51461038d5780638da5cb5b146103965780638e539e8c1461039e57806391ddadf4146103b157806395d89b41146103d05780639ab24eb0146103d8578063a1448194146103eb578063a22cb465146103fe578063b501eaf514610411578063b88d4fde1461041a578063c3cda5201461042d578063c87b56dd14610440578063e985e9c514610453578063f2fde38b14610466575b600080fd5b6101cf6101ca36600461249c565b610479565b60405190151581526020015b60405180910390f35b6101ec61048a565b6040516101db9190612509565b61020c61020736600461251c565b61051c565b6040516101db9190612535565b61022c610227366004612565565b610531565b005b6008545b6040519081526020016101db565b61022c61024e36600461258f565b610540565b610232610261366004612565565b6105d4565b610232610274366004612565565b61062b565b61022c61069f565b61022c61028f36600461258f565b6106b1565b61022c6102a236600461251c565b6106d1565b6101ec6106dd565b6102326102bd36600461251c565b610755565b61020c6102d03660046125cb565b6107a9565b61022c6102e33660046125cb565b6107c7565b600a5460ff166101cf565b61020c61030136600461251c565b6107d2565b6103196103143660046125cb565b6107dd565b6040516101db9190612621565b6102326103343660046125cb565b610849565b61022c610891565b61023261034f3660046125cb565b6001600160a01b03166000908152600d602052604090205490565b61022c6108a3565b61037a6108b3565b6040516101db9796959493929190612634565b61023260145481565b61020c6108f9565b6102326103ac36600461251c565b61090d565b6103b961096a565b60405165ffffffffffff90911681526020016101db565b6101ec610979565b6102326103e63660046125cb565b610988565b6103196103f9366004612565565b6109b8565b61022c61040c3660046126a4565b610b02565b61023260155481565b61022c6104283660046126f6565b610b0d565b61022c61043b3660046127d1565b610b24565b6101ec61044e36600461251c565b610be1565b6101cf610461366004612831565b610c56565b61022c6104743660046125cb565b610c84565b600061048482610cc2565b92915050565b60606000805461049990612864565b80601f01602080910402602001604051908101604052809291908181526020018280546104c590612864565b80156105125780601f106104e757610100808354040283529160200191610512565b820191906000526020600020905b8154815290600101906020018083116104f557829003601f168201915b5050505050905090565b600061052782610ce7565b5061048482610d1f565b61053c828233610d3a565b5050565b6001600160a01b038216610573576000604051633250574960e11b815260040161056a9190612535565b60405180910390fd5b6000610580838333610d47565b9050836001600160a01b0316816001600160a01b0316146105ce576040516364283d7b60e01b81526001600160a01b038086166004830152602482018490528216604482015260640161056a565b50505050565b60006105df83610849565b821061060257828260405163295f44f760e21b815260040161056a92919061289e565b506001600160a01b03919091166000908152600660209081526040808320938352929052205490565b60008061063661096a565b90508065ffffffffffff168310610664578281604051637669fc0f60e11b815260040161056a9291906128b7565b61068e61067084610d5c565b6001600160a01b0386166000908152600f6020526040902090610d93565b6001600160d01b0316949350505050565b6106a7610e49565b6106af610e7b565b565b6106cc83838360405180602001604052806000815250610b0d565b505050565b61053c60008233610d47565b60606106e7610ec7565b65ffffffffffff166106f761096a565b65ffffffffffff161461071d576040516301bfc1c560e61b815260040160405180910390fd5b5060408051808201909152601d81527f6d6f64653d626c6f636b6e756d6265722666726f6d3d64656661756c74000000602082015290565b600061076060085490565b82106107845760008260405163295f44f760e21b815260040161056a92919061289e565b60088281548110610797576107976128cd565b90600052602060002001549050919050565b6001600160a01b039081166000908152600e60205260409020541690565b3361053c8183610ed2565b600061048482610ce7565b6001600160a01b03811660009081526012602090815260409182902080548351818402810184019094528084526060939283018282801561083d57602002820191906000526020600020905b815481526020019060010190808311610829575b50505050509050919050565b60006001600160a01b0382166108755760006040516322718ad960e21b815260040161056a9190612535565b506001600160a01b031660009081526003602052604090205490565b610899610e49565b6106af6000610f4d565b6108ab610e49565b6106af610fa7565b6000606080600080600060606108c7610fe4565b6108cf611011565b60408051600080825260208201909252600f60f81b9b939a50919850469750309650945092509050565b600a5461010090046001600160a01b031690565b60008061091861096a565b90508065ffffffffffff168310610946578281604051637669fc0f60e11b815260040161056a9291906128b7565b61095a61095284610d5c565b601090610d93565b6001600160d01b03169392505050565b6000610974610ec7565b905090565b60606001805461049990612864565b6001600160a01b0381166000908152600f602052604081206109a99061103e565b6001600160d01b031692915050565b60606109c2610e49565b601454826015546109d391906128f9565b1115610a165760405162461bcd60e51b815260206004820152601260248201527113585e081b1a5b5a5d08195e18d95959195960721b604482015260640161056a565b6000826001600160401b03811115610a3057610a306126e0565b604051908082528060200260200182016040528015610a59578160200160208202803683370190505b50905060005b83811015610ad057601354610a748682611077565b80838381518110610a8757610a876128cd565b602090810291909101015260158054906000610aa28361290c565b909155505060138054906000610ab78361290c565b9190505550508080610ac89061290c565b915050610a5f565b506001600160a01b03841660009081526012602090815260409091208251610afa9284019061242f565b509392505050565b61053c338383611091565b610b18848484610540565b6105ce84848484611127565b83421115610b4857604051632341d78760e11b81526004810185905260240161056a565b604080517fe48329057bfd03d55e49b547132e39cffd9c1820ad7b9d4c5307691425d15adf60208201526001600160a01b038816918101919091526060810186905260808101859052600090610bc290610bba9060a0016040516020818303038152906040528051906020012061123e565b85858561126b565b9050610bce8187611299565b610bd88188610ed2565b50505050505050565b6060610bec82610ce7565b506000610c0460408051602081019091526000815290565b90506000815111610c245760405180602001604052806000815250610c4f565b80610c2e846112de565b604051602001610c3f929190612925565b6040516020818303038152906040525b9392505050565b6001600160a01b03918216600090815260056020908152604080832093909416825291909152205460ff1690565b610c8c610e49565b6001600160a01b038116610cb6576000604051631e4fbdf760e01b815260040161056a9190612535565b610cbf81610f4d565b50565b60006001600160e01b0319821663780e9d6360e01b1480610484575061048482611370565b600080610cf3836113c0565b90506001600160a01b03811661048457604051637e27328960e01b81526004810184905260240161056a565b6000908152600460205260409020546001600160a01b031690565b6106cc83838360016113db565b6000610d548484846114d8565b949350505050565b600065ffffffffffff821115610d8f576040516306dfcc6560e41b8152603060048201526024810183905260440161056a565b5090565b815460009081816005811115610df2576000610dae846114f4565b610db89085612954565b60008881526020902090915081015465ffffffffffff9081169087161015610de257809150610df0565b610ded8160016128f9565b92505b505b6000610e00878785856115dc565b90508015610e3b57610e2587610e17600184612954565b600091825260209091200190565b54600160301b90046001600160d01b0316610e3e565b60005b979650505050505050565b33610e526108f9565b6001600160a01b0316146106af573360405163118cdaa760e01b815260040161056a9190612535565b610e83611636565b600a805460ff191690557f5db9ee0a495bf2e6ff9c91a7834c1ba4fdd244a5e8aa4e537bd38aeae4b073aa335b604051610ebd9190612535565b60405180910390a1565b600061097443610d5c565b6000610edd836107a9565b6001600160a01b038481166000818152600e602052604080822080546001600160a01b031916888616908117909155905194955093928516927f3134e8a2e6d97e929a7e54011ea5485d7d196dd5f0ba4d4ef95803e8e3fc257f9190a46106cc8183610f4886611659565b611664565b600a80546001600160a01b03838116610100818102610100600160a81b031985161790945560405193909204169182907f8be0079c531659141344cd1fd0a4f28419497f9722a3daafe3b4186f6b6457e090600090a35050565b610faf6117ac565b600a805460ff191660011790557f62e78cea01bee320cd4e420270b5ea74000d11b0c9f74754ebdbfc544b05a258610eb03390565b60606109747f0000000000000000000000000000000000000000000000000000000000000000600b6117d0565b60606109747f0000000000000000000000000000000000000000000000000000000000000000600c6117d0565b8054600090801561106e5761105883610e17600184612954565b54600160301b90046001600160d01b0316610c4f565b60009392505050565b61053c82826040518060200160405280600081525061187b565b6001600160a01b0382166110ba5781604051630b61174360e31b815260040161056a9190612535565b6001600160a01b03838116600081815260056020908152604080832094871680845294825291829020805460ff191686151590811790915591519182527f17307eab39ab6107e8899845ad3d59bd9653f200f220920489ca2b5937696c31910160405180910390a3505050565b6001600160a01b0383163b156105ce57604051630a85bd0160e11b81526001600160a01b0384169063150b7a0290611169903390889087908790600401612967565b6020604051808303816000875af19250505080156111a4575060408051601f3d908101601f191682019092526111a1918101906129a4565b60015b611204573d8080156111d2576040519150601f19603f3d011682016040523d82523d6000602084013e6111d7565b606091505b5080516000036111fc5783604051633250574960e11b815260040161056a9190612535565b805181602001fd5b6001600160e01b03198116630a85bd0160e11b146112375783604051633250574960e11b815260040161056a9190612535565b5050505050565b600061048461124b611892565b8360405161190160f01b8152600281019290925260228201526042902090565b60008060008061127d888888886119bd565b92509250925061128d8282611a82565b50909695505050505050565b6001600160a01b0382166000908152600d602052604090208054600181019091558181146106cc5782816040516301d4b62360e61b815260040161056a92919061289e565b606060006112eb83611b3b565b60010190506000816001600160401b0381111561130a5761130a6126e0565b6040519080825280601f01601f191660200182016040528015611334576020820181803683370190505b5090508181016020015b600019016f181899199a1a9b1b9c1cb0b131b232b360811b600a86061a8153600a850494508461133e57509392505050565b60006001600160e01b031982166380ac58cd60e01b14806113a157506001600160e01b03198216635b5e139f60e01b145b8061048457506301ffc9a760e01b6001600160e01b0319831614610484565b6000908152600260205260409020546001600160a01b031690565b80806113ef57506001600160a01b03821615155b156114a85760006113ff84610ce7565b90506001600160a01b0383161580159061142b5750826001600160a01b0316816001600160a01b031614155b801561143e575061143c8184610c56565b155b1561145e578260405163a9fbf51f60e01b815260040161056a9190612535565b81156114a65783856001600160a01b0316826001600160a01b03167f8c5be1e5ebec7d5bd14f71427d1e84f3dd0314c0f7b2291e5b200ac8c7c3b92560405160405180910390a45b505b5050600090815260046020526040902080546001600160a01b0319166001600160a01b0392909216919091179055565b6000806114e6858585611c11565b9050610d5481866001611c26565b60008160000361150657506000919050565b6000600161151384611c85565b901c6001901b9050600181848161152c5761152c6129c1565b048201901c90506001818481611544576115446129c1565b048201901c9050600181848161155c5761155c6129c1565b048201901c90506001818481611574576115746129c1565b048201901c9050600181848161158c5761158c6129c1565b048201901c905060018184816115a4576115a46129c1565b048201901c905060018184816115bc576115bc6129c1565b048201901c9050610c4f818285816115d6576115d66129c1565b04611d19565b60005b81831015610afa5760006115f38484611d2f565b60008781526020902090915065ffffffffffff86169082015465ffffffffffff16111561162257809250611630565b61162d8160016128f9565b93505b506115df565b600a5460ff166106af57604051638dfc202b60e01b815260040160405180910390fd5b600061048482610849565b816001600160a01b0316836001600160a01b0316141580156116865750600081115b156106cc576001600160a01b0383161561171c576001600160a01b0383166000908152600f6020526040812081906116c990611d4a6116c486611d56565b611d8a565b6001600160d01b031691506001600160d01b03169150846001600160a01b0316600080516020612a6d8339815191528383604051611711929190918252602082015260400190565b60405180910390a250505b6001600160a01b038216156106cc576001600160a01b0382166000908152600f60205260408120819061175590611dc36116c486611d56565b6001600160d01b031691506001600160d01b03169150836001600160a01b0316600080516020612a6d833981519152838360405161179d929190918252602082015260400190565b60405180910390a25050505050565b600a5460ff16156106af5760405163d93c066560e01b815260040160405180910390fd5b606060ff83146117ea576117e383611dcf565b9050610484565b8180546117f690612864565b80601f016020809104026020016040519081016040528092919081815260200182805461182290612864565b801561186f5780601f106118445761010080835404028352916020019161186f565b820191906000526020600020905b81548152906001019060200180831161185257829003601f168201915b50505050509050610484565b6118858383611e0e565b6106cc6000848484611127565b6000306001600160a01b037f0000000000000000000000000000000000000000000000000000000000000000161480156118eb57507f000000000000000000000000000000000000000000000000000000000000000046145b1561191557507f000000000000000000000000000000000000000000000000000000000000000090565b610974604080517f8b73c3c69bb8fe3d512ecc4cf759cc79239f7b179b0ffacaa9a75d522b39400f60208201527f0000000000000000000000000000000000000000000000000000000000000000918101919091527f000000000000000000000000000000000000000000000000000000000000000060608201524660808201523060a082015260009060c00160405160208183030381529060405280519060200120905090565b600080806fa2a8918ca85bafe22016d0b997e4df60600160ff1b038411156119ee5750600091506003905082611a78565b604080516000808252602082018084528a905260ff891692820192909252606081018790526080810186905260019060a0016020604051602081039080840390855afa158015611a42573d6000803e3d6000fd5b5050604051601f1901519150506001600160a01b038116611a6e57506000925060019150829050611a78565b9250600091508190505b9450945094915050565b6000826003811115611a9657611a966129d7565b03611a9f575050565b6001826003811115611ab357611ab36129d7565b03611ad15760405163f645eedf60e01b815260040160405180910390fd5b6002826003811115611ae557611ae56129d7565b03611b065760405163fce698f760e01b81526004810182905260240161056a565b6003826003811115611b1a57611b1a6129d7565b0361053c576040516335e2f38360e21b81526004810182905260240161056a565b60008072184f03e93ff9f4daa797ed6e38ed64bf6a1f0160401b8310611b7a5772184f03e93ff9f4daa797ed6e38ed64bf6a1f0160401b830492506040015b6904ee2d6d415b85acef8160201b8310611ba4576904ee2d6d415b85acef8160201b830492506020015b662386f26fc100008310611bc257662386f26fc10000830492506010015b6305f5e1008310611bda576305f5e100830492506008015b6127108310611bee57612710830492506004015b60648310611c00576064830492506002015b600a83106104845760010192915050565b6000611c1b6117ac565b610d54848484611e73565b6001600160a01b038316611c4857611c456010611dc36116c484611d56565b50505b6001600160a01b038216611c6a57611c676010611d4a6116c484611d56565b50505b6106cc611c76846107a9565b611c7f846107a9565b83611664565b600080608083901c15611c9a57608092831c92015b604083901c15611cac57604092831c92015b602083901c15611cbe57602092831c92015b601083901c15611cd057601092831c92015b600883901c15611ce257600892831c92015b600483901c15611cf457600492831c92015b600283901c15611d0657600292831c92015b600183901c156104845760010192915050565b6000818310611d285781610c4f565b5090919050565b6000611d3e60028484186129ed565b610c4f908484166128f9565b6000610c4f8284612a0f565b60006001600160d01b03821115610d8f576040516306dfcc6560e41b815260d060048201526024810183905260440161056a565b600080611db6611d9861096a565b611dae611da48861103e565b868863ffffffff16565b879190611f40565b915091505b935093915050565b6000610c4f8284612a36565b60606000611ddc83611f4e565b604080516020808252818301909252919250600091906020820181803683375050509182525060208101929092525090565b6001600160a01b038216611e38576000604051633250574960e11b815260040161056a9190612535565b6000611e4683836000610d47565b90506001600160a01b038116156106cc5760006040516339e3563760e11b815260040161056a9190612535565b600080611e81858585611f76565b90506001600160a01b038116611ede57611ed984600880546000838152600960205260408120829055600182018355919091527ff3f7a9fe364faab93b216da50a3214154f22a0a2b415b23a84c8169e8b636ee30155565b611f01565b846001600160a01b0316816001600160a01b031614611f0157611f01818561206a565b6001600160a01b038516611f1d57611f18846120fb565b610d54565b846001600160a01b0316816001600160a01b031614610d5457610d5485856121aa565b600080611db68585856121fa565b600060ff8216601f81111561048457604051632cd44ac360e21b815260040160405180910390fd5b600080611f82846113c0565b90506001600160a01b03831615611f9e57611f9e818486612374565b6001600160a01b03811615611fdc57611fbb6000856000806113db565b6001600160a01b038116600090815260036020526040902080546000190190555b6001600160a01b0385161561200b576001600160a01b0385166000908152600360205260409020805460010190555b60008481526002602052604080822080546001600160a01b0319166001600160a01b0389811691821790925591518793918516917fddf252ad1be2c89b69c2b068fc378daa952ba7f163c4a11628f55a4df523b3ef91a4949350505050565b600061207583610849565b6000838152600760205260409020549091508082146120c8576001600160a01b03841660009081526006602090815260408083208584528252808320548484528184208190558352600790915290208190555b5060009182526007602090815260408084208490556001600160a01b039094168352600681528383209183525290812055565b60085460009061210d90600190612954565b60008381526009602052604081205460088054939450909284908110612135576121356128cd565b906000526020600020015490508060088381548110612156576121566128cd565b600091825260208083209091019290925582815260099091526040808220849055858252812055600880548061218e5761218e612a56565b6001900381819060005260206000200160009055905550505050565b600060016121b784610849565b6121c19190612954565b6001600160a01b039093166000908152600660209081526040808320868452825280832085905593825260079052919091209190915550565b82546000908190801561231957600061221887610e17600185612954565b60408051808201909152905465ffffffffffff808216808452600160301b9092046001600160d01b03166020840152919250908716101561226c57604051632520601d60e01b815260040160405180910390fd5b805165ffffffffffff8088169116036122b8578461228f88610e17600186612954565b80546001600160d01b0392909216600160301b0265ffffffffffff909216919091179055612309565b6040805180820190915265ffffffffffff80881682526001600160d01b0380881660208085019182528b54600181018d5560008d81529190912094519151909216600160301b029216919091179101555b602001519250839150611dbb9050565b50506040805180820190915265ffffffffffff80851682526001600160d01b0380851660208085019182528854600181018a5560008a815291822095519251909316600160301b029190931617920191909155905081611dbb565b61237f8383836123ca565b6106cc576001600160a01b0383166123ad57604051637e27328960e01b81526004810182905260240161056a565b818160405163177e802f60e01b815260040161056a92919061289e565b60006001600160a01b03831615801590610d545750826001600160a01b0316846001600160a01b0316148061240457506124048484610c56565b80610d545750826001600160a01b031661241d83610d1f565b6001600160a01b031614949350505050565b82805482825590600052602060002090810192821561246a579160200282015b8281111561246a57825182559160200191906001019061244f565b50610d8f9291505b80821115610d8f5760008155600101612472565b6001600160e01b031981168114610cbf57600080fd5b6000602082840312156124ae57600080fd5b8135610c4f81612486565b60005b838110156124d45781810151838201526020016124bc565b50506000910152565b600081518084526124f58160208601602086016124b9565b601f01601f19169290920160200192915050565b602081526000610c4f60208301846124dd565b60006020828403121561252e57600080fd5b5035919050565b6001600160a01b0391909116815260200190565b80356001600160a01b038116811461256057600080fd5b919050565b6000806040838503121561257857600080fd5b61258183612549565b946020939093013593505050565b6000806000606084860312156125a457600080fd5b6125ad84612549565b92506125bb60208501612549565b9150604084013590509250925092565b6000602082840312156125dd57600080fd5b610c4f82612549565b600081518084526020808501945080840160005b83811015612616578151875295820195908201906001016125fa565b509495945050505050565b602081526000610c4f60208301846125e6565b60ff60f81b8816815260e06020820152600061265360e08301896124dd565b828103604084015261266581896124dd565b606084018890526001600160a01b038716608085015260a0840186905283810360c0850152905061269681856125e6565b9a9950505050505050505050565b600080604083850312156126b757600080fd5b6126c083612549565b9150602083013580151581146126d557600080fd5b809150509250929050565b634e487b7160e01b600052604160045260246000fd5b6000806000806080858703121561270c57600080fd5b61271585612549565b935061272360208601612549565b92506040850135915060608501356001600160401b038082111561274657600080fd5b818701915087601f83011261275a57600080fd5b81358181111561276c5761276c6126e0565b604051601f8201601f19908116603f01168101908382118183101715612794576127946126e0565b816040528281528a60208487010111156127ad57600080fd5b82602086016020830137600060208483010152809550505050505092959194509250565b60008060008060008060c087890312156127ea57600080fd5b6127f387612549565b95506020870135945060408701359350606087013560ff8116811461281757600080fd5b9598949750929560808101359460a0909101359350915050565b6000806040838503121561284457600080fd5b61284d83612549565b915061285b60208401612549565b90509250929050565b600181811c9082168061287857607f821691505b60208210810361289857634e487b7160e01b600052602260045260246000fd5b50919050565b6001600160a01b03929092168252602082015260400190565b91825265ffffffffffff16602082015260400190565b634e487b7160e01b600052603260045260246000fd5b634e487b7160e01b600052601160045260246000fd5b80820180821115610484576104846128e3565b60006001820161291e5761291e6128e3565b5060010190565b600083516129378184602088016124b9565b83519083019061294b8183602088016124b9565b01949350505050565b81810381811115610484576104846128e3565b6001600160a01b038581168252841660208201526040810183905260806060820181905260009061299a908301846124dd565b9695505050505050565b6000602082840312156129b657600080fd5b8151610c4f81612486565b634e487b7160e01b600052601260045260246000fd5b634e487b7160e01b600052602160045260246000fd5b600082612a0a57634e487b7160e01b600052601260045260246000fd5b500490565b6001600160d01b03828116828216039080821115612a2f57612a2f6128e3565b5092915050565b6001600160d01b03818116838216019080821115612a2f57612a2f6128e3565b634e487b7160e01b600052603160045260246000fdfedec2bacdd2f05b59de34da9b523dff8be42e5e38e818c82fdb0bae774387a724a264697066735822122001b59053f46091202fb3e7bc4eb44afdea0b816d92c4d9895211c0e2b9d0244364736f6c63430008140033a26469706673582212209f901d055f369f69f87bb8fda5420168cb07c3eb83ca948d132a48025e43acf164736f6c63430008140033",
  "linkReferences": {},
  "deployedLinkReferences": {}
}