{
  "_format": "hh-sol-artifact-1",
  "contractName": "Crowdfunding",
  "sourceName": "contracts/Crowdfunding.sol",
  "abi": [
    {
      "anonymous": false,
      "inputs": [
        {
          "indexed": false,
          "internalType": "uint256",
          "name": "_id",
          "type": "uint256"
        }
      ],
      "name": "Cancel",
      "type": "event"
    },
    {
      "anonymous": false,
      "inputs": [
        {
          "indexed": true,
          "internalType": "uint256",
          "name": "_id",
          "type": "uint256"
        },
        {
          "indexed": true,
          "internalType": "address",
          "name": "_funder",
          "type": "address"
        },
        {
          "indexed": false,
          "internalType": "uint256",
          "name": "_amount",
          "type": "uint256"
        }
      ],
      "name": "Fund",
      "type": "event"
    },
    {
      "anonymous": false,
      "inputs": [
        {
          "indexed": true,
          "internalType": "uint256",
          "name": "_id",
          "type": "uint256"
        },
        {
          "indexed": false,
          "internalType": "address",
          "name": "_funder",
          "type": "address"
        },
        {
          "indexed": false,
          "internalType": "uint256",
          "name": "_amount",
          "type": "uint256"
        }
      ],
      "name": "FunderWithdraw",
      "type": "event"
    },
    {
      "anonymous": false,
      "inputs": [
        {
          "indexed": false,
          "internalType": "uint256",
          "name": "_id",
          "type": "uint256"
        },
        {
          "indexed": false,
          "internalType": "string",
          "name": "_projectName",
          "type": "string"
        },
        {
          "indexed": true,
          "internalType": "address",
          "name": "_owner",
          "type": "address"
        },
        {
          "indexed": false,
          "internalType": "uint256",
          "name": "_targetFund",
          "type": "uint256"
        },
        {
          "indexed": false,
          "internalType": "uint256",
          "name": "_startAt",
          "type": "uint256"
        },
        {
          "indexed": false,
          "internalType": "uint256",
          "name": "_endAt",
          "type": "uint256"
        }
      ],
      "name": "Launch",
      "type": "event"
    },
    {
      "anonymous": false,
      "inputs": [
        {
          "indexed": false,
          "internalType": "uint256",
          "name": "_id",
          "type": "uint256"
        }
      ],
      "name": "OwnerWithdraw",
      "type": "event"
    },
    {
      "anonymous": false,
      "inputs": [
        {
          "indexed": false,
          "internalType": "uint256",
          "name": "_id",
          "type": "uint256"
        },
        {
          "indexed": true,
          "internalType": "address",
          "name": "_funder",
          "type": "address"
        },
        {
          "indexed": false,
          "internalType": "uint256",
          "name": "_amount",
          "type": "uint256"
        }
      ],
      "name": "Refund",
      "type": "event"
    },
    {
      "stateMutability": "payable",
      "type": "fallback"
    },
    {
      "inputs": [
        {
          "internalType": "uint256",
          "name": "_id",
          "type": "uint256"
        }
      ],
      "name": "cancel",
      "outputs": [],
      "stateMutability": "nonpayable",
      "type": "function"
    },
    {
      "inputs": [
        {
          "internalType": "uint256",
          "name": "_id",
          "type": "uint256"
        }
      ],
      "name": "fund",
      "outputs": [],
      "stateMutability": "payable",
      "type": "function"
    },
    {
      "inputs": [
        {
          "internalType": "uint256",
          "name": "projectId",
          "type": "uint256"
        }
      ],
      "name": "getDeadline",
      "outputs": [
        {
          "internalType": "uint256",
          "name": "",
          "type": "uint256"
        }
      ],
      "stateMutability": "view",
      "type": "function"
    },
    {
      "inputs": [
        {
          "internalType": "uint256",
          "name": "projectId",
          "type": "uint256"
        }
      ],
      "name": "getMyFund",
      "outputs": [
        {
          "internalType": "uint256",
          "name": "",
          "type": "uint256"
        }
      ],
      "stateMutability": "view",
      "type": "function"
    },
    {
      "inputs": [
        {
          "internalType": "uint256",
          "name": "projectId",
          "type": "uint256"
        }
      ],
      "name": "getRaisedFund",
      "outputs": [
        {
          "internalType": "uint256",
          "name": "",
          "type": "uint256"
        }
      ],
      "stateMutability": "view",
      "type": "function"
    },
    {
      "inputs": [
        {
          "internalType": "uint256",
          "name": "projectId",
          "type": "uint256"
        }
      ],
      "name": "isSuccess",
      "outputs": [
        {
          "internalType": "bool",
          "name": "",
          "type": "bool"
        }
      ],
      "stateMutability": "view",
      "type": "function"
    },
    {
      "inputs": [
        {
          "internalType": "string",
          "name": "_projectName",
          "type": "string"
        },
        {
          "internalType": "uint256",
          "name": "_targetFund",
          "type": "uint256"
        },
        {
          "internalType": "uint256",
          "name": "_startAt",
          "type": "uint256"
        },
        {
          "internalType": "uint256",
          "name": "_endAt",
          "type": "uint256"
        }
      ],
      "name": "launch",
      "outputs": [],
      "stateMutability": "nonpayable",
      "type": "function"
    },
    {
      "inputs": [],
      "name": "projectCount",
      "outputs": [
        {
          "internalType": "uint256",
          "name": "",
          "type": "uint256"
        }
      ],
      "stateMutability": "view",
      "type": "function"
    },
    {
      "inputs": [
        {
          "internalType": "uint256",
          "name": "",
          "type": "uint256"
        }
      ],
      "name": "projects",
      "outputs": [
        {
          "internalType": "address",
          "name": "owner",
          "type": "address"
        },
        {
          "internalType": "uint256",
          "name": "targetFund",
          "type": "uint256"
        },
        {
          "internalType": "uint256",
          "name": "raisedFund",
          "type": "uint256"
        },
        {
          "internalType": "uint256",
          "name": "endAt",
          "type": "uint256"
        },
        {
          "internalType": "uint256",
          "name": "startAt",
          "type": "uint256"
        },
        {
          "internalType": "bool",
          "name": "ownerWithdrawn",
          "type": "bool"
        },
        {
          "internalType": "string",
          "name": "projectName",
          "type": "string"
        }
      ],
      "stateMutability": "view",
      "type": "function"
    },
    {
      "inputs": [
        {
          "internalType": "uint256",
          "name": "_id",
          "type": "uint256"
        }
      ],
      "name": "refund",
      "outputs": [],
      "stateMutability": "nonpayable",
      "type": "function"
    },
    {
      "inputs": [
        {
          "internalType": "uint256",
          "name": "_id",
          "type": "uint256"
        }
      ],
      "name": "withdrawFunder",
      "outputs": [],
      "stateMutability": "nonpayable",
      "type": "function"
    },
    {
      "inputs": [
        {
          "internalType": "uint256",
          "name": "_id",
          "type": "uint256"
        }
      ],
      "name": "withdrawOwner",
      "outputs": [],
      "stateMutability": "nonpayable",
      "type": "function"
    },
    {
      "stateMutability": "payable",
      "type": "receive"
    }
  ],
  "bytecode": "0x60806040526000805534801561001457600080fd5b50612559806100246000396000f3fe6080604052600436106100ab5760003560e01c80635ca30c2c116100645780635ca30c2c146101da5780636ef98b2114610217578063736fefb014610240578063828622751461027d578063ca1d209d146102ba578063ce5170ca146102d6576100b2565b8063107046bd146100b45780632451a899146100f7578063278ecde1146101345780632d53a11e1461015d57806336fbad261461018657806340e58ee5146101b1576100b2565b366100b257005b005b3480156100c057600080fd5b506100db60048036038101906100d691906114be565b6102ff565b6040516100ee97969594939291906115e6565b60405180910390f35b34801561010357600080fd5b5061011e600480360381019061011991906114be565b6103f6565b60405161012b919061165c565b60405180910390f35b34801561014057600080fd5b5061015b600480360381019061015691906114be565b61042f565b005b34801561016957600080fd5b50610184600480360381019061017f91906114be565b61074b565b005b34801561019257600080fd5b5061019b610a08565b6040516101a89190611677565b60405180910390f35b3480156101bd57600080fd5b506101d860048036038101906101d391906114be565b610a0e565b005b3480156101e657600080fd5b5061020160048036038101906101fc91906114be565b610c00565b60405161020e9190611677565b60405180910390f35b34801561022357600080fd5b5061023e600480360381019061023991906114be565b610c20565b005b34801561024c57600080fd5b50610267600480360381019061026291906114be565b610efc565b6040516102749190611677565b60405180910390f35b34801561028957600080fd5b506102a4600480360381019061029f91906114be565b610f59565b6040516102b19190611677565b60405180910390f35b6102d460048036038101906102cf91906114be565b610f79565b005b3480156102e257600080fd5b506102fd60048036038101906102f891906117c7565b6111d8565b005b60016020528060005260406000206000915090508060000160009054906101000a900473ffffffffffffffffffffffffffffffffffffffff16908060010154908060020154908060030154908060040154908060050160009054906101000a900460ff169080600701805461037390611879565b80601f016020809104026020016040519081016040528092919081815260200182805461039f90611879565b80156103ec5780601f106103c1576101008083540402835291602001916103ec565b820191906000526020600020905b8154815290600101906020018083116103cf57829003601f168201915b5050505050905087565b60006001600083815260200190815260200160002060010154600160008481526020019081526020016000206002015410159050919050565b6000600160008381526020019081526020016000209050600081600401540361048d576040517f08c379a0000000000000000000000000000000000000000000000000000000008152600401610484906118f6565b60405180910390fd5b806003015442116104d3576040517f08c379a00000000000000000000000000000000000000000000000000000000081526004016104ca90611962565b60405180910390fd5b60008160060160003373ffffffffffffffffffffffffffffffffffffffff1673ffffffffffffffffffffffffffffffffffffffff1681526020019081526020016000205411610557576040517f08c379a000000000000000000000000000000000000000000000000000000000815260040161054e906119ce565b60405180910390fd5b80600101548160020154106105a1576040517f08c379a000000000000000000000000000000000000000000000000000000000815260040161059890611a3a565b60405180910390fd5b60008160060160003373ffffffffffffffffffffffffffffffffffffffff1673ffffffffffffffffffffffffffffffffffffffff16815260200190815260200160002054905060003373ffffffffffffffffffffffffffffffffffffffff168260405161060d90611a8b565b60006040518083038185875af1925050503d806000811461064a576040519150601f19603f3d011682016040523d82523d6000602084013e61064f565b606091505b5050905080610693576040517f08c379a000000000000000000000000000000000000000000000000000000000815260040161068a90611aec565b60405180910390fd5b818360020160008282546106a79190611b3b565b9250508190555060008360060160003373ffffffffffffffffffffffffffffffffffffffff1673ffffffffffffffffffffffffffffffffffffffff168152602001908152602001600020819055503373ffffffffffffffffffffffffffffffffffffffff167f21e12a7cad0da5928167e1084ea4d5fdf8d9af66657a2543a9ac76a0ca081477858460405161073d929190611b6f565b60405180910390a250505050565b600060016000838152602001908152602001600020905060008160040154036107a9576040517f08c379a00000000000000000000000000000000000000000000000000000000081526004016107a0906118f6565b60405180910390fd5b80600301544211156107f0576040517f08c379a00000000000000000000000000000000000000000000000000000000081526004016107e790611be4565b60405180910390fd5b60008160060160003373ffffffffffffffffffffffffffffffffffffffff1673ffffffffffffffffffffffffffffffffffffffff1681526020019081526020016000205411610874576040517f08c379a000000000000000000000000000000000000000000000000000000000815260040161086b906119ce565b60405180910390fd5b60008160060160003373ffffffffffffffffffffffffffffffffffffffff1673ffffffffffffffffffffffffffffffffffffffff16815260200190815260200160002054905060003373ffffffffffffffffffffffffffffffffffffffff16826040516108e090611a8b565b60006040518083038185875af1925050503d806000811461091d576040519150601f19603f3d011682016040523d82523d6000602084013e610922565b606091505b5050905080610966576040517f08c379a000000000000000000000000000000000000000000000000000000000815260040161095d90611aec565b60405180910390fd5b8183600201600082825461097a9190611b3b565b9250508190555060008360060160003373ffffffffffffffffffffffffffffffffffffffff1673ffffffffffffffffffffffffffffffffffffffff16815260200190815260200160002081905550837f963787f23890b4153326475e5d4378e357834353b2296cf5122d3dd172bc801633846040516109fa929190611c04565b60405180910390a250505050565b60005481565b60006001600083815260200190815260200160002090506000816004015403610a6c576040517f08c379a0000000000000000000000000000000000000000000000000000000008152600401610a63906118f6565b60405180910390fd5b3373ffffffffffffffffffffffffffffffffffffffff168160000160009054906101000a900473ffffffffffffffffffffffffffffffffffffffff1673ffffffffffffffffffffffffffffffffffffffff1614610afe576040517f08c379a0000000000000000000000000000000000000000000000000000000008152600401610af590611c79565b60405180910390fd5b80600401544210610b44576040517f08c379a0000000000000000000000000000000000000000000000000000000008152600401610b3b90611ce5565b60405180910390fd5b60016000838152602001908152602001600020600080820160006101000a81549073ffffffffffffffffffffffffffffffffffffffff021916905560018201600090556002820160009055600382016000905560048201600090556005820160006101000a81549060ff0219169055600782016000610bc39190611417565b50507f8bf30e7ff26833413be5f69e1d373744864d600b664204b4a2f9844a8eedb9ed82604051610bf49190611677565b60405180910390a15050565b600060016000838152602001908152602001600020600201549050919050565b60006001600083815260200190815260200160002090506000816004015403610c7e576040517f08c379a0000000000000000000000000000000000000000000000000000000008152600401610c75906118f6565b60405180910390fd5b8060000160009054906101000a900473ffffffffffffffffffffffffffffffffffffffff1673ffffffffffffffffffffffffffffffffffffffff163373ffffffffffffffffffffffffffffffffffffffff1614610d10576040517f08c379a0000000000000000000000000000000000000000000000000000000008152600401610d0790611d51565b60405180910390fd5b806001015481600201541015610d5b576040517f08c379a0000000000000000000000000000000000000000000000000000000008152600401610d5290611dbd565b60405180910390fd5b80600301544211610da1576040517f08c379a0000000000000000000000000000000000000000000000000000000008152600401610d9890611e29565b60405180910390fd5b8060050160009054906101000a900460ff1615610df3576040517f08c379a0000000000000000000000000000000000000000000000000000000008152600401610dea90611e95565b60405180910390fd5b60003373ffffffffffffffffffffffffffffffffffffffff168260020154604051610e1d90611a8b565b60006040518083038185875af1925050503d8060008114610e5a576040519150601f19603f3d011682016040523d82523d6000602084013e610e5f565b606091505b5050905080610ea3576040517f08c379a0000000000000000000000000000000000000000000000000000000008152600401610e9a90611f01565b60405180910390fd5b60018260050160006101000a81548160ff0219169083151502179055507fa20809e697380eaea0fd13bf4d14b00e2ef29559ef361501189d3be2e9b0ec8583604051610eef9190611677565b60405180910390a1505050565b60006001600083815260200190815260200160002060060160003373ffffffffffffffffffffffffffffffffffffffff1673ffffffffffffffffffffffffffffffffffffffff168152602001908152602001600020549050919050565b600060016000838152602001908152602001600020600301549050919050565b60006001600083815260200190815260200160002090506000816004015403610fd7576040517f08c379a0000000000000000000000000000000000000000000000000000000008152600401610fce906118f6565b60405180910390fd5b806004015442101561101e576040517f08c379a000000000000000000000000000000000000000000000000000000000815260040161101590611f6d565b60405180910390fd5b8060030154421115611065576040517f08c379a000000000000000000000000000000000000000000000000000000000815260040161105c90611be4565b60405180910390fd5b60003073ffffffffffffffffffffffffffffffffffffffff163460405161108b90611a8b565b60006040518083038185875af1925050503d80600081146110c8576040519150601f19603f3d011682016040523d82523d6000602084013e6110cd565b606091505b5050905080611111576040517f08c379a000000000000000000000000000000000000000000000000000000000815260040161110890611fff565b60405180910390fd5b34826002016000828254611125919061201f565b92505081905550348260060160003373ffffffffffffffffffffffffffffffffffffffff1673ffffffffffffffffffffffffffffffffffffffff168152602001908152602001600020600082825461117d919061201f565b925050819055503373ffffffffffffffffffffffffffffffffffffffff16837f4885b409da2ec1d52c2afe69b0a66b5a3547747b607647660417a2b0378bff40346040516111cb9190611677565b60405180910390a3505050565b4282101561121b576040517f08c379a00000000000000000000000000000000000000000000000000000000081526004016112129061209f565b60405180910390fd5b81811161125d576040517f08c379a00000000000000000000000000000000000000000000000000000000081526004016112549061210b565b60405180910390fd5b6303c267004261126d919061201f565b8111156112af576040517f08c379a00000000000000000000000000000000000000000000000000000000081526004016112a690612177565b60405180910390fd5b600083116112f2576040517f08c379a00000000000000000000000000000000000000000000000000000000081526004016112e9906121e3565b60405180910390fd5b60008081548092919061130490612203565b9190505550600060016000805481526020019081526020016000209050338160000160006101000a81548173ffffffffffffffffffffffffffffffffffffffff021916908373ffffffffffffffffffffffffffffffffffffffff160217905550838160010181905550600081600201819055508181600301819055508281600401819055508481600701908161139a91906123f7565b5060008160050160006101000a81548160ff0219169083151502179055503373ffffffffffffffffffffffffffffffffffffffff167fdf16a43b35bfd00b96b1b63cb01ca3d0d459dcd01a9b9d93aaa3f389ae2d05f4600054878787876040516114089594939291906124c9565b60405180910390a25050505050565b50805461142390611879565b6000825580601f106114355750611454565b601f0160209004906000526020600020908101906114539190611457565b5b50565b5b80821115611470576000816000905550600101611458565b5090565b6000604051905090565b600080fd5b600080fd5b6000819050919050565b61149b81611488565b81146114a657600080fd5b50565b6000813590506114b881611492565b92915050565b6000602082840312156114d4576114d361147e565b5b60006114e2848285016114a9565b91505092915050565b600073ffffffffffffffffffffffffffffffffffffffff82169050919050565b6000611516826114eb565b9050919050565b6115268161150b565b82525050565b61153581611488565b82525050565b60008115159050919050565b6115508161153b565b82525050565b600081519050919050565b600082825260208201905092915050565b60005b83811015611590578082015181840152602081019050611575565b60008484015250505050565b6000601f19601f8301169050919050565b60006115b882611556565b6115c28185611561565b93506115d2818560208601611572565b6115db8161159c565b840191505092915050565b600060e0820190506115fb600083018a61151d565b611608602083018961152c565b611615604083018861152c565b611622606083018761152c565b61162f608083018661152c565b61163c60a0830185611547565b81810360c083015261164e81846115ad565b905098975050505050505050565b60006020820190506116716000830184611547565b92915050565b600060208201905061168c600083018461152c565b92915050565b600080fd5b600080fd5b7f4e487b7100000000000000000000000000000000000000000000000000000000600052604160045260246000fd5b6116d48261159c565b810181811067ffffffffffffffff821117156116f3576116f261169c565b5b80604052505050565b6000611706611474565b905061171282826116cb565b919050565b600067ffffffffffffffff8211156117325761173161169c565b5b61173b8261159c565b9050602081019050919050565b82818337600083830152505050565b600061176a61176584611717565b6116fc565b90508281526020810184848401111561178657611785611697565b5b611791848285611748565b509392505050565b600082601f8301126117ae576117ad611692565b5b81356117be848260208601611757565b91505092915050565b600080600080608085870312156117e1576117e061147e565b5b600085013567ffffffffffffffff8111156117ff576117fe611483565b5b61180b87828801611799565b945050602061181c878288016114a9565b935050604061182d878288016114a9565b925050606061183e878288016114a9565b91505092959194509250565b7f4e487b7100000000000000000000000000000000000000000000000000000000600052602260045260246000fd5b6000600282049050600182168061189157607f821691505b6020821081036118a4576118a361184a565b5b50919050565b7f50726f6a656374206e6f74206578697374730000000000000000000000000000600082015250565b60006118e0601283611561565b91506118eb826118aa565b602082019050919050565b6000602082019050818103600083015261190f816118d3565b9050919050565b7f6e6f7420656e6421000000000000000000000000000000000000000000000000600082015250565b600061194c600883611561565b915061195782611916565b602082019050919050565b6000602082019050818103600083015261197b8161193f565b9050919050565b7f596f7520617265206e6f74206120636f6e7472696275746f7200000000000000600082015250565b60006119b8601983611561565b91506119c382611982565b602082019050919050565b600060208201905081810360008301526119e7816119ab565b9050919050565b7f72616973656446756e64203e2074617267657446756e64000000000000000000600082015250565b6000611a24601783611561565b9150611a2f826119ee565b602082019050919050565b60006020820190508181036000830152611a5381611a17565b9050919050565b600081905092915050565b50565b6000611a75600083611a5a565b9150611a8082611a65565b600082019050919050565b6000611a9682611a68565b9150819050919050565b7f756e61626c6520746f2073656e64210000000000000000000000000000000000600082015250565b6000611ad6600f83611561565b9150611ae182611aa0565b602082019050919050565b60006020820190508181036000830152611b0581611ac9565b9050919050565b7f4e487b7100000000000000000000000000000000000000000000000000000000600052601160045260246000fd5b6000611b4682611488565b9150611b5183611488565b9250828203905081811115611b6957611b68611b0c565b5b92915050565b6000604082019050611b84600083018561152c565b611b91602083018461152c565b9392505050565b7f456e646564000000000000000000000000000000000000000000000000000000600082015250565b6000611bce600583611561565b9150611bd982611b98565b602082019050919050565b60006020820190508181036000830152611bfd81611bc1565b9050919050565b6000604082019050611c19600083018561151d565b611c26602083018461152c565b9392505050565b7f6e6f742063726561746f72000000000000000000000000000000000000000000600082015250565b6000611c63600b83611561565b9150611c6e82611c2d565b602082019050919050565b60006020820190508181036000830152611c9281611c56565b9050919050565b7f7374617274656400000000000000000000000000000000000000000000000000600082015250565b6000611ccf600783611561565b9150611cda82611c99565b602082019050919050565b60006020820190508181036000830152611cfe81611cc2565b9050919050565b7f4e6f7420617574686f72697a6564210000000000000000000000000000000000600082015250565b6000611d3b600f83611561565b9150611d4682611d05565b602082019050919050565b60006020820190508181036000830152611d6a81611d2e565b9050919050565b7f4e6f74206d656574207461726765740000000000000000000000000000000000600082015250565b6000611da7600f83611561565b9150611db282611d71565b602082019050919050565b60006020820190508181036000830152611dd681611d9a565b9050919050565b7f6e6f7420656e6465640000000000000000000000000000000000000000000000600082015250565b6000611e13600983611561565b9150611e1e82611ddd565b602082019050919050565b60006020820190508181036000830152611e4281611e06565b9050919050565b7f4f776e657220616c72656164792077697468647261776e000000000000000000600082015250565b6000611e7f601783611561565b9150611e8a82611e49565b602082019050919050565b60006020820190508181036000830152611eae81611e72565b9050919050565b7f756e61626c6520746f207472616e736665722066756e6420746f206f776e6572600082015250565b6000611eeb602083611561565b9150611ef682611eb5565b602082019050919050565b60006020820190508181036000830152611f1a81611ede565b9050919050565b7f4e6f742073746172746564207965740000000000000000000000000000000000600082015250565b6000611f57600f83611561565b9150611f6282611f21565b602082019050919050565b60006020820190508181036000830152611f8681611f4a565b9050919050565b7f556e61626c6520746f207472616e736665722066756e647320746f207468652060008201527f636f6e74726163742e0000000000000000000000000000000000000000000000602082015250565b6000611fe9602983611561565b9150611ff482611f8d565b604082019050919050565b6000602082019050818103600083015261201881611fdc565b9050919050565b600061202a82611488565b915061203583611488565b925082820190508082111561204d5761204c611b0c565b5b92915050565b7f7374617274206174203c206e6f77000000000000000000000000000000000000600082015250565b6000612089600e83611561565b915061209482612053565b602082019050919050565b600060208201905081810360008301526120b88161207c565b9050919050565b7f656e64206174203c3d2073746172742061740000000000000000000000000000600082015250565b60006120f5601283611561565b9150612100826120bf565b602082019050919050565b60006020820190508181036000830152612124816120e8565b9050919050565b7f656e64206174203e206d6178206475726174696f6e2028322079656172732900600082015250565b6000612161601f83611561565b915061216c8261212b565b602082019050919050565b6000602082019050818103600083015261219081612154565b9050919050565b7f74617267657446756e64203c3d20300000000000000000000000000000000000600082015250565b60006121cd600f83611561565b91506121d882612197565b602082019050919050565b600060208201905081810360008301526121fc816121c0565b9050919050565b600061220e82611488565b91507fffffffffffffffffffffffffffffffffffffffffffffffffffffffffffffffff82036122405761223f611b0c565b5b600182019050919050565b60008190508160005260206000209050919050565b60006020601f8301049050919050565b600082821b905092915050565b6000600883026122ad7fffffffffffffffffffffffffffffffffffffffffffffffffffffffffffffffff82612270565b6122b78683612270565b95508019841693508086168417925050509392505050565b6000819050919050565b60006122f46122ef6122ea84611488565b6122cf565b611488565b9050919050565b6000819050919050565b61230e836122d9565b61232261231a826122fb565b84845461227d565b825550505050565b600090565b61233761232a565b612342818484612305565b505050565b5b818110156123665761235b60008261232f565b600181019050612348565b5050565b601f8211156123ab5761237c8161224b565b61238584612260565b81016020851015612394578190505b6123a86123a085612260565b830182612347565b50505b505050565b600082821c905092915050565b60006123ce600019846008026123b0565b1980831691505092915050565b60006123e783836123bd565b9150826002028217905092915050565b61240082611556565b67ffffffffffffffff8111156124195761241861169c565b5b6124238254611879565b61242e82828561236a565b600060209050601f831160018114612461576000841561244f578287015190505b61245985826123db565b8655506124c1565b601f19841661246f8661224b565b60005b8281101561249757848901518255600182019150602085019450602081019050612472565b868310156124b457848901516124b0601f8916826123bd565b8355505b6001600288020188555050505b505050505050565b600060a0820190506124de600083018861152c565b81810360208301526124f081876115ad565b90506124ff604083018661152c565b61250c606083018561152c565b612519608083018461152c565b969550505050505056fea26469706673582212203481492672b18f51ab5b3c68c41da457112b40dab9ca1b7e61e77c08f837621d64736f6c63430008140033",
  "linkReferences": {},
  "deployedLinkReferences": {}
}