{
  "_format": "hh-sol-artifact-1",
  "contractName": "Crowdfunding",
  "sourceName": "contracts/Crowdfunding.sol",
  "abi": [
    {
      "anonymous": false,
      "inputs": [
        {
          "indexed": false,
          "internalType": "uint256",
          "name": "_id",
          "type": "uint256"
        }
      ],
      "name": "Cancel",
      "type": "event"
    },
    {
      "anonymous": false,
      "inputs": [
        {
          "indexed": true,
          "internalType": "uint256",
          "name": "_id",
          "type": "uint256"
        },
        {
          "indexed": true,
          "internalType": "address",
          "name": "_funder",
          "type": "address"
        },
        {
          "indexed": false,
          "internalType": "uint256",
          "name": "_amount",
          "type": "uint256"
        }
      ],
      "name": "Fund",
      "type": "event"
    },
    {
      "anonymous": false,
      "inputs": [
        {
          "indexed": true,
          "internalType": "uint256",
          "name": "_id",
          "type": "uint256"
        },
        {
          "indexed": false,
          "internalType": "address",
          "name": "_funder",
          "type": "address"
        },
        {
          "indexed": false,
          "internalType": "uint256",
          "name": "_amount",
          "type": "uint256"
        }
      ],
      "name": "FunderWithdraw",
      "type": "event"
    },
    {
      "anonymous": false,
      "inputs": [
        {
          "indexed": false,
          "internalType": "uint256",
          "name": "_id",
          "type": "uint256"
        },
        {
          "indexed": false,
          "internalType": "string",
          "name": "_projectName",
          "type": "string"
        },
        {
          "indexed": true,
          "internalType": "address",
          "name": "_owner",
          "type": "address"
        },
        {
          "indexed": false,
          "internalType": "uint256",
          "name": "_targetFund",
          "type": "uint256"
        },
        {
          "indexed": false,
          "internalType": "uint256",
          "name": "_startAt",
          "type": "uint256"
        },
        {
          "indexed": false,
          "internalType": "uint256",
          "name": "_endAt",
          "type": "uint256"
        }
      ],
      "name": "Launch",
      "type": "event"
    },
    {
      "anonymous": false,
      "inputs": [
        {
          "indexed": false,
          "internalType": "uint256",
          "name": "_id",
          "type": "uint256"
        }
      ],
      "name": "OwnerWithdraw",
      "type": "event"
    },
    {
      "anonymous": false,
      "inputs": [
        {
          "indexed": false,
          "internalType": "uint256",
          "name": "_id",
          "type": "uint256"
        },
        {
          "indexed": true,
          "internalType": "address",
          "name": "_funder",
          "type": "address"
        },
        {
          "indexed": false,
          "internalType": "uint256",
          "name": "_amount",
          "type": "uint256"
        }
      ],
      "name": "Refund",
      "type": "event"
    },
    {
      "stateMutability": "payable",
      "type": "fallback"
    },
    {
      "inputs": [
        {
          "internalType": "uint256",
          "name": "_id",
          "type": "uint256"
        }
      ],
      "name": "cancel",
      "outputs": [],
      "stateMutability": "nonpayable",
      "type": "function"
    },
    {
      "inputs": [
        {
          "internalType": "uint256",
          "name": "_id",
          "type": "uint256"
        }
      ],
      "name": "fund",
      "outputs": [],
      "stateMutability": "payable",
      "type": "function"
    },
    {
      "inputs": [
        {
          "internalType": "uint256",
          "name": "projectId",
          "type": "uint256"
        }
      ],
      "name": "getDeadline",
      "outputs": [
        {
          "internalType": "uint256",
          "name": "",
          "type": "uint256"
        }
      ],
      "stateMutability": "view",
      "type": "function"
    },
    {
      "inputs": [
        {
          "internalType": "uint256",
          "name": "projectId",
          "type": "uint256"
        }
      ],
      "name": "getMyFund",
      "outputs": [
        {
          "internalType": "uint256",
          "name": "",
          "type": "uint256"
        }
      ],
      "stateMutability": "view",
      "type": "function"
    },
    {
      "inputs": [
        {
          "internalType": "uint256",
          "name": "projectId",
          "type": "uint256"
        }
      ],
      "name": "getRaisedFund",
      "outputs": [
        {
          "internalType": "uint256",
          "name": "",
          "type": "uint256"
        }
      ],
      "stateMutability": "view",
      "type": "function"
    },
    {
      "inputs": [
        {
          "internalType": "uint256",
          "name": "projectId",
          "type": "uint256"
        }
      ],
      "name": "isSuccess",
      "outputs": [
        {
          "internalType": "bool",
          "name": "",
          "type": "bool"
        }
      ],
      "stateMutability": "view",
      "type": "function"
    },
    {
      "inputs": [
        {
          "internalType": "string",
          "name": "_projectName",
          "type": "string"
        },
        {
          "internalType": "string",
          "name": "_description",
          "type": "string"
        },
        {
          "internalType": "uint256",
          "name": "_targetFund",
          "type": "uint256"
        },
        {
          "internalType": "uint256",
          "name": "_startFromNow",
          "type": "uint256"
        },
        {
          "internalType": "uint256",
          "name": "_duration",
          "type": "uint256"
        }
      ],
      "name": "launch",
      "outputs": [],
      "stateMutability": "nonpayable",
      "type": "function"
    },
    {
      "inputs": [],
      "name": "projectCount",
      "outputs": [
        {
          "internalType": "uint256",
          "name": "",
          "type": "uint256"
        }
      ],
      "stateMutability": "view",
      "type": "function"
    },
    {
      "inputs": [
        {
          "internalType": "uint256",
          "name": "",
          "type": "uint256"
        }
      ],
      "name": "projects",
      "outputs": [
        {
          "internalType": "address",
          "name": "owner",
          "type": "address"
        },
        {
          "internalType": "uint256",
          "name": "targetFund",
          "type": "uint256"
        },
        {
          "internalType": "uint256",
          "name": "raisedFund",
          "type": "uint256"
        },
        {
          "internalType": "uint256",
          "name": "endAt",
          "type": "uint256"
        },
        {
          "internalType": "uint256",
          "name": "startAt",
          "type": "uint256"
        },
        {
          "internalType": "bool",
          "name": "ownerWithdrawn",
          "type": "bool"
        },
        {
          "internalType": "string",
          "name": "projectName",
          "type": "string"
        },
        {
          "internalType": "string",
          "name": "description",
          "type": "string"
        }
      ],
      "stateMutability": "view",
      "type": "function"
    },
    {
      "inputs": [
        {
          "internalType": "uint256",
          "name": "_id",
          "type": "uint256"
        }
      ],
      "name": "refund",
      "outputs": [],
      "stateMutability": "nonpayable",
      "type": "function"
    },
    {
      "inputs": [
        {
          "internalType": "uint256",
          "name": "_id",
          "type": "uint256"
        }
      ],
      "name": "withdrawFunder",
      "outputs": [],
      "stateMutability": "nonpayable",
      "type": "function"
    },
    {
      "inputs": [
        {
          "internalType": "uint256",
          "name": "_id",
          "type": "uint256"
        }
      ],
      "name": "withdrawOwner",
      "outputs": [],
      "stateMutability": "nonpayable",
      "type": "function"
    },
    {
      "stateMutability": "payable",
      "type": "receive"
    }
  ],
  "bytecode": "0x60806040526000805534801561001457600080fd5b506127d2806100246000396000f3fe6080604052600436106100ab5760003560e01c80635ca30c2c116100645780635ca30c2c146101db5780636ef98b2114610218578063736fefb014610241578063828622751461027e5780639d439237146102bb578063ca1d209d146102e4576100b2565b8063107046bd146100b45780632451a899146100f8578063278ecde1146101355780632d53a11e1461015e57806336fbad261461018757806340e58ee5146101b2576100b2565b366100b257005b005b3480156100c057600080fd5b506100db60048036038101906100d69190611619565b610300565b6040516100ef989796959493929190611741565b60405180910390f35b34801561010457600080fd5b5061011f600480360381019061011a9190611619565b610485565b60405161012c91906117cd565b60405180910390f35b34801561014157600080fd5b5061015c60048036038101906101579190611619565b6104be565b005b34801561016a57600080fd5b5061018560048036038101906101809190611619565b6107da565b005b34801561019357600080fd5b5061019c610a97565b6040516101a991906117e8565b60405180910390f35b3480156101be57600080fd5b506101d960048036038101906101d49190611619565b610a9d565b005b3480156101e757600080fd5b5061020260048036038101906101fd9190611619565b610c9f565b60405161020f91906117e8565b60405180910390f35b34801561022457600080fd5b5061023f600480360381019061023a9190611619565b610cbf565b005b34801561024d57600080fd5b5061026860048036038101906102639190611619565b610f9b565b60405161027591906117e8565b60405180910390f35b34801561028a57600080fd5b506102a560048036038101906102a09190611619565b610ff8565b6040516102b291906117e8565b60405180910390f35b3480156102c757600080fd5b506102e260048036038101906102dd9190611938565b611018565b005b6102fe60048036038101906102f99190611619565b611313565b005b60016020528060005260406000206000915090508060000160009054906101000a900473ffffffffffffffffffffffffffffffffffffffff16908060010154908060020154908060030154908060040154908060050160009054906101000a900460ff169080600701805461037490611a1a565b80601f01602080910402602001604051908101604052809291908181526020018280546103a090611a1a565b80156103ed5780601f106103c2576101008083540402835291602001916103ed565b820191906000526020600020905b8154815290600101906020018083116103d057829003601f168201915b50505050509080600801805461040290611a1a565b80601f016020809104026020016040519081016040528092919081815260200182805461042e90611a1a565b801561047b5780601f106104505761010080835404028352916020019161047b565b820191906000526020600020905b81548152906001019060200180831161045e57829003601f168201915b5050505050905088565b60006001600083815260200190815260200160002060010154600160008481526020019081526020016000206002015410159050919050565b6000600160008381526020019081526020016000209050600081600401540361051c576040517f08c379a000000000000000000000000000000000000000000000000000000000815260040161051390611a97565b60405180910390fd5b80600301544211610562576040517f08c379a000000000000000000000000000000000000000000000000000000000815260040161055990611b03565b60405180910390fd5b60008160060160003373ffffffffffffffffffffffffffffffffffffffff1673ffffffffffffffffffffffffffffffffffffffff16815260200190815260200160002054116105e6576040517f08c379a00000000000000000000000000000000000000000000000000000000081526004016105dd90611b6f565b60405180910390fd5b8060010154816002015410610630576040517f08c379a000000000000000000000000000000000000000000000000000000000815260040161062790611bdb565b60405180910390fd5b60008160060160003373ffffffffffffffffffffffffffffffffffffffff1673ffffffffffffffffffffffffffffffffffffffff16815260200190815260200160002054905060003373ffffffffffffffffffffffffffffffffffffffff168260405161069c90611c2c565b60006040518083038185875af1925050503d80600081146106d9576040519150601f19603f3d011682016040523d82523d6000602084013e6106de565b606091505b5050905080610722576040517f08c379a000000000000000000000000000000000000000000000000000000000815260040161071990611c8d565b60405180910390fd5b818360020160008282546107369190611cdc565b9250508190555060008360060160003373ffffffffffffffffffffffffffffffffffffffff1673ffffffffffffffffffffffffffffffffffffffff168152602001908152602001600020819055503373ffffffffffffffffffffffffffffffffffffffff167f21e12a7cad0da5928167e1084ea4d5fdf8d9af66657a2543a9ac76a0ca08147785846040516107cc929190611d10565b60405180910390a250505050565b60006001600083815260200190815260200160002090506000816004015403610838576040517f08c379a000000000000000000000000000000000000000000000000000000000815260040161082f90611a97565b60405180910390fd5b806003015442111561087f576040517f08c379a000000000000000000000000000000000000000000000000000000000815260040161087690611d85565b60405180910390fd5b60008160060160003373ffffffffffffffffffffffffffffffffffffffff1673ffffffffffffffffffffffffffffffffffffffff1681526020019081526020016000205411610903576040517f08c379a00000000000000000000000000000000000000000000000000000000081526004016108fa90611b6f565b60405180910390fd5b60008160060160003373ffffffffffffffffffffffffffffffffffffffff1673ffffffffffffffffffffffffffffffffffffffff16815260200190815260200160002054905060003373ffffffffffffffffffffffffffffffffffffffff168260405161096f90611c2c565b60006040518083038185875af1925050503d80600081146109ac576040519150601f19603f3d011682016040523d82523d6000602084013e6109b1565b606091505b50509050806109f5576040517f08c379a00000000000000000000000000000000000000000000000000000000081526004016109ec90611c8d565b60405180910390fd5b81836002016000828254610a099190611cdc565b9250508190555060008360060160003373ffffffffffffffffffffffffffffffffffffffff1673ffffffffffffffffffffffffffffffffffffffff16815260200190815260200160002081905550837f963787f23890b4153326475e5d4378e357834353b2296cf5122d3dd172bc80163384604051610a89929190611da5565b60405180910390a250505050565b60005481565b60006001600083815260200190815260200160002090506000816004015403610afb576040517f08c379a0000000000000000000000000000000000000000000000000000000008152600401610af290611a97565b60405180910390fd5b3373ffffffffffffffffffffffffffffffffffffffff168160000160009054906101000a900473ffffffffffffffffffffffffffffffffffffffff1673ffffffffffffffffffffffffffffffffffffffff1614610b8d576040517f08c379a0000000000000000000000000000000000000000000000000000000008152600401610b8490611e1a565b60405180910390fd5b80600401544210610bd3576040517f08c379a0000000000000000000000000000000000000000000000000000000008152600401610bca90611e86565b60405180910390fd5b60016000838152602001908152602001600020600080820160006101000a81549073ffffffffffffffffffffffffffffffffffffffff021916905560018201600090556002820160009055600382016000905560048201600090556005820160006101000a81549060ff0219169055600782016000610c529190611572565b600882016000610c629190611572565b50507f8bf30e7ff26833413be5f69e1d373744864d600b664204b4a2f9844a8eedb9ed82604051610c9391906117e8565b60405180910390a15050565b600060016000838152602001908152602001600020600201549050919050565b60006001600083815260200190815260200160002090506000816004015403610d1d576040517f08c379a0000000000000000000000000000000000000000000000000000000008152600401610d1490611a97565b60405180910390fd5b8060000160009054906101000a900473ffffffffffffffffffffffffffffffffffffffff1673ffffffffffffffffffffffffffffffffffffffff163373ffffffffffffffffffffffffffffffffffffffff1614610daf576040517f08c379a0000000000000000000000000000000000000000000000000000000008152600401610da690611ef2565b60405180910390fd5b806001015481600201541015610dfa576040517f08c379a0000000000000000000000000000000000000000000000000000000008152600401610df190611f5e565b60405180910390fd5b80600301544211610e40576040517f08c379a0000000000000000000000000000000000000000000000000000000008152600401610e3790611fca565b60405180910390fd5b8060050160009054906101000a900460ff1615610e92576040517f08c379a0000000000000000000000000000000000000000000000000000000008152600401610e8990612036565b60405180910390fd5b60003373ffffffffffffffffffffffffffffffffffffffff168260020154604051610ebc90611c2c565b60006040518083038185875af1925050503d8060008114610ef9576040519150601f19603f3d011682016040523d82523d6000602084013e610efe565b606091505b5050905080610f42576040517f08c379a0000000000000000000000000000000000000000000000000000000008152600401610f39906120a2565b60405180910390fd5b60018260050160006101000a81548160ff0219169083151502179055507fa20809e697380eaea0fd13bf4d14b00e2ef29559ef361501189d3be2e9b0ec8583604051610f8e91906117e8565b60405180910390a1505050565b60006001600083815260200190815260200160002060060160003373ffffffffffffffffffffffffffffffffffffffff1673ffffffffffffffffffffffffffffffffffffffff168152602001908152602001600020549050919050565b600060016000838152602001908152602001600020600301549050919050565b6000824261102691906120c2565b90506000828261103691906120c2565b90506000831161107b576040517f08c379a000000000000000000000000000000000000000000000000000000000815260040161107290612142565b60405180910390fd5b60008410156110bf576040517f08c379a00000000000000000000000000000000000000000000000000000000081526004016110b6906121ae565b60405180910390fd5b42821015611102576040517f08c379a00000000000000000000000000000000000000000000000000000000081526004016110f99061221a565b60405180910390fd5b818111611144576040517f08c379a000000000000000000000000000000000000000000000000000000000815260040161113b90612286565b60405180910390fd5b6303c267004261115491906120c2565b811115611196576040517f08c379a000000000000000000000000000000000000000000000000000000000815260040161118d906122f2565b60405180910390fd5b600085116111d9576040517f08c379a00000000000000000000000000000000000000000000000000000000081526004016111d09061235e565b60405180910390fd5b6000808154809291906111eb9061237e565b9190505550600060016000805481526020019081526020016000209050338160000160006101000a81548173ffffffffffffffffffffffffffffffffffffffff021916908373ffffffffffffffffffffffffffffffffffffffff16021790555085816001018190555060008160020181905550818160030181905550828160040181905550878160070190816112819190612572565b50868160080190816112939190612572565b5060008160050160006101000a81548160ff0219169083151502179055503373ffffffffffffffffffffffffffffffffffffffff167fdf16a43b35bfd00b96b1b63cb01ca3d0d459dcd01a9b9d93aaa3f389ae2d05f46000548a898787604051611301959493929190612644565b60405180910390a25050505050505050565b60006001600083815260200190815260200160002090506000816004015403611371576040517f08c379a000000000000000000000000000000000000000000000000000000000815260040161136890611a97565b60405180910390fd5b80600401544210156113b8576040517f08c379a00000000000000000000000000000000000000000000000000000000081526004016113af906126ea565b60405180910390fd5b80600301544211156113ff576040517f08c379a00000000000000000000000000000000000000000000000000000000081526004016113f690611d85565b60405180910390fd5b60003073ffffffffffffffffffffffffffffffffffffffff163460405161142590611c2c565b60006040518083038185875af1925050503d8060008114611462576040519150601f19603f3d011682016040523d82523d6000602084013e611467565b606091505b50509050806114ab576040517f08c379a00000000000000000000000000000000000000000000000000000000081526004016114a29061277c565b60405180910390fd5b348260020160008282546114bf91906120c2565b92505081905550348260060160003373ffffffffffffffffffffffffffffffffffffffff1673ffffffffffffffffffffffffffffffffffffffff168152602001908152602001600020600082825461151791906120c2565b925050819055503373ffffffffffffffffffffffffffffffffffffffff16837f4885b409da2ec1d52c2afe69b0a66b5a3547747b607647660417a2b0378bff403460405161156591906117e8565b60405180910390a3505050565b50805461157e90611a1a565b6000825580601f1061159057506115af565b601f0160209004906000526020600020908101906115ae91906115b2565b5b50565b5b808211156115cb5760008160009055506001016115b3565b5090565b6000604051905090565b600080fd5b600080fd5b6000819050919050565b6115f6816115e3565b811461160157600080fd5b50565b600081359050611613816115ed565b92915050565b60006020828403121561162f5761162e6115d9565b5b600061163d84828501611604565b91505092915050565b600073ffffffffffffffffffffffffffffffffffffffff82169050919050565b600061167182611646565b9050919050565b61168181611666565b82525050565b611690816115e3565b82525050565b60008115159050919050565b6116ab81611696565b82525050565b600081519050919050565b600082825260208201905092915050565b60005b838110156116eb5780820151818401526020810190506116d0565b60008484015250505050565b6000601f19601f8301169050919050565b6000611713826116b1565b61171d81856116bc565b935061172d8185602086016116cd565b611736816116f7565b840191505092915050565b600061010082019050611757600083018b611678565b611764602083018a611687565b6117716040830189611687565b61177e6060830188611687565b61178b6080830187611687565b61179860a08301866116a2565b81810360c08301526117aa8185611708565b905081810360e08301526117be8184611708565b90509998505050505050505050565b60006020820190506117e260008301846116a2565b92915050565b60006020820190506117fd6000830184611687565b92915050565b600080fd5b600080fd5b7f4e487b7100000000000000000000000000000000000000000000000000000000600052604160045260246000fd5b611845826116f7565b810181811067ffffffffffffffff821117156118645761186361180d565b5b80604052505050565b60006118776115cf565b9050611883828261183c565b919050565b600067ffffffffffffffff8211156118a3576118a261180d565b5b6118ac826116f7565b9050602081019050919050565b82818337600083830152505050565b60006118db6118d684611888565b61186d565b9050828152602081018484840111156118f7576118f6611808565b5b6119028482856118b9565b509392505050565b600082601f83011261191f5761191e611803565b5b813561192f8482602086016118c8565b91505092915050565b600080600080600060a08688031215611954576119536115d9565b5b600086013567ffffffffffffffff811115611972576119716115de565b5b61197e8882890161190a565b955050602086013567ffffffffffffffff81111561199f5761199e6115de565b5b6119ab8882890161190a565b94505060406119bc88828901611604565b93505060606119cd88828901611604565b92505060806119de88828901611604565b9150509295509295909350565b7f4e487b7100000000000000000000000000000000000000000000000000000000600052602260045260246000fd5b60006002820490506001821680611a3257607f821691505b602082108103611a4557611a446119eb565b5b50919050565b7f50726f6a656374206e6f74206578697374730000000000000000000000000000600082015250565b6000611a816012836116bc565b9150611a8c82611a4b565b602082019050919050565b60006020820190508181036000830152611ab081611a74565b9050919050565b7f6e6f7420656e6421000000000000000000000000000000000000000000000000600082015250565b6000611aed6008836116bc565b9150611af882611ab7565b602082019050919050565b60006020820190508181036000830152611b1c81611ae0565b9050919050565b7f596f7520617265206e6f74206120636f6e7472696275746f7200000000000000600082015250565b6000611b596019836116bc565b9150611b6482611b23565b602082019050919050565b60006020820190508181036000830152611b8881611b4c565b9050919050565b7f72616973656446756e64203e2074617267657446756e64000000000000000000600082015250565b6000611bc56017836116bc565b9150611bd082611b8f565b602082019050919050565b60006020820190508181036000830152611bf481611bb8565b9050919050565b600081905092915050565b50565b6000611c16600083611bfb565b9150611c2182611c06565b600082019050919050565b6000611c3782611c09565b9150819050919050565b7f756e61626c6520746f2073656e64210000000000000000000000000000000000600082015250565b6000611c77600f836116bc565b9150611c8282611c41565b602082019050919050565b60006020820190508181036000830152611ca681611c6a565b9050919050565b7f4e487b7100000000000000000000000000000000000000000000000000000000600052601160045260246000fd5b6000611ce7826115e3565b9150611cf2836115e3565b9250828203905081811115611d0a57611d09611cad565b5b92915050565b6000604082019050611d256000830185611687565b611d326020830184611687565b9392505050565b7f456e646564000000000000000000000000000000000000000000000000000000600082015250565b6000611d6f6005836116bc565b9150611d7a82611d39565b602082019050919050565b60006020820190508181036000830152611d9e81611d62565b9050919050565b6000604082019050611dba6000830185611678565b611dc76020830184611687565b9392505050565b7f6e6f742063726561746f72000000000000000000000000000000000000000000600082015250565b6000611e04600b836116bc565b9150611e0f82611dce565b602082019050919050565b60006020820190508181036000830152611e3381611df7565b9050919050565b7f7374617274656400000000000000000000000000000000000000000000000000600082015250565b6000611e706007836116bc565b9150611e7b82611e3a565b602082019050919050565b60006020820190508181036000830152611e9f81611e63565b9050919050565b7f4e6f7420617574686f72697a6564210000000000000000000000000000000000600082015250565b6000611edc600f836116bc565b9150611ee782611ea6565b602082019050919050565b60006020820190508181036000830152611f0b81611ecf565b9050919050565b7f4e6f74206d656574207461726765740000000000000000000000000000000000600082015250565b6000611f48600f836116bc565b9150611f5382611f12565b602082019050919050565b60006020820190508181036000830152611f7781611f3b565b9050919050565b7f6e6f7420656e6465640000000000000000000000000000000000000000000000600082015250565b6000611fb46009836116bc565b9150611fbf82611f7e565b602082019050919050565b60006020820190508181036000830152611fe381611fa7565b9050919050565b7f4f776e657220616c72656164792077697468647261776e000000000000000000600082015250565b60006120206017836116bc565b915061202b82611fea565b602082019050919050565b6000602082019050818103600083015261204f81612013565b9050919050565b7f756e61626c6520746f207472616e736665722066756e6420746f206f776e6572600082015250565b600061208c6020836116bc565b915061209782612056565b602082019050919050565b600060208201905081810360008301526120bb8161207f565b9050919050565b60006120cd826115e3565b91506120d8836115e3565b92508282019050808211156120f0576120ef611cad565b5b92915050565b7f6475726174696f6e203c3d203000000000000000000000000000000000000000600082015250565b600061212c600d836116bc565b9150612137826120f6565b602082019050919050565b6000602082019050818103600083015261215b8161211f565b9050919050565b7f737461727446726f6d4e6f77203c203000000000000000000000000000000000600082015250565b60006121986010836116bc565b91506121a382612162565b602082019050919050565b600060208201905081810360008301526121c78161218b565b9050919050565b7f7374617274206174203c206e6f77000000000000000000000000000000000000600082015250565b6000612204600e836116bc565b915061220f826121ce565b602082019050919050565b60006020820190508181036000830152612233816121f7565b9050919050565b7f656e64206174203c3d2073746172742061740000000000000000000000000000600082015250565b60006122706012836116bc565b915061227b8261223a565b602082019050919050565b6000602082019050818103600083015261229f81612263565b9050919050565b7f656e64206174203e206d6178206475726174696f6e2028322079656172732900600082015250565b60006122dc601f836116bc565b91506122e7826122a6565b602082019050919050565b6000602082019050818103600083015261230b816122cf565b9050919050565b7f74617267657446756e64203c3d20300000000000000000000000000000000000600082015250565b6000612348600f836116bc565b915061235382612312565b602082019050919050565b600060208201905081810360008301526123778161233b565b9050919050565b6000612389826115e3565b91507fffffffffffffffffffffffffffffffffffffffffffffffffffffffffffffffff82036123bb576123ba611cad565b5b600182019050919050565b60008190508160005260206000209050919050565b60006020601f8301049050919050565b600082821b905092915050565b6000600883026124287fffffffffffffffffffffffffffffffffffffffffffffffffffffffffffffffff826123eb565b61243286836123eb565b95508019841693508086168417925050509392505050565b6000819050919050565b600061246f61246a612465846115e3565b61244a565b6115e3565b9050919050565b6000819050919050565b61248983612454565b61249d61249582612476565b8484546123f8565b825550505050565b600090565b6124b26124a5565b6124bd818484612480565b505050565b5b818110156124e1576124d66000826124aa565b6001810190506124c3565b5050565b601f821115612526576124f7816123c6565b612500846123db565b8101602085101561250f578190505b61252361251b856123db565b8301826124c2565b50505b505050565b600082821c905092915050565b60006125496000198460080261252b565b1980831691505092915050565b60006125628383612538565b9150826002028217905092915050565b61257b826116b1565b67ffffffffffffffff8111156125945761259361180d565b5b61259e8254611a1a565b6125a98282856124e5565b600060209050601f8311600181146125dc57600084156125ca578287015190505b6125d48582612556565b86555061263c565b601f1984166125ea866123c6565b60005b82811015612612578489015182556001820191506020850194506020810190506125ed565b8683101561262f578489015161262b601f891682612538565b8355505b6001600288020188555050505b505050505050565b600060a0820190506126596000830188611687565b818103602083015261266b8187611708565b905061267a6040830186611687565b6126876060830185611687565b6126946080830184611687565b9695505050505050565b7f4e6f742073746172746564207965740000000000000000000000000000000000600082015250565b60006126d4600f836116bc565b91506126df8261269e565b602082019050919050565b60006020820190508181036000830152612703816126c7565b9050919050565b7f556e61626c6520746f207472616e736665722066756e647320746f207468652060008201527f636f6e74726163742e0000000000000000000000000000000000000000000000602082015250565b60006127666029836116bc565b91506127718261270a565b604082019050919050565b6000602082019050818103600083015261279581612759565b905091905056fea2646970667358221220605fb98ad6120f7bcbf462a2f490389cca52b3546ccbb2d91b47bd0dbdab916364736f6c63430008140033",
  "linkReferences": {},
  "deployedLinkReferences": {}
}